{
  "_format": "hh-sol-artifact-1",
  "contractName": "CredentialAtomicQuerySigValidator",
  "sourceName": "contracts/validators/CredentialAtomicQuerySigValidator.sol",
  "abi": [
    {
      "anonymous": false,
      "inputs": [
        {
          "indexed": false,
          "internalType": "uint8",
          "name": "version",
          "type": "uint8"
        }
      ],
      "name": "Initialized",
      "type": "event"
    },
    {
      "anonymous": false,
      "inputs": [
        {
          "indexed": true,
          "internalType": "address",
          "name": "previousOwner",
          "type": "address"
        },
        {
          "indexed": true,
          "internalType": "address",
          "name": "newOwner",
          "type": "address"
        }
      ],
      "name": "OwnershipTransferred",
      "type": "event"
    },
    {
      "inputs": [],
      "name": "getChallengeInputIndex",
      "outputs": [
        {
          "internalType": "uint256",
          "name": "index",
          "type": "uint256"
        }
      ],
      "stateMutability": "pure",
      "type": "function"
    },
    {
      "inputs": [],
      "name": "getCircuitId",
      "outputs": [
        {
          "internalType": "string",
          "name": "id",
          "type": "string"
        }
      ],
      "stateMutability": "pure",
      "type": "function"
    },
    {
      "inputs": [],
      "name": "getUserIdInputIndex",
      "outputs": [
        {
          "internalType": "uint256",
          "name": "index",
          "type": "uint256"
        }
      ],
      "stateMutability": "pure",
      "type": "function"
    },
    {
      "inputs": [
        {
          "internalType": "address",
          "name": "_verifierContractAddr",
          "type": "address"
        },
        {
          "internalType": "address",
          "name": "_stateContractAddr",
          "type": "address"
        }
      ],
      "name": "initialize",
      "outputs": [],
      "stateMutability": "nonpayable",
      "type": "function"
    },
    {
      "inputs": [],
      "name": "owner",
      "outputs": [
        {
          "internalType": "address",
          "name": "",
          "type": "address"
        }
      ],
      "stateMutability": "view",
      "type": "function"
    },
    {
      "inputs": [],
      "name": "renounceOwnership",
      "outputs": [],
      "stateMutability": "nonpayable",
      "type": "function"
    },
    {
      "inputs": [],
      "name": "revocationStateExpirationTime",
      "outputs": [
        {
          "internalType": "uint256",
          "name": "",
          "type": "uint256"
        }
      ],
      "stateMutability": "view",
      "type": "function"
    },
    {
      "inputs": [
        {
          "internalType": "uint256",
          "name": "expirationTime",
          "type": "uint256"
        }
      ],
      "name": "setRevocationStateExpirationTime",
      "outputs": [],
      "stateMutability": "nonpayable",
      "type": "function"
    },
    {
      "inputs": [],
      "name": "state",
      "outputs": [
        {
          "internalType": "contract IState",
          "name": "",
          "type": "address"
        }
      ],
      "stateMutability": "view",
      "type": "function"
    },
    {
      "inputs": [
        {
          "internalType": "address",
          "name": "newOwner",
          "type": "address"
        }
      ],
      "name": "transferOwnership",
      "outputs": [],
      "stateMutability": "nonpayable",
      "type": "function"
    },
    {
      "inputs": [],
      "name": "verifier",
      "outputs": [
        {
          "internalType": "contract IVerifier",
          "name": "",
          "type": "address"
        }
      ],
      "stateMutability": "view",
      "type": "function"
    },
    {
      "inputs": [
        {
          "internalType": "uint256[]",
          "name": "inputs",
          "type": "uint256[]"
        },
        {
          "internalType": "uint256[2]",
          "name": "a",
          "type": "uint256[2]"
        },
        {
          "internalType": "uint256[2][2]",
          "name": "b",
          "type": "uint256[2][2]"
        },
        {
          "internalType": "uint256[2]",
          "name": "c",
          "type": "uint256[2]"
        },
        {
          "components": [
            {
              "internalType": "uint256",
              "name": "schema",
              "type": "uint256"
            },
            {
              "internalType": "uint256",
              "name": "slotIndex",
              "type": "uint256"
            },
            {
              "internalType": "uint256",
              "name": "operator",
              "type": "uint256"
            },
            {
              "internalType": "uint256[]",
              "name": "value",
              "type": "uint256[]"
            },
            {
              "internalType": "string",
              "name": "circuitId",
              "type": "string"
            }
          ],
          "internalType": "struct ICircuitValidator.CircuitQuery",
          "name": "query",
          "type": "tuple"
        }
      ],
      "name": "verify",
      "outputs": [
        {
          "internalType": "bool",
          "name": "r",
          "type": "bool"
        }
      ],
      "stateMutability": "view",
      "type": "function"
    }
  ],
  "bytecode": "0x608060405234801561001057600080fd5b50612ddb806100206000396000f3fe608060405234801561001057600080fd5b50600436106100b45760003560e01c80637b47323c116100715780637b47323c146101695780638da5cb5b146101875780639f442afa146101a5578063c19d93fb146101c3578063e79ce794146101e1578063f2fde38b146101fd576100b4565b806323962482146100b95780632b7ac3f3146100d7578063485cc955146100f557806359a2aeaa1461011157806367e1d5041461012f578063715018a61461015f575b600080fd5b6100c1610219565b6040516100ce9190611502565b60405180910390f35b6100df61021f565b6040516100ec919061159c565b60405180910390f35b61010f600480360381019061010a9190611609565b610245565b005b610119610410565b60405161012691906116d9565b60405180910390f35b61014960048036038101906101449190611b54565b61044d565b6040516101569190611c24565b60405180910390f35b610167610c71565b005b610171610c85565b60405161017e9190611502565b60405180910390f35b61018f610c8e565b60405161019c9190611c4e565b60405180910390f35b6101ad610cb8565b6040516101ba9190611502565b60405180910390f35b6101cb610cc1565b6040516101d89190611c8a565b60405180910390f35b6101fb60048036038101906101f69190611ca5565b610ce7565b005b61021760048036038101906102129190611cd2565b610cf9565b005b60675481565b606560009054906101000a900473ffffffffffffffffffffffffffffffffffffffff1681565b60008060019054906101000a900460ff161590508080156102765750600160008054906101000a900460ff1660ff16105b806102a3575061028530610d7c565b1580156102a25750600160008054906101000a900460ff1660ff16145b5b6102e2576040517f08c379a00000000000000000000000000000000000000000000000000000000081526004016102d990611d71565b60405180910390fd5b60016000806101000a81548160ff021916908360ff160217905550801561031f576001600060016101000a81548160ff0219169083151502179055505b610e1060678190555082606560006101000a81548173ffffffffffffffffffffffffffffffffffffffff021916908373ffffffffffffffffffffffffffffffffffffffff16021790555081606660006101000a81548173ffffffffffffffffffffffffffffffffffffffff021916908373ffffffffffffffffffffffffffffffffffffffff1602179055506103b2610d9f565b801561040b5760008060016101000a81548160ff0219169083151502179055507f7f26b83ff96e1f2b6a682f133852f6798a09c465da95921460cefb384740249860016040516104029190611dd9565b60405180910390a15b505050565b60606040518060400160405280601881526020017f63726564656e7469616c41746f6d696351756572795369670000000000000000815250905090565b6000606560009054906101000a900473ffffffffffffffffffffffffffffffffffffffff1673ffffffffffffffffffffffffffffffffffffffff1663c32e370e8686868a6040518563ffffffff1660e01b81526004016104b09493929190612034565b602060405180830381865afa1580156104cd573d6000803e3d6000fd5b505050506040513d601f19601f820116820180604052508101906104f191906120ae565b610530576040517f08c379a00000000000000000000000000000000000000000000000000000000081526004016105279061214d565b60405180910390fd5b8160000151866007815181106105495761054861216d565b5b602002602001015114610591576040517f08c379a00000000000000000000000000000000000000000000000000000000081526004016105889061220e565b60405180910390fd5b8160200151866008815181106105aa576105a961216d565b5b6020026020010151146105f2576040517f08c379a00000000000000000000000000000000000000000000000000000000081526004016105e9906122a0565b60405180910390fd5b81604001518660098151811061060b5761060a61216d565b5b602002602001015114610653576040517f08c379a000000000000000000000000000000000000000000000000000000000815260040161064a90612332565b60405180910390fd5b60005b8260600151518110156106fc578260600151818151811061067a5761067961216d565b5b602002602001015187600a836106909190612381565b815181106106a1576106a061216d565b5b6020026020010151146106e9576040517f08c379a00000000000000000000000000000000000000000000000000000000081526004016106e090612427565b60405180910390fd5b80806106f490612447565b915050610656565b506000866001815181106107135761071261216d565b5b602002602001015190506000876002815181106107335761073261216d565b5b602002602001015190506000886000815181106107535761075261216d565b5b602002602001015190506000896004815181106107735761077261216d565b5b6020026020010151905060008a6005815181106107935761079261216d565b5b602002602001015190506000606660009054906101000a900473ffffffffffffffffffffffffffffffffffffffff1673ffffffffffffffffffffffffffffffffffffffff166344c9af28876040518263ffffffff1660e01b81526004016107fa9190611502565b602060405180830381865afa158015610817573d6000803e3d6000fd5b505050506040513d601f19601f8201168201806040525081019061083b91906124a4565b9050600081036108935761084f8686610df8565b61088e576040517f08c379a000000000000000000000000000000000000000000000000000000000815260040161088590612543565b60405180910390fd5b6108d6565b8481146108d5576040517f08c379a00000000000000000000000000000000000000000000000000000000081526004016108cc906125af565b60405180910390fd5b5b60006108e28486610df8565b9050806109d2576000606660009054906101000a900473ffffffffffffffffffffffffffffffffffffffff1673ffffffffffffffffffffffffffffffffffffffff1663bb795715876040518263ffffffff1660e01b81526004016109469190611502565b60c060405180830381865afa158015610963573d6000803e3d6000fd5b505050506040513d601f19601f82011682018060405250810190610987919061260f565b509450505050508085146109d0576040517f08c379a00000000000000000000000000000000000000000000000000000000081526004016109c79061270e565b60405180910390fd5b505b6000606660009054906101000a900473ffffffffffffffffffffffffffffffffffffffff1673ffffffffffffffffffffffffffffffffffffffff166344c9af28866040518263ffffffff1660e01b8152600401610a2f9190611502565b602060405180830381865afa158015610a4c573d6000803e3d6000fd5b505050506040513d601f19601f82011682018060405250810190610a7091906124a4565b905060008103610ac857610a848585610df8565b610ac3576040517f08c379a0000000000000000000000000000000000000000000000000000000008152600401610aba906127a0565b60405180910390fd5b610c5c565b838114610c5b57600080606660009054906101000a900473ffffffffffffffffffffffffffffffffffffffff1673ffffffffffffffffffffffffffffffffffffffff1663bb795715876040518263ffffffff1660e01b8152600401610b2d9190611502565b60c060405180830381865afa158015610b4a573d6000803e3d6000fd5b505050506040513d601f19601f82011682018060405250810190610b6e919061260f565b50945050505091506000811480610b855750868114155b15610bc5576040517f08c379a0000000000000000000000000000000000000000000000000000000008152600401610bbc90612832565b60405180910390fd5b60008203610c08576040517f08c379a0000000000000000000000000000000000000000000000000000000008152600401610bff906128c4565b60405180910390fd5b6067548242610c1791906128e4565b1115610c58576040517f08c379a0000000000000000000000000000000000000000000000000000000008152600401610c4f9061298a565b60405180910390fd5b50505b5b60019850505050505050505095945050505050565b610c79610f43565b610c836000610fc1565b565b60006001905090565b6000603360009054906101000a900473ffffffffffffffffffffffffffffffffffffffff16905090565b60006003905090565b606660009054906101000a900473ffffffffffffffffffffffffffffffffffffffff1681565b610cef610f43565b8060678190555050565b610d01610f43565b600073ffffffffffffffffffffffffffffffffffffffff168173ffffffffffffffffffffffffffffffffffffffff1603610d70576040517f08c379a0000000000000000000000000000000000000000000000000000000008152600401610d6790612a1c565b60405180910390fd5b610d7981610fc1565b50565b6000808273ffffffffffffffffffffffffffffffffffffffff163b119050919050565b600060019054906101000a900460ff16610dee576040517f08c379a0000000000000000000000000000000000000000000000000000000008152600401610de590612aae565b60405180910390fd5b610df6611087565b565b600080610e04836110e8565b90506000610e1182611234565b90506000610e2e82601b8451610e2791906128e4565b601b611291565b90506000604051806040016040528060028152602001600081525090506000610e5782846113af565b9050601d815114610e9d576040517f08c379a0000000000000000000000000000000000000000000000000000000008152600401610e9490612b40565b60405180910390fd5b6000610ea882611439565b9050600081604051602001610ebd9190612ba4565b60405160208183030381529060405290506000610eda84836113af565b9050601f815114610f20576040517f08c379a0000000000000000000000000000000000000000000000000000000008152600401610f1790612c0b565b60405180910390fd5b610f31610f2c826114d3565b6110e8565b8b149850505050505050505092915050565b610f4b6114e1565b73ffffffffffffffffffffffffffffffffffffffff16610f69610c8e565b73ffffffffffffffffffffffffffffffffffffffff1614610fbf576040517f08c379a0000000000000000000000000000000000000000000000000000000008152600401610fb690612c77565b60405180910390fd5b565b6000603360009054906101000a900473ffffffffffffffffffffffffffffffffffffffff16905081603360006101000a81548173ffffffffffffffffffffffffffffffffffffffff021916908373ffffffffffffffffffffffffffffffffffffffff1602179055508173ffffffffffffffffffffffffffffffffffffffff168173ffffffffffffffffffffffffffffffffffffffff167f8be0079c531659141344cd1fd0a4f28419497f9722a3daafe3b4186f6b6457e060405160405180910390a35050565b600060019054906101000a900460ff166110d6576040517f08c379a00000000000000000000000000000000000000000000000000000000081526004016110cd90612aae565b60405180910390fd5b6110e66110e16114e1565b610fc1565b565b600081905060087eff00ff00ff00ff00ff00ff00ff00ff00ff00ff00ff00ff00ff00ff00ff00ff8216901b60087fff00ff00ff00ff00ff00ff00ff00ff00ff00ff00ff00ff00ff00ff00ff00ff008316901c17905060107dffff0000ffff0000ffff0000ffff0000ffff0000ffff0000ffff0000ffff8216901b60107fffff0000ffff0000ffff0000ffff0000ffff0000ffff0000ffff0000ffff00008316901c17905060207bffffffff00000000ffffffff00000000ffffffff00000000ffffffff8216901b60207fffffffff00000000ffffffff00000000ffffffff00000000ffffffff000000008316901c179050604077ffffffffffffffff0000000000000000ffffffffffffffff8216901b60407fffffffffffffffff0000000000000000ffffffffffffffff00000000000000008316901c179050608081901b608082901c179050919050565b6060602067ffffffffffffffff81111561125157611250611700565b5b6040519080825280601f01601f1916602001820160405280156112835781602001600182028036833780820191505090505b509050816020820152919050565b606081601f836112a19190612381565b10156112e2576040517f08c379a00000000000000000000000000000000000000000000000000000000081526004016112d990612ce3565b60405180910390fd5b81836112ee9190612381565b84511015611331576040517f08c379a000000000000000000000000000000000000000000000000000000000815260040161132890612d4f565b60405180910390fd5b606082156000811461135257604051915060008252602082016040526113a3565b6040519150601f8416801560200281840101858101878315602002848b0101015b818310156113905780518352602083019250602081019050611373565b50868552601f19601f8301166040525050505b50809150509392505050565b6060806040519050835180825260208201818101602087015b818310156113e557805183526020830192506020810190506113c8565b50855192508351830184528091508282019050602086015b8183101561141a57805183526020830192506020810190506113fd565b50601f19601f8851850115830101166040525050508091505092915050565b6000601d82511461147f576040517f08c379a000000000000000000000000000000000000000000000000000000000815260040161147690612b40565b60405180910390fd5b60005b82518110156114cd5782818151811061149e5761149d61216d565b5b602001015160f81c60f81b60f81c60ff16826114ba9190612d6f565b9150806114c690612447565b9050611482565b50919050565b600060208201519050919050565b600033905090565b6000819050919050565b6114fc816114e9565b82525050565b600060208201905061151760008301846114f3565b92915050565b600073ffffffffffffffffffffffffffffffffffffffff82169050919050565b6000819050919050565b600061156261155d6115588461151d565b61153d565b61151d565b9050919050565b600061157482611547565b9050919050565b600061158682611569565b9050919050565b6115968161157b565b82525050565b60006020820190506115b1600083018461158d565b92915050565b6000604051905090565b600080fd5b600080fd5b60006115d68261151d565b9050919050565b6115e6816115cb565b81146115f157600080fd5b50565b600081359050611603816115dd565b92915050565b600080604083850312156116205761161f6115c1565b5b600061162e858286016115f4565b925050602061163f858286016115f4565b9150509250929050565b600081519050919050565b600082825260208201905092915050565b60005b83811015611683578082015181840152602081019050611668565b60008484015250505050565b6000601f19601f8301169050919050565b60006116ab82611649565b6116b58185611654565b93506116c5818560208601611665565b6116ce8161168f565b840191505092915050565b600060208201905081810360008301526116f381846116a0565b905092915050565b600080fd5b7f4e487b7100000000000000000000000000000000000000000000000000000000600052604160045260246000fd5b6117388261168f565b810181811067ffffffffffffffff8211171561175757611756611700565b5b80604052505050565b600061176a6115b7565b9050611776828261172f565b919050565b600067ffffffffffffffff82111561179657611795611700565b5b602082029050602081019050919050565b600080fd5b6117b5816114e9565b81146117c057600080fd5b50565b6000813590506117d2816117ac565b92915050565b60006117eb6117e68461177b565b611760565b9050808382526020820190506020840283018581111561180e5761180d6117a7565b5b835b81811015611837578061182388826117c3565b845260208401935050602081019050611810565b5050509392505050565b600082601f830112611856576118556116fb565b5b81356118668482602086016117d8565b91505092915050565b600067ffffffffffffffff82111561188a57611889611700565b5b602082029050919050565b60006118a86118a38461186f565b611760565b905080602084028301858111156118c2576118c16117a7565b5b835b818110156118eb57806118d788826117c3565b8452602084019350506020810190506118c4565b5050509392505050565b600082601f83011261190a576119096116fb565b5b6002611917848285611895565b91505092915050565b600067ffffffffffffffff82111561193b5761193a611700565b5b602082029050919050565b600061195961195484611920565b611760565b90508060408402830185811115611973576119726117a7565b5b835b8181101561199c578061198888826118f5565b845260208401935050604081019050611975565b5050509392505050565b600082601f8301126119bb576119ba6116fb565b5b60026119c8848285611946565b91505092915050565b600080fd5b600080fd5b600080fd5b600067ffffffffffffffff8211156119fb576119fa611700565b5b611a048261168f565b9050602081019050919050565b82818337600083830152505050565b6000611a33611a2e846119e0565b611760565b905082815260208101848484011115611a4f57611a4e6119db565b5b611a5a848285611a11565b509392505050565b600082601f830112611a7757611a766116fb565b5b8135611a87848260208601611a20565b91505092915050565b600060a08284031215611aa657611aa56119d1565b5b611ab060a0611760565b90506000611ac0848285016117c3565b6000830152506020611ad4848285016117c3565b6020830152506040611ae8848285016117c3565b604083015250606082013567ffffffffffffffff811115611b0c57611b0b6119d6565b5b611b1884828501611841565b606083015250608082013567ffffffffffffffff811115611b3c57611b3b6119d6565b5b611b4884828501611a62565b60808301525092915050565b60008060008060006101408688031215611b7157611b706115c1565b5b600086013567ffffffffffffffff811115611b8f57611b8e6115c6565b5b611b9b88828901611841565b9550506020611bac888289016118f5565b9450506060611bbd888289016119a6565b93505060e0611bce888289016118f5565b92505061012086013567ffffffffffffffff811115611bf057611bef6115c6565b5b611bfc88828901611a90565b9150509295509295909350565b60008115159050919050565b611c1e81611c09565b82525050565b6000602082019050611c396000830184611c15565b92915050565b611c48816115cb565b82525050565b6000602082019050611c636000830184611c3f565b92915050565b6000611c7482611569565b9050919050565b611c8481611c69565b82525050565b6000602082019050611c9f6000830184611c7b565b92915050565b600060208284031215611cbb57611cba6115c1565b5b6000611cc9848285016117c3565b91505092915050565b600060208284031215611ce857611ce76115c1565b5b6000611cf6848285016115f4565b91505092915050565b7f496e697469616c697a61626c653a20636f6e747261637420697320616c72656160008201527f647920696e697469616c697a6564000000000000000000000000000000000000602082015250565b6000611d5b602e83611654565b9150611d6682611cff565b604082019050919050565b60006020820190508181036000830152611d8a81611d4e565b9050919050565b6000819050919050565b600060ff82169050919050565b6000611dc3611dbe611db984611d91565b61153d565b611d9b565b9050919050565b611dd381611da8565b82525050565b6000602082019050611dee6000830184611dca565b92915050565b600060029050919050565b600081905092915050565b6000819050919050565b611e1d816114e9565b82525050565b6000611e2f8383611e14565b60208301905092915050565b6000602082019050919050565b611e5181611df4565b611e5b8184611dff565b9250611e6682611e0a565b8060005b83811015611e97578151611e7e8782611e23565b9650611e8983611e3b565b925050600181019050611e6a565b505050505050565b600060029050919050565b600081905092915050565b6000819050919050565b600081905092915050565b611ed381611df4565b611edd8184611ebf565b9250611ee882611e0a565b8060005b83811015611f19578151611f008782611e23565b9650611f0b83611e3b565b925050600181019050611eec565b505050505050565b6000611f2d8383611eca565b60408301905092915050565b6000602082019050919050565b611f4f81611e9f565b611f598184611eaa565b9250611f6482611eb5565b8060005b83811015611f95578151611f7c8782611f21565b9650611f8783611f39565b925050600181019050611f68565b505050505050565b600081519050919050565b600082825260208201905092915050565b6000819050602082019050919050565b6000602082019050919050565b6000611fe182611f9d565b611feb8185611fa8565b9350611ff683611fb9565b8060005b8381101561202757815161200e8882611e23565b975061201983611fc9565b925050600181019050611ffa565b5085935050505092915050565b60006101208201905061204a6000830187611e48565b6120576040830186611f46565b61206460c0830185611e48565b8181036101008301526120778184611fd6565b905095945050505050565b61208b81611c09565b811461209657600080fd5b50565b6000815190506120a881612082565b92915050565b6000602082840312156120c4576120c36115c1565b5b60006120d284828501612099565b91505092915050565b7f61746f6d6963207175657279207369676e61747572652070726f6f662069732060008201527f6e6f742076616c69640000000000000000000000000000000000000000000000602082015250565b6000612137602983611654565b9150612142826120db565b604082019050919050565b600060208201905081810360008301526121668161212a565b9050919050565b7f4e487b7100000000000000000000000000000000000000000000000000000000600052603260045260246000fd5b7f77726f6e6720636c61696d20736368656d6120686173206265656e207573656460008201527f20666f722070726f6f662067656e65726174696f6e0000000000000000000000602082015250565b60006121f8603583611654565b91506122038261219c565b604082019050919050565b60006020820190508181036000830152612227816121eb565b9050919050565b7f77726f6e6720636c61696d206461746120736c6f7420686173206265656e207560008201527f73656420666f722070726f6f662067656e65726174696f6e0000000000000000602082015250565b600061228a603883611654565b91506122958261222e565b604082019050919050565b600060208201905081810360008301526122b98161227d565b9050919050565b7f77726f6e67207175657279206f70657261746f7220686173206265656e20757360008201527f656420666f722070726f6f662067656e65726174696f6e000000000000000000602082015250565b600061231c603783611654565b9150612327826122c0565b604082019050919050565b6000602082019050818103600083015261234b8161230f565b9050919050565b7f4e487b7100000000000000000000000000000000000000000000000000000000600052601160045260246000fd5b600061238c826114e9565b9150612397836114e9565b92508282019050808211156123af576123ae612352565b5b92915050565b7f77726f6e6720636f6d70617269736f6e2076616c756520686173206265656e2060008201527f7573656420666f722070726f6f662067656e65726174696f6e00000000000000602082015250565b6000612411603983611654565b915061241c826123b5565b604082019050919050565b6000602082019050818103600083015261244081612404565b9050919050565b6000612452826114e9565b91507fffffffffffffffffffffffffffffffffffffffffffffffffffffffffffffffff820361248457612483612352565b5b600182019050919050565b60008151905061249e816117ac565b92915050565b6000602082840312156124ba576124b96115c1565b5b60006124c88482850161248f565b91505092915050565b7f557365722073746174652069736e277420696e20737461746520636f6e74726160008201527f637420616e64206e6f742067656e657369730000000000000000000000000000602082015250565b600061252d603283611654565b9150612538826124d1565b604082019050919050565b6000602082019050818103600083015261255c81612520565b9050919050565b7f75736572207374617465206973206e6f74206c61746573740000000000000000600082015250565b6000612599601883611654565b91506125a482612563565b602082019050919050565b600060208201905081810360008301526125c88161258c565b9050919050565b600067ffffffffffffffff82169050919050565b6125ec816125cf565b81146125f757600080fd5b50565b600081519050612609816125e3565b92915050565b60008060008060008060c0878903121561262c5761262b6115c1565b5b600061263a89828a0161248f565b965050602061264b89828a0161248f565b955050604061265c89828a016125fa565b945050606061266d89828a016125fa565b935050608061267e89828a0161248f565b92505060a061268f89828a0161248f565b9150509295509295509295565b7f49737375657220737461746520646f65736e277420657869737420696e20737460008201527f61746520636f6e74726163740000000000000000000000000000000000000000602082015250565b60006126f8602c83611654565b91506127038261269c565b604082019050919050565b60006020820190508181036000830152612727816126eb565b9050919050565b7f4e6f6e2d5265766f636174696f6e2073746174652069736e277420696e20737460008201527f61746520636f6e747261637420616e64206e6f742067656e6573697300000000602082015250565b600061278a603c83611654565b91506127958261272e565b604082019050919050565b600060208201905081810360008301526127b98161277d565b9050919050565b7f737461746520696e207472616e736974696f6e20696e666f20636f6e7461696e60008201527f7320696e76616c69642069640000000000000000000000000000000000000000602082015250565b600061281c602c83611654565b9150612827826127c0565b604082019050919050565b6000602082019050818103600083015261284b8161280f565b9050919050565b7f4e6f6e2d4c617465737420737461746520646f65736e277420636f6e7461696e60008201527f207265706c6163656d656e7420696e666f726d6174696f6e0000000000000000602082015250565b60006128ae603883611654565b91506128b982612852565b604082019050919050565b600060208201905081810360008301526128dd816128a1565b9050919050565b60006128ef826114e9565b91506128fa836114e9565b925082820390508181111561291257612911612352565b5b92915050565b7f4e6f6e2d5265766f636174696f6e207374617465206f6620497373756572206560008201527f7870697265640000000000000000000000000000000000000000000000000000602082015250565b6000612974602683611654565b915061297f82612918565b604082019050919050565b600060208201905081810360008301526129a381612967565b9050919050565b7f4f776e61626c653a206e6577206f776e657220697320746865207a65726f206160008201527f6464726573730000000000000000000000000000000000000000000000000000602082015250565b6000612a06602683611654565b9150612a11826129aa565b604082019050919050565b60006020820190508181036000830152612a35816129f9565b9050919050565b7f496e697469616c697a61626c653a20636f6e7472616374206973206e6f74206960008201527f6e697469616c697a696e67000000000000000000000000000000000000000000602082015250565b6000612a98602b83611654565b9150612aa382612a3c565b604082019050919050565b60006020820190508181036000830152612ac781612a8b565b9050919050565b7f436865636b73756d207265717569726573203239206c656e677468206172726160008201527f7900000000000000000000000000000000000000000000000000000000000000602082015250565b6000612b2a602183611654565b9150612b3582612ace565b604082019050919050565b60006020820190508181036000830152612b5981612b1d565b9050919050565b600061ffff82169050919050565b60008160f01b9050919050565b6000612b8682612b6e565b9050919050565b612b9e612b9982612b60565b612b7b565b82525050565b6000612bb08284612b8d565b60028201915081905092915050565b7f69644279746573207265717569726573203331206c656e677468206172726179600082015250565b6000612bf5602083611654565b9150612c0082612bbf565b602082019050919050565b60006020820190508181036000830152612c2481612be8565b9050919050565b7f4f776e61626c653a2063616c6c6572206973206e6f7420746865206f776e6572600082015250565b6000612c61602083611654565b9150612c6c82612c2b565b602082019050919050565b60006020820190508181036000830152612c9081612c54565b9050919050565b7f736c6963655f6f766572666c6f77000000000000000000000000000000000000600082015250565b6000612ccd600e83611654565b9150612cd882612c97565b602082019050919050565b60006020820190508181036000830152612cfc81612cc0565b9050919050565b7f736c6963655f6f75744f66426f756e6473000000000000000000000000000000600082015250565b6000612d39601183611654565b9150612d4482612d03565b602082019050919050565b60006020820190508181036000830152612d6881612d2c565b9050919050565b6000612d7a82612b60565b9150612d8583612b60565b9250828201905061ffff811115612d9f57612d9e612352565b5b9291505056fea26469706673582212208d4557d14f633fd2ad380c18afe0f85377f35afb7c3893b770e603457a64b3ba64736f6c63430008110033",
  "linkReferences": {},
  "deployedLinkReferences": {}
}