{
  "_format": "hh-sol-artifact-1",
  "contractName": "VerifierSig",
  "sourceName": "contracts/verifiers/circuits/verifierSig.sol",
  "abi": [
    {
      "inputs": [
        {
          "internalType": "uint256[2]",
          "name": "a",
          "type": "uint256[2]"
        },
        {
          "internalType": "uint256[2][2]",
          "name": "b",
          "type": "uint256[2][2]"
        },
        {
          "internalType": "uint256[2]",
          "name": "c",
          "type": "uint256[2]"
        },
        {
          "internalType": "uint256[74]",
          "name": "input",
          "type": "uint256[74]"
        }
      ],
      "name": "verifyProof",
      "outputs": [
        {
          "internalType": "bool",
          "name": "r",
          "type": "bool"
        }
      ],
      "stateMutability": "view",
      "type": "function"
    }
  ],
  "bytecode": "0x608060405234801561001057600080fd5b50613c5d806100206000396000f3fe608060405234801561001057600080fd5b506004361061002b5760003560e01c8063f035c56314610030575b600080fd5b61004a6004803603810190610045919061373f565b610060565b60405161005791906137c3565b60405180910390f35b600061006a61330f565b604051806040016040528087600060028110610089576100886137de565b5b60200201518152602001876001600281106100a7576100a66137de565b5b6020020151815250816000018190525060405180604001604052806040518060400160405280886000600281106100e1576100e06137de565b5b60200201516000600281106100f9576100f86137de565b5b6020020151815260200188600060028110610117576101166137de565b5b602002015160016002811061012f5761012e6137de565b5b6020020151815250815260200160405180604001604052808860016002811061015b5761015a6137de565b5b6020020151600060028110610173576101726137de565b5b6020020151815260200188600160028110610191576101906137de565b5b60200201516001600281106101a9576101a86137de565b5b602002015181525081525081602001819052506040518060400160405280856000600281106101db576101da6137de565b5b60200201518152602001856001600281106101f9576101f86137de565b5b602002015181525081604001819052506000604a67ffffffffffffffff81111561022657610225613476565b5b6040519080825280602002602001820160405280156102545781602001602082028036833780820191505090505b50905060005b604a8110156102ad578481604a8110610276576102756137de565b5b602002015182828151811061028e5761028d6137de565b5b60200260200101818152505080806102a59061383c565b91505061025a565b5060006102ba82846102d9565b036102ca576001925050506102d1565b6000925050505b949350505050565b6000807f30644e72e131a029b85045b68181585d2833e84879b9709143e1f593f0000001905060006103096104cc565b90508060800151516001865161031f9190613884565b1461035f576040517f08c379a000000000000000000000000000000000000000000000000000000000815260040161035690613915565b60405180910390fd5b60006040518060400160405280600081526020016000815250905060005b865181101561044e578387828151811061039a576103996137de565b5b6020026020010151106103e2576040517f08c379a00000000000000000000000000000000000000000000000000000000081526004016103d990613981565b60405180910390fd5b6104398261043485608001516001856103fb9190613884565b8151811061040c5761040b6137de565b5b60200260200101518a8581518110610427576104266137de565b5b6020026020010151612b05565b612bdd565b915080806104469061383c565b91505061037d565b5061047881836080015160008151811061046b5761046a6137de565b5b6020026020010151612bdd565b90506104ae61048a8660000151612cdb565b8660200151846000015185602001518587604001518b604001518960600151612d80565b6104be57600193505050506104c6565b600093505050505b92915050565b6104d4613342565b60405180604001604052807f2d4d9aa7e302d9df41749d5507949d05dbea33fbb16c643b22f599a2be6df2e281526020017f14bedd503c37ceb061d8ec60209fe345ce89830a19230301f076caff004d19268152508160000181905250604051806040016040528060405180604001604052807f0967032fcbf776d1afc985f88877f182d38480a653f2decaa9794cbc3bf3060c81526020017f0e187847ad4c798374d0d6732bf501847dd68bc0e071241e0213bc7fc13db7ab815250815260200160405180604001604052807f304cfbd1e08a704a99f5e847d93f8c3caafddec46b7a0d379da69a4d112346a781526020017f1739c1b1a457a8c7313123d24d2f9192f896b7c63eea05a9d57f06547ad0cec88152508152508160200181905250604051806040016040528060405180604001604052807f198e9393920d483a7260bfb731fb5d25f1aa493335a9e71297e485b7aef312c281526020017f1800deef121f1e76426a00665e5c4479674322d4f75edadd46debd5cd992f6ed815250815260200160405180604001604052807f090689d0585ff075ec9e99ad690c3395bc4b313370b38ef355acdadcd122975b81526020017f12c85ea5db8c6deb4aab71808dcb408fe3d1e7690c43d37b4ce6cc0166fa7daa8152508152508160400181905250604051806040016040528060405180604001604052807f1e7ba98e9390fcb43acc3414e16272c80048c2aac25090460747365ebc5d44bb81526020017f30583032aa84644a3f57e9a852112e2872df8810f23d1d403dad8c72241cd2da815250815260200160405180604001604052807f2bce8d54572fb845245e76198debf7253220044e3aa904954a1e5b71ecbd57a881526020017f25e32f0962a59b38a65ee17f5b55025e03e6d5dacbbcb5b95dea772d068a0c748152508152508160600181905250604b67ffffffffffffffff81111561079b5761079a613476565b5b6040519080825280602002602001820160405280156107d457816020015b6107c1613389565b8152602001906001900390816107b95790505b50816080018190525060405180604001604052807f037ea9a0d619c1f7a573cd51a5cc19c1e7bc2ee0d653173d695416e316a0e1ad81526020017f1912b8cd1e3731cc843fd26e216a45b969ebd95861587deae176f1ed07f60796815250816080015160008151811061084a576108496137de565b5b602002602001018190525060405180604001604052807f11116de0a47af186997f962f633ab1bf1416a4d8b455ff833f90586db96780a881526020017f152defb7e6505cfa03306da59b9e2f0a4323714899a7f5b6323523a364e24f6581525081608001516001815181106108c2576108c16137de565b5b602002602001018190525060405180604001604052807f2560904176622f4153a0a66ce46823f1611d4493db8e8fb854ac9c502304f44681526020017f092cb91c3c3b4a6d96f0cb2516c9d32feecc01b8733cabec8aae068ecf1bafa8815250816080015160028151811061093a576109396137de565b5b602002602001018190525060405180604001604052807f1c55f7cdde470362b666758df55e0b74158dd2a6dd6811e705f979562cf6f7be81526020017f2be32cf41d91379f6e3f1f2375be0d4c1619607eeb9e7dbd15cbd4b965969b6781525081608001516003815181106109b2576109b16137de565b5b602002602001018190525060405180604001604052807f0b4650832546ab93d99e02714a53db4f4acfac1eb27f7c5ba95f0dac26b5f84d81526020017f22c9c1fa8d701c0cb7cd17b0ed2f9a36a93674583658708d25bcd0b185b267a98152508160800151600481518110610a2a57610a296137de565b5b602002602001018190525060405180604001604052807f21cdaf2269328b41996ce3b22f98830c37bf0d272cfe7d8ce378873780c53cef81526020017f01d7413950bdabaada1c8fa9718ac9af307e6e2df254a66a7947814197bb85658152508160800151600581518110610aa257610aa16137de565b5b602002602001018190525060405180604001604052807f22fa753cbb692f057da8a9247724df6a446e6483d071135f21fc1cb8d95fc6be81526020017f04f52d1af0e9d986ef31987af670f8c55a55d873ca5808ba5eb5af0d1425267c8152508160800151600681518110610b1a57610b196137de565b5b602002602001018190525060405180604001604052807f096ead8a720099e3b90993e2842bfaeb31d9226811b1c7a186c2b94d21c48bab81526020017f2df06811e327d6b716d51f7ccf120409c41cc3a7c127858e6d58e54aef89cc218152508160800151600781518110610b9257610b916137de565b5b602002602001018190525060405180604001604052807f088383226d3ee14295a71e114020b7e49042deae5bea4770eda9deddfb84ea2981526020017f06f315b540eac61065e21079a98113e1a6de8557c8a05c25388c7cb6a7d40a098152508160800151600881518110610c0a57610c096137de565b5b602002602001018190525060405180604001604052807f084b7402c577099079cd205e76a5de4e441e61549c4ba55ae6ba78b88d62104d81526020017f20f3785c3d438aeaa3b369e8ec007ee8b93dc18e1dccbf3dc5dc0182b35f20db8152508160800151600981518110610c8257610c816137de565b5b602002602001018190525060405180604001604052807f0fd2c90ac0b4a7b543a424543419ebf814d58e77f60eabd5a8316c8dcb60582d81526020017eaa1b475b505a7c15c2c59a50c48ffc94981220411cd41ae840f795a2d912b08152508160800151600a81518110610cf957610cf86137de565b5b602002602001018190525060405180604001604052807f167b8e59b6cc56373294b870dbbcf0d5c8874de0654031402b3d2eefa703528e81526020017f15e0637d248c8ed0641c5b7b33fc07aa5d1992b53f5dfdb02ba35f03a70140c98152508160800151600b81518110610d7157610d706137de565b5b602002602001018190525060405180604001604052807f24cb520a94c29f417ce98dbc8acca2a24ccc92d9b7849dc309cc5acf0b1c245781526020017f102d1e19981555202c55fbb9a2ed755e474a5e1a45e1cdf9ce92f69b974bf8cb8152508160800151600c81518110610de957610de86137de565b5b602002602001018190525060405180604001604052807f14bacf3c6fc7c63dc71477f23022cf71c16107cf83e95c153ea1ede1bde4572e81526020017f055ebd7b4a00e733d369911eccdc002e35734e1da9c3afb60b69fa2197eda5488152508160800151600d81518110610e6157610e606137de565b5b602002602001018190525060405180604001604052807f07984f1691636472e71e26c16e0363e193b17e307179a3aebc04adefb711d58f81526020017f0428f54546e6c1c3ec77285c40931bf32480a1e0e44c030ca45c990a546274118152508160800151600e81518110610ed957610ed86137de565b5b602002602001018190525060405180604001604052807f2b0d85a068e9273dd0949e0d5e7e1f47116a3ae26f96c5a96d209b29557e173f81526020017f147fede06f16cd194cdc6397d71a301e41eda8646d37e0f7159727ec77b54e408152508160800151600f81518110610f5157610f506137de565b5b602002602001018190525060405180604001604052807f305ce332e5d0a11ba62f8ed5dc5dac2e2b5cef10e5eb7a39867fc162d60ec0d781526020017f1fd95076e33292271052e2a8e88c3a38adba88c687cba1b932f6e7238a8c85e98152508160800151601081518110610fc957610fc86137de565b5b602002602001018190525060405180604001604052807f22c5930d14fcf863479a029b0241122d141363781f0887c265c9a4a3cc27a53681526020017f1b47599b96bcb01405c50a0482d30603a9492c3a29028002928dcf1b86cf05b68152508160800151601181518110611041576110406137de565b5b602002602001018190525060405180604001604052807f066275ddb3e984211b174bdeee49de93021b4aebd9bbd1c0eec5129143646ac981526020017f25ce5d37ba9817c43d2bac81961f0ad18aab8f862a7a3cbeaceafcce652725a781525081608001516012815181106110b9576110b86137de565b5b602002602001018190525060405180604001604052807f28a233b365d7b1c9f05fd1e48175f3dd6f31f473df799aa19e6a96ab426c14f181526020017f14e3a07897736f6cc7c5a24a45f90a1f2581140f449d15c476edeb1165cb0e4a8152508160800151601381518110611131576111306137de565b5b602002602001018190525060405180604001604052807f1f2a0639012657a2495f5ed499d311f58757bbbcf5986d5d33d130af82e20bf281526020017f2a9802dab84d907517362428191c647f4ea6e48325f534272a828cc8a6af9c7881525081608001516014815181106111a9576111a86137de565b5b602002602001018190525060405180604001604052807f021b22afcbcdf79eb5e9cb65fa5f541a7d00e90abf344ea9043ee03ec17ef98981526020017f263d17dc888e9636a9e411514cfcbd2f9406cf8dff3f0a0ce723254df48c0fca8152508160800151601581518110611221576112206137de565b5b602002602001018190525060405180604001604052807f070c138c4d31875aed3e120e31762109d9b9a60f1c56c57a1be9313eac85b4de81526020017f258c0bc2627b0125c47e03590fd3f8978e235904be1464cd9183e7170b5e623e8152508160800151601681518110611299576112986137de565b5b602002602001018190525060405180604001604052807f072e6f5c3d0273129d1dd81718725dc69406aa758c9882c29bf68e9a944b30e081526020017f2dc72867d8f1af4e7904e9a00544a84f5005100cafaa126bc2f8f01e272930cd8152508160800151601781518110611311576113106137de565b5b602002602001018190525060405180604001604052807f26a404fbea8f7de9459123d85624488c3906b2e6c6217846eefbbc3329527f0881526020017f1c707fbf698c2bd59a2709c8471766c962b2fe9a35b4befe58deaa8434bffcb68152508160800151601881518110611389576113886137de565b5b602002602001018190525060405180604001604052807f28fe6349e32535837cda7b17fa5e6713c1ab32b5647816ffa61947bfd643eeec81526020017f01fa9a8cc2fbdd34966b9930dc8759b6c9a560193545281fd55a46e872c50ad98152508160800151601981518110611401576114006137de565b5b602002602001018190525060405180604001604052807f2fea6f24d43b3a03c8026a1806d1dbfb9f1a3a36be06efb068087d0097dcc3b581526020017f25254af50c3fe1011dc6a404c3ef5974e6aa766f853763a1b85f019e445940168152508160800151601a81518110611479576114786137de565b5b602002602001018190525060405180604001604052807f054edae63f07b358aeb3cc62e1834effaa9d7982b83cccbd3212f54dad41093481526020017f2be99b753b181b86c2e59e5ed8b7c8ac77fdffa98b107c6bd101e66ee8cd13d18152508160800151601b815181106114f1576114f06137de565b5b602002602001018190525060405180604001604052807f2aa5f332adc476705b2f0fab49c277118839d7eccdf88255cc7e67cd245ed00d81526020017f2d60a218b6a880c3e1177a34f97914b144586dadccda4f8485d61c7934f6b0e78152508160800151601c81518110611569576115686137de565b5b602002602001018190525060405180604001604052807f151be8a2f487bd57b37959ad1aa4b7daaeae22cec04dd51b13b1df533c5a999f81526020017f2529c817f97bd8bdf2a034f41414aadb02cc191db6319608b29892cdb3daac2d8152508160800151601d815181106115e1576115e06137de565b5b602002602001018190525060405180604001604052807f232eab3e0b0732470c86493f9d7fedfb342fe513183dd2d7a518f91bdaf367e281526020017f1e979ea73995752402735e193949e5d561f5303b99bf6d297d266af35b8daac98152508160800151601e81518110611659576116586137de565b5b602002602001018190525060405180604001604052807f1740de3c8a07c24861c14c818304512ee759db6a16b48b4394cfc97e6ea1cc1c81526020017f2c7edfa9031a543927cf2e8e5907ba875615200bb440a1cb10dd0f62540c02918152508160800151601f815181106116d1576116d06137de565b5b602002602001018190525060405180604001604052807f06e3132c47012245c95b42a5a8877a46f051d5ab2dec1f183bf6baad6c8580e781526020017e2b2acb12459bd6c47aaf17f1ec5b6409683e17de665c0631d5c5f348f436358152508160800151602081518110611748576117476137de565b5b602002602001018190525060405180604001604052807f04bdc043df0b9ba94342f6bfbd2f6b7caf2f076fafb2a6cf64d9302b1559370e81526020017f0eeb6ba5b2238e60d21d0d90b2518def30934a2eb564450daf12ed0fe0bd04ac81525081608001516021815181106117c0576117bf6137de565b5b602002602001018190525060405180604001604052807f2aaeff291623c9d4494271090cd7012feed20df91e36e5c779f802112a06198081526020017f0d5b57aec90e2dc546b11e803d273349437b096aac56ef74b501606c683dc6188152508160800151602281518110611838576118376137de565b5b602002602001018190525060405180604001604052807f124941bffc1f498f7994178295b7297690f5f9a7da3b43ce69b54aa07bc63c5581526020017e0db51acfcd9a3f3b80f17d6b86dd45285ab3df82ad1c82551ebe81e9ff9b6881525081608001516023815181106118af576118ae6137de565b5b602002602001018190525060405180604001604052807f106a97181aa31b17e442b9fb66718a79d1fa89b3f11312a57a68691e6e6ed82381526020017f0ec95b3cd8530b2159cbbcf0a4cd064f7aa081e7f608f7f07a6d85f41c505b858152508160800151602481518110611927576119266137de565b5b602002602001018190525060405180604001604052807f1cbbbd7ef238630971bd483b76f98291b74a0e4ea06bf8a281808f8c204d776481526020017f2e6620e58b8f7ba8b66a95df4552166e1ed3bdcdb0ac1b23dbe983270cc2c360815250816080015160258151811061199f5761199e6137de565b5b602002602001018190525060405180604001604052807f13d347022ee7d06a6ff53520d51dda2346db66d0f1f87e73edf8edd9f96618df81526020017f2202556b64e8b8d075698ca2c4a53c419056a18c2c759206877262b6f71bdcf48152508160800151602681518110611a1757611a166137de565b5b602002602001018190525060405180604001604052807f2fa12ae1140f9e3b54a2511e415a00cde110a9a4016459c946b851eafcd806b281526020017f05270f114d616ec085f212d7e07c8a04f51c13b4b08f574efba2c49c2d90293a8152508160800151602781518110611a8f57611a8e6137de565b5b602002602001018190525060405180604001604052807f18b00d0b54bc72bbd272036033daf38366ffb5788eb7673ac2924ded34f52ef981526020017f019fabadf0f3a29966b946b6bf3153ab21d8345319bcf469f7f49f1e29f567178152508160800151602881518110611b0757611b066137de565b5b602002602001018190525060405180604001604052807f0adedb4462c2ec30ff8e56f3eb4e594b5594cd46ed81c48a50855698ab285b4781526020017f266884852e329c90111c77014f6e623f42cb9b7cfabd4b830fe0c5ddb5b916778152508160800151602981518110611b7f57611b7e6137de565b5b602002602001018190525060405180604001604052807f14568b9e9f7bd78606fc4a6fd107d4c42f08146903b80aed6cb68c14d47c998e81526020017f023990c82aa9c3aba2e5622db5a1035e1652a21f27e5af42487ebd142f930c588152508160800151602a81518110611bf757611bf66137de565b5b602002602001018190525060405180604001604052807f22f3b20c31ada639f7bd375b5b50f8840733b60b225d66f907dfbee427d1087f81526020017f1db5d9b0802a848b54bfb6729629cf1258353a0464fcbdbd7fe9dcd3068113348152508160800151602b81518110611c6f57611c6e6137de565b5b602002602001018190525060405180604001604052807f255e1621b15c1bf1f8cbd0380ebaf63423b69518a1e909239a5fcd85a6903c2e81526020017f17cbbb8c7ef952c985a2d5b5035292a257d8a48ea7ba3f7a809ba36068da9fac8152508160800151602c81518110611ce757611ce66137de565b5b602002602001018190525060405180604001604052807f288296ed84a4bb695c6f6daa050e99fa5e20e438c5ad56ff7ffa4a596cbdf0e981526020017f098886ac74d51e84341e7bc08195b497324b6959675afa37980ea39729c053098152508160800151602d81518110611d5f57611d5e6137de565b5b602002602001018190525060405180604001604052807f189c2ab494a9813703cc11bb69a125462b9cf11e2585559e0c089842d0d2611c81526020017f14db1c99c2a3068a08d82f951194cd27871f3a4c3f000427d1f3eca0e51ccd668152508160800151602e81518110611dd757611dd66137de565b5b602002602001018190525060405180604001604052807f12a04d4cc78ab88ff30ea2ef44a6c2a5fbb34758663021bfdb7190ed82b876b381526020017f26ae24f8801571a59fd60ba8a22d78f97bd8c94fac8a8695a6b97c6ea35281478152508160800151602f81518110611e4f57611e4e6137de565b5b602002602001018190525060405180604001604052807f0b2c0841d8e86c8ff4e35aa466737b62d5d13e27903ddc906883907e808f686d81526020017f188423fe4501e74ca6b20fb18efa9d4646f10465f81f9cc9d604a6cbd1ebf8628152508160800151603081518110611ec757611ec66137de565b5b602002602001018190525060405180604001604052807f2f798400e510200f9090327426bdb862a3f9ba09672ad553fab723670e93ca8281526020017f195277fe874ff76b4d929c65b920f3ecddceb74ee9f512a15bbc10374e00a21d8152508160800151603181518110611f3f57611f3e6137de565b5b602002602001018190525060405180604001604052807f18563bea77d6839df54f1e1f1cf835b4dd03f0b4050b944e35d33a8929b8159881526020017f1aa621e79c6190187e84e23ad3b2d986f64915af057f1dc3d56cf69b546072c78152508160800151603281518110611fb757611fb66137de565b5b602002602001018190525060405180604001604052807f05f82322824b664b80c494376ca1039884c2733380a8be9522313386079c27e181526020017f0aab5544c8a827a9a5083cf4e0d2d447c8641f345b3a30b68af323cd223c1f01815250816080015160338151811061202f5761202e6137de565b5b602002602001018190525060405180604001604052807f0ebcdc73cc97e49057e90c27ebe4d45dac2d8026962033d13c6bb91dcbec6a0f81526020017f1dee067fab908309a742848aa72e88da27916ea28d1b4912a92b860b0d4f2c3c81525081608001516034815181106120a7576120a66137de565b5b602002602001018190525060405180604001604052807f103a23a7f2e6feffce85dbac9217f62755060cd8fc8acf145f5b63cf5e123dd681526020017f283e30ca357156ae80b99a44ea6517bef49a45d381aa0e7405ccf1b325a42aa3815250816080015160358151811061211f5761211e6137de565b5b602002602001018190525060405180604001604052807f2c064268a0b5e27dc71bc4258a1e075604332aa73ed765f9dfb2bf40b129feb981526020017f245d8e7c1432fd952b84dd430c61c828d06bce653a1bc87c8a9da5d49b5e4f648152508160800151603681518110612197576121966137de565b5b602002602001018190525060405180604001604052807f2e91bcde8d62dfe60698bf6550b9e743cbc7b88132f213c9f8b19b99d3deeaf581526020017f13a883558480b361f08eeabf37421e0b1ef64ce78d5e7810ab50f76f57c8af4d815250816080015160378151811061220f5761220e6137de565b5b602002602001018190525060405180604001604052807f2ba4fd96857c9ac6249655c1458a9ee6bc075d444485b1f2e3abba37e759df8a81526020017f0fbd584ba5f65cc8c7daac60554d6df1217784039c06b0f74087c23427a71b048152508160800151603881518110612287576122866137de565b5b602002602001018190525060405180604001604052807f154fe52c086808868e959b428e8acdbe81a31924e8f6168272a209c5a4a211a781526020017f2a2821db9451385cdf389b9e691752436f0e9d9c8cbed75027339fca057157f181525081608001516039815181106122ff576122fe6137de565b5b602002602001018190525060405180604001604052807f2997b48807ccd94cbc6a0d1461bdf938da9f1823290b72bd5fe70ed55db8296981526020017f2fa8c2ce12b9cf8bb0f3407a9af042398b69299fdf5e6e20cf984df31be67bcc8152508160800151603a81518110612377576123766137de565b5b602002602001018190525060405180604001604052807f2c56b13caef64134ba4926cdcd2affc81d562abb92c6fb4e3a523aafb23ab62481526020017f080844f90d69e03d7280358d67145d42c6ee0b9073cfffc12738a365c4c971958152508160800151603b815181106123ef576123ee6137de565b5b602002602001018190525060405180604001604052807f05ad111b8c095c8e0470de3fa5d318b32e39864e2a8dd20b7db20fed00d5015d81526020017f2df46ea2939c7b8da64327c96522ebdb5bcf6c0699f668a24f9712b9135de8f88152508160800151603c81518110612467576124666137de565b5b602002602001018190525060405180604001604052807f190d1aaf21293a1edc0004e96d59ef3fe8f3adc6a81a994eea3a5bb9e7bfb3f581526020017f1e380cb2d8154a5ffb6de968535f742f8178c0d52615489d42608ef26a8c4f5f8152508160800151603d815181106124df576124de6137de565b5b602002602001018190525060405180604001604052807f2ff00d3fad693b4fcf1ddfc49dc71297608d0f7eecb4e991ab3e92fe168abcfb81526020017f144f5198d0493d1f9743acc70b7143574c2f014c973ce4db4fa7854a0b1d1cce8152508160800151603e81518110612557576125566137de565b5b602002602001018190525060405180604001604052807f1d1bb5c6bafd6c16d7b001430ca919cae17c96f7eb8cb186c754f65f23f3f06581526020017f1ed150c91da64c5b91b988cc2e15aca24de6908479a81b7c8ffc9ccd4248e8378152508160800151603f815181106125cf576125ce6137de565b5b602002602001018190525060405180604001604052807f2e58f994d2c568b7dbb5f10eb7107ae6192572c3bf1041149b568566db10f03a81526020017f2ae2e576ff8cb9cc9250f2a5717ccb55eb8b59ebb4d1371adf6820c46dc15e958152508160800151604081518110612647576126466137de565b5b602002602001018190525060405180604001604052807f091291832dc493884d71a60c2d99af36214fe639e9f9a7ce9f317091ff9d556f81526020017f25e15235509edf0a4498e9df4372f723347187d7eda6df8f166bf32157ce1d2d81525081608001516041815181106126bf576126be6137de565b5b602002602001018190525060405180604001604052807f19b17a117a2bd87e6b0cdbf670a367ae4865ef3f86abfe067f9c3fdc5deb87ef81526020017f1c0d065b91002ab471d8d076a41fd3065a58d934c9c2502df9e6a810b172c0158152508160800151604281518110612737576127366137de565b5b602002602001018190525060405180604001604052807f1a6a84930b10b221d8c8bc28b60d8cc6db87e359163c1846fe7228f54401c9ca81526020017f1202668413aac4471be92d02fedc2cac317891560ba042f2fef93e0421cf94f581525081608001516043815181106127af576127ae6137de565b5b602002602001018190525060405180604001604052807f1502b666ae318a9a084cd6738891545348b47e1acd3bdaf3fec45da4055ec8ef81526020017f126f5ffcf69e60d41fec256bf5f988c4b7d1827632eef8de700a0a6a25d4c6178152508160800151604481518110612827576128266137de565b5b602002602001018190525060405180604001604052807f06cde48990ac5dba4abb478d5621ceb19c016de3aa684f5af0479ecbae82643e81526020017f2a8089f94a4b7953d956a738a3d0dfde2fcb09ee91eaf8d2e473ca5f76894cb7815250816080015160458151811061289f5761289e6137de565b5b602002602001018190525060405180604001604052807f2dbccc7aeb744fc26850ec8978d5ae2a733f3198d80b8a200825e0d3019ec9fc81526020017f17c1fe883deca5d7456a0ec90af46a6bef129ee52e66fd884c5572de81dfa3a28152508160800151604681518110612917576129166137de565b5b602002602001018190525060405180604001604052807f158a549232d6495b2efc1f2409876ad8f9cb8a4cd67617b428769d8c9f50a2dd81526020017f179fdc230447ed6b131eec4c387bbd78f9dbef0d2220328fe1b1ce85bd641acb815250816080015160478151811061298f5761298e6137de565b5b602002602001018190525060405180604001604052807f0d6aa23b7cb2155bb3c15b2a097919f99f3a623ca704a421407bd4a9033c68b581526020017f29ccc9dcacccee51356c27dc4b74fc6258c1d65c5c3925b3804764e0598e2e318152508160800151604881518110612a0757612a066137de565b5b602002602001018190525060405180604001604052807f18fadcbb98a8549faf1697c7534452852d17fb69c340f42790bc0075ba27635381526020017f1dd3161d0c099bd71434bd9ad94606847d5a8e5575a18354752fc300daf847128152508160800151604981518110612a7f57612a7e6137de565b5b602002602001018190525060405180604001604052807f2a1e34cc57ad2df8fb287dc51fe05d914464bbb82d4f0d9f7decc617bae941a481526020017f1e7c9da4d393166666a6fee498824a45c2c8470cd970d3cd3d03ee6099b60aed8152508160800151604a81518110612af757612af66137de565b5b602002602001018190525090565b612b0d613389565b612b156133a3565b836000015181600060038110612b2e57612b2d6137de565b5b602002018181525050836020015181600160038110612b5057612b4f6137de565b5b6020020181815250508281600260038110612b6e57612b6d6137de565b5b602002018181525050600060608360808460076107d05a03fa90508060008103612b9457fe5b5080612bd5576040517f08c379a0000000000000000000000000000000000000000000000000000000008152600401612bcc906139ed565b60405180910390fd5b505092915050565b612be5613389565b612bed6133c5565b836000015181600060048110612c0657612c056137de565b5b602002018181525050836020015181600160048110612c2857612c276137de565b5b602002018181525050826000015181600260048110612c4a57612c496137de565b5b602002018181525050826020015181600360048110612c6c57612c6b6137de565b5b602002018181525050600060608360c08460066107d05a03fa90508060008103612c9257fe5b5080612cd3576040517f08c379a0000000000000000000000000000000000000000000000000000000008152600401612cca90613a59565b60405180910390fd5b505092915050565b612ce3613389565b60007f30644e72e131a029b85045b68181585d97816a916871ca8d3c208c16d87cfd47905060008360000151148015612d20575060008360200151145b15612d44576040518060400160405280600081526020016000815250915050612d7b565b604051806040016040528084600001518152602001828560200151612d699190613aa8565b83612d749190613ad9565b8152509150505b919050565b600080600467ffffffffffffffff811115612d9e57612d9d613476565b5b604051908082528060200260200182016040528015612dd757816020015b612dc4613389565b815260200190600190039081612dbc5790505b5090506000600467ffffffffffffffff811115612df757612df6613476565b5b604051908082528060200260200182016040528015612e3057816020015b612e1d6133e7565b815260200190600190039081612e155790505b5090508a82600081518110612e4857612e476137de565b5b60200260200101819052508882600181518110612e6857612e676137de565b5b60200260200101819052508682600281518110612e8857612e876137de565b5b60200260200101819052508482600381518110612ea857612ea76137de565b5b60200260200101819052508981600081518110612ec857612ec76137de565b5b60200260200101819052508781600181518110612ee857612ee76137de565b5b60200260200101819052508581600281518110612f0857612f076137de565b5b60200260200101819052508381600381518110612f2857612f276137de565b5b6020026020010181905250612f3d8282612f4d565b9250505098975050505050505050565b60008151835114612f93576040517f08c379a0000000000000000000000000000000000000000000000000000000008152600401612f8a90613b59565b60405180910390fd5b6000835190506000600682612fa89190613b79565b905060008167ffffffffffffffff811115612fc657612fc5613476565b5b604051908082528060200260200182016040528015612ff45781602001602082028036833780820191505090505b50905060005b8381101561327957868181518110613015576130146137de565b5b6020026020010151600001518260006006846130319190613b79565b61303b9190613884565b8151811061304c5761304b6137de565b5b60200260200101818152505086818151811061306b5761306a6137de565b5b6020026020010151602001518260016006846130879190613b79565b6130919190613884565b815181106130a2576130a16137de565b5b6020026020010181815250508581815181106130c1576130c06137de565b5b6020026020010151600001516000600281106130e0576130df6137de565b5b60200201518260026006846130f59190613b79565b6130ff9190613884565b815181106131105761310f6137de565b5b60200260200101818152505085818151811061312f5761312e6137de565b5b60200260200101516000015160016002811061314e5761314d6137de565b5b60200201518260036006846131639190613b79565b61316d9190613884565b8151811061317e5761317d6137de565b5b60200260200101818152505085818151811061319d5761319c6137de565b5b6020026020010151602001516000600281106131bc576131bb6137de565b5b60200201518260046006846131d19190613b79565b6131db9190613884565b815181106131ec576131eb6137de565b5b60200260200101818152505085818151811061320b5761320a6137de565b5b60200260200101516020015160016002811061322a576132296137de565b5b602002015182600560068461323f9190613b79565b6132499190613884565b8151811061325a576132596137de565b5b60200260200101818152505080806132719061383c565b915050612ffa565b5061328261340d565b6000602082602086026020860160086107d05a03fa905080600081036132a457fe5b50806132e5576040517f08c379a00000000000000000000000000000000000000000000000000000000081526004016132dc90613c07565b60405180910390fd5b6000826000600181106132fb576132fa6137de565b5b602002015114159550505050505092915050565b6040518060600160405280613322613389565b815260200161332f6133e7565b815260200161333c613389565b81525090565b6040518060a00160405280613355613389565b81526020016133626133e7565b815260200161336f6133e7565b815260200161337c6133e7565b8152602001606081525090565b604051806040016040528060008152602001600081525090565b6040518060600160405280600390602082028036833780820191505090505090565b6040518060800160405280600490602082028036833780820191505090505090565b60405180604001604052806133fa61342f565b815260200161340761342f565b81525090565b6040518060200160405280600190602082028036833780820191505090505090565b6040518060400160405280600290602082028036833780820191505090505090565b6000604051905090565b600080fd5b600080fd5b6000601f19601f8301169050919050565b7f4e487b7100000000000000000000000000000000000000000000000000000000600052604160045260246000fd5b6134ae82613465565b810181811067ffffffffffffffff821117156134cd576134cc613476565b5b80604052505050565b60006134e0613451565b90506134ec82826134a5565b919050565b600067ffffffffffffffff82111561350c5761350b613476565b5b602082029050919050565b600080fd5b6000819050919050565b61352f8161351c565b811461353a57600080fd5b50565b60008135905061354c81613526565b92915050565b6000613565613560846134f1565b6134d6565b9050806020840283018581111561357f5761357e613517565b5b835b818110156135a85780613594888261353d565b845260208401935050602081019050613581565b5050509392505050565b600082601f8301126135c7576135c6613460565b5b60026135d4848285613552565b91505092915050565b600067ffffffffffffffff8211156135f8576135f7613476565b5b602082029050919050565b6000613616613611846135dd565b6134d6565b905080604084028301858111156136305761362f613517565b5b835b81811015613659578061364588826135b2565b845260208401935050604081019050613632565b5050509392505050565b600082601f83011261367857613677613460565b5b6002613685848285613603565b91505092915050565b600067ffffffffffffffff8211156136a9576136a8613476565b5b602082029050919050565b60006136c76136c28461368e565b6134d6565b905080602084028301858111156136e1576136e0613517565b5b835b8181101561370a57806136f6888261353d565b8452602084019350506020810190506136e3565b5050509392505050565b600082601f83011261372957613728613460565b5b604a6137368482856136b4565b91505092915050565b600080600080610a40858703121561375a5761375961345b565b5b6000613768878288016135b2565b945050604061377987828801613663565b93505060c061378a878288016135b2565b92505061010061379c87828801613714565b91505092959194509250565b60008115159050919050565b6137bd816137a8565b82525050565b60006020820190506137d860008301846137b4565b92915050565b7f4e487b7100000000000000000000000000000000000000000000000000000000600052603260045260246000fd5b7f4e487b7100000000000000000000000000000000000000000000000000000000600052601160045260246000fd5b60006138478261351c565b91507fffffffffffffffffffffffffffffffffffffffffffffffffffffffffffffffff82036138795761387861380d565b5b600182019050919050565b600061388f8261351c565b915061389a8361351c565b92508282019050808211156138b2576138b161380d565b5b92915050565b600082825260208201905092915050565b7f76657269666965722d6261642d696e7075740000000000000000000000000000600082015250565b60006138ff6012836138b8565b915061390a826138c9565b602082019050919050565b6000602082019050818103600083015261392e816138f2565b9050919050565b7f76657269666965722d6774652d736e61726b2d7363616c61722d6669656c6400600082015250565b600061396b601f836138b8565b915061397682613935565b602082019050919050565b6000602082019050818103600083015261399a8161395e565b9050919050565b7f70616972696e672d6d756c2d6661696c65640000000000000000000000000000600082015250565b60006139d76012836138b8565b91506139e2826139a1565b602082019050919050565b60006020820190508181036000830152613a06816139ca565b9050919050565b7f70616972696e672d6164642d6661696c65640000000000000000000000000000600082015250565b6000613a436012836138b8565b9150613a4e82613a0d565b602082019050919050565b60006020820190508181036000830152613a7281613a36565b9050919050565b7f4e487b7100000000000000000000000000000000000000000000000000000000600052601260045260246000fd5b6000613ab38261351c565b9150613abe8361351c565b925082613ace57613acd613a79565b5b828206905092915050565b6000613ae48261351c565b9150613aef8361351c565b9250828203905081811115613b0757613b0661380d565b5b92915050565b7f70616972696e672d6c656e677468732d6661696c656400000000000000000000600082015250565b6000613b436016836138b8565b9150613b4e82613b0d565b602082019050919050565b60006020820190508181036000830152613b7281613b36565b9050919050565b6000613b848261351c565b9150613b8f8361351c565b9250828202613b9d8161351c565b91508282048414831517613bb457613bb361380d565b5b5092915050565b7f70616972696e672d6f70636f64652d6661696c65640000000000000000000000600082015250565b6000613bf16015836138b8565b9150613bfc82613bbb565b602082019050919050565b60006020820190508181036000830152613c2081613be4565b905091905056fea264697066735822122013fe95348fa833fad3029600f510e78d6e97065a9a83e0d161b33ecbca213e8f64736f6c63430008110033",
  "linkReferences": {},
  "deployedLinkReferences": {}
}