{
  "_format": "hh-sol-artifact-1",
  "contractName": "PoseidonUnit",
  "sourceName": "contracts/lib/Poseidon.sol",
  "abi": [
    {
      "inputs": [
        {
          "internalType": "uint256[]",
          "name": "",
          "type": "uint256[]"
        }
      ],
      "name": "poseidon",
      "outputs": [
        {
          "internalType": "uint256",
          "name": "",
          "type": "uint256"
        }
      ],
      "stateMutability": "pure",
      "type": "function"
    }
  ],
  "bytecode": "0x608060405234801561001057600080fd5b506102b3806100206000396000f3fe608060405234801561001057600080fd5b506004361061002b5760003560e01c8063c4420fb414610030575b600080fd5b61004a6004803603810190610045919061020a565b610060565b6040516100579190610262565b60405180910390f35b6000919050565b6000604051905090565b600080fd5b600080fd5b600080fd5b6000601f19601f8301169050919050565b7f4e487b7100000000000000000000000000000000000000000000000000000000600052604160045260246000fd5b6100c982610080565b810181811067ffffffffffffffff821117156100e8576100e7610091565b5b80604052505050565b60006100fb610067565b905061010782826100c0565b919050565b600067ffffffffffffffff82111561012757610126610091565b5b602082029050602081019050919050565b600080fd5b6000819050919050565b6101508161013d565b811461015b57600080fd5b50565b60008135905061016d81610147565b92915050565b60006101866101818461010c565b6100f1565b905080838252602082019050602084028301858111156101a9576101a8610138565b5b835b818110156101d257806101be888261015e565b8452602084019350506020810190506101ab565b5050509392505050565b600082601f8301126101f1576101f061007b565b5b8135610201848260208601610173565b91505092915050565b6000602082840312156102205761021f610071565b5b600082013567ffffffffffffffff81111561023e5761023d610076565b5b61024a848285016101dc565b91505092915050565b61025c8161013d565b82525050565b60006020820190506102776000830184610253565b9291505056fea26469706673582212203692e4128ad38ccbbf755c9b981aa3411c2bfb8fbc9cb3d7bf53cd74ce33928764736f6c63430008110033",
  "linkReferences": {},
  "deployedLinkReferences": {}
}