{
  "_format": "hh-sol-artifact-1",
  "contractName": "Poseidon",
  "sourceName": "contracts/lib/Poseidon.sol",
  "abi": [
    {
      "inputs": [
        {
          "internalType": "address",
          "name": "_poseidonContractAddr",
          "type": "address"
        }
      ],
      "stateMutability": "nonpayable",
      "type": "constructor"
    },
    {
      "inputs": [
        {
          "internalType": "uint256[]",
          "name": "inp",
          "type": "uint256[]"
        }
      ],
      "name": "Hash",
      "outputs": [
        {
          "internalType": "uint256",
          "name": "",
          "type": "uint256"
        }
      ],
      "stateMutability": "view",
      "type": "function"
    }
  ],
  "bytecode": "0x608060405234801561001057600080fd5b50604051610589380380610589833981810160405281019061003291906100db565b806000806101000a81548173ffffffffffffffffffffffffffffffffffffffff021916908373ffffffffffffffffffffffffffffffffffffffff16021790555050610108565b600080fd5b600073ffffffffffffffffffffffffffffffffffffffff82169050919050565b60006100a88261007d565b9050919050565b6100b88161009d565b81146100c357600080fd5b50565b6000815190506100d5816100af565b92915050565b6000602082840312156100f1576100f0610078565b5b60006100ff848285016100c6565b91505092915050565b610472806101176000396000f3fe608060405234801561001057600080fd5b506004361061002b5760003560e01c806377d4ef3d14610030575b600080fd5b61004a600480360381019061004591906102a7565b610060565b60405161005791906102ff565b60405180910390f35b60008060009054906101000a900473ffffffffffffffffffffffffffffffffffffffff1673ffffffffffffffffffffffffffffffffffffffff1663c4420fb4836040518263ffffffff1660e01b81526004016100bc91906103d8565b602060405180830381865afa1580156100d9573d6000803e3d6000fd5b505050506040513d601f19601f820116820180604052508101906100fd919061040f565b9050919050565b6000604051905090565b600080fd5b600080fd5b600080fd5b6000601f19601f8301169050919050565b7f4e487b7100000000000000000000000000000000000000000000000000000000600052604160045260246000fd5b6101668261011d565b810181811067ffffffffffffffff821117156101855761018461012e565b5b80604052505050565b6000610198610104565b90506101a4828261015d565b919050565b600067ffffffffffffffff8211156101c4576101c361012e565b5b602082029050602081019050919050565b600080fd5b6000819050919050565b6101ed816101da565b81146101f857600080fd5b50565b60008135905061020a816101e4565b92915050565b600061022361021e846101a9565b61018e565b90508083825260208201905060208402830185811115610246576102456101d5565b5b835b8181101561026f578061025b88826101fb565b845260208401935050602081019050610248565b5050509392505050565b600082601f83011261028e5761028d610118565b5b813561029e848260208601610210565b91505092915050565b6000602082840312156102bd576102bc61010e565b5b600082013567ffffffffffffffff8111156102db576102da610113565b5b6102e784828501610279565b91505092915050565b6102f9816101da565b82525050565b600060208201905061031460008301846102f0565b92915050565b600081519050919050565b600082825260208201905092915050565b6000819050602082019050919050565b61034f816101da565b82525050565b60006103618383610346565b60208301905092915050565b6000602082019050919050565b60006103858261031a565b61038f8185610325565b935061039a83610336565b8060005b838110156103cb5781516103b28882610355565b97506103bd8361036d565b92505060018101905061039e565b5085935050505092915050565b600060208201905081810360008301526103f2818461037a565b905092915050565b600081519050610409816101e4565b92915050565b6000602082840312156104255761042461010e565b5b6000610433848285016103fa565b9150509291505056fea2646970667358221220e4740f27cbb8e698f20c1f05ccd284419d69cf6ff8dd3d6ae17da6f99b17467664736f6c63430008110033",
  "linkReferences": {},
  "deployedLinkReferences": {}
}