{
  "_format": "hh-sol-artifact-1",
  "contractName": "CredentialAtomicQueryMTPValidator",
  "sourceName": "contracts/validators/CredentialAtomicQueryMTPValidator.sol",
  "abi": [
    {
      "anonymous": false,
      "inputs": [
        {
          "indexed": false,
          "internalType": "uint8",
          "name": "version",
          "type": "uint8"
        }
      ],
      "name": "Initialized",
      "type": "event"
    },
    {
      "anonymous": false,
      "inputs": [
        {
          "indexed": true,
          "internalType": "address",
          "name": "previousOwner",
          "type": "address"
        },
        {
          "indexed": true,
          "internalType": "address",
          "name": "newOwner",
          "type": "address"
        }
      ],
      "name": "OwnershipTransferred",
      "type": "event"
    },
    {
      "inputs": [],
      "name": "getChallengeInputIndex",
      "outputs": [
        {
          "internalType": "uint256",
          "name": "index",
          "type": "uint256"
        }
      ],
      "stateMutability": "pure",
      "type": "function"
    },
    {
      "inputs": [],
      "name": "getCircuitId",
      "outputs": [
        {
          "internalType": "string",
          "name": "id",
          "type": "string"
        }
      ],
      "stateMutability": "pure",
      "type": "function"
    },
    {
      "inputs": [],
      "name": "getUserIdInputIndex",
      "outputs": [
        {
          "internalType": "uint256",
          "name": "index",
          "type": "uint256"
        }
      ],
      "stateMutability": "pure",
      "type": "function"
    },
    {
      "inputs": [
        {
          "internalType": "address",
          "name": "_verifierContractAddr",
          "type": "address"
        },
        {
          "internalType": "address",
          "name": "_stateContractAddr",
          "type": "address"
        }
      ],
      "name": "initialize",
      "outputs": [],
      "stateMutability": "nonpayable",
      "type": "function"
    },
    {
      "inputs": [],
      "name": "owner",
      "outputs": [
        {
          "internalType": "address",
          "name": "",
          "type": "address"
        }
      ],
      "stateMutability": "view",
      "type": "function"
    },
    {
      "inputs": [],
      "name": "renounceOwnership",
      "outputs": [],
      "stateMutability": "nonpayable",
      "type": "function"
    },
    {
      "inputs": [],
      "name": "revocationStateExpirationTime",
      "outputs": [
        {
          "internalType": "uint256",
          "name": "",
          "type": "uint256"
        }
      ],
      "stateMutability": "view",
      "type": "function"
    },
    {
      "inputs": [
        {
          "internalType": "uint256",
          "name": "expirationTime",
          "type": "uint256"
        }
      ],
      "name": "setRevocationStateExpirationTime",
      "outputs": [],
      "stateMutability": "nonpayable",
      "type": "function"
    },
    {
      "inputs": [],
      "name": "state",
      "outputs": [
        {
          "internalType": "contract IState",
          "name": "",
          "type": "address"
        }
      ],
      "stateMutability": "view",
      "type": "function"
    },
    {
      "inputs": [
        {
          "internalType": "address",
          "name": "newOwner",
          "type": "address"
        }
      ],
      "name": "transferOwnership",
      "outputs": [],
      "stateMutability": "nonpayable",
      "type": "function"
    },
    {
      "inputs": [],
      "name": "verifier",
      "outputs": [
        {
          "internalType": "contract IVerifier",
          "name": "",
          "type": "address"
        }
      ],
      "stateMutability": "view",
      "type": "function"
    },
    {
      "inputs": [
        {
          "internalType": "uint256[]",
          "name": "inputs",
          "type": "uint256[]"
        },
        {
          "internalType": "uint256[2]",
          "name": "a",
          "type": "uint256[2]"
        },
        {
          "internalType": "uint256[2][2]",
          "name": "b",
          "type": "uint256[2][2]"
        },
        {
          "internalType": "uint256[2]",
          "name": "c",
          "type": "uint256[2]"
        },
        {
          "components": [
            {
              "internalType": "uint256",
              "name": "schema",
              "type": "uint256"
            },
            {
              "internalType": "uint256",
              "name": "slotIndex",
              "type": "uint256"
            },
            {
              "internalType": "uint256",
              "name": "operator",
              "type": "uint256"
            },
            {
              "internalType": "uint256[]",
              "name": "value",
              "type": "uint256[]"
            },
            {
              "internalType": "string",
              "name": "circuitId",
              "type": "string"
            }
          ],
          "internalType": "struct ICircuitValidator.CircuitQuery",
          "name": "query",
          "type": "tuple"
        }
      ],
      "name": "verify",
      "outputs": [
        {
          "internalType": "bool",
          "name": "r",
          "type": "bool"
        }
      ],
      "stateMutability": "view",
      "type": "function"
    }
  ],
  "bytecode": "0x608060405234801561001057600080fd5b50612db1806100206000396000f3fe608060405234801561001057600080fd5b50600436106100b45760003560e01c80637b47323c116100715780637b47323c146101695780638da5cb5b146101875780639f442afa146101a5578063c19d93fb146101c3578063e79ce794146101e1578063f2fde38b146101fd576100b4565b806323962482146100b95780632b7ac3f3146100d7578063485cc955146100f557806359a2aeaa1461011157806367e1d5041461012f578063715018a61461015f575b600080fd5b6100c1610219565b6040516100ce91906114fe565b60405180910390f35b6100df61021f565b6040516100ec9190611598565b60405180910390f35b61010f600480360381019061010a9190611605565b610245565b005b610119610410565b60405161012691906116d5565b60405180910390f35b61014960048036038101906101449190611b50565b61044d565b6040516101569190611c20565b60405180910390f35b610167610c71565b005b610171610c85565b60405161017e91906114fe565b60405180910390f35b61018f610c8a565b60405161019c9190611c4a565b60405180910390f35b6101ad610cb4565b6040516101ba91906114fe565b60405180910390f35b6101cb610cbd565b6040516101d89190611c86565b60405180910390f35b6101fb60048036038101906101f69190611ca1565b610ce3565b005b61021760048036038101906102129190611cce565b610cf5565b005b60675481565b606560009054906101000a900473ffffffffffffffffffffffffffffffffffffffff1681565b60008060019054906101000a900460ff161590508080156102765750600160008054906101000a900460ff1660ff16105b806102a3575061028530610d78565b1580156102a25750600160008054906101000a900460ff1660ff16145b5b6102e2576040517f08c379a00000000000000000000000000000000000000000000000000000000081526004016102d990611d6d565b60405180910390fd5b60016000806101000a81548160ff021916908360ff160217905550801561031f576001600060016101000a81548160ff0219169083151502179055505b610e1060678190555082606560006101000a81548173ffffffffffffffffffffffffffffffffffffffff021916908373ffffffffffffffffffffffffffffffffffffffff16021790555081606660006101000a81548173ffffffffffffffffffffffffffffffffffffffff021916908373ffffffffffffffffffffffffffffffffffffffff1602179055506103b2610d9b565b801561040b5760008060016101000a81548160ff0219169083151502179055507f7f26b83ff96e1f2b6a682f133852f6798a09c465da95921460cefb384740249860016040516104029190611dd5565b60405180910390a15b505050565b60606040518060400160405280601881526020017f63726564656e7469616c41746f6d696351756572794d54500000000000000000815250905090565b6000606560009054906101000a900473ffffffffffffffffffffffffffffffffffffffff1673ffffffffffffffffffffffffffffffffffffffff1663c32e370e8686868a6040518563ffffffff1660e01b81526004016104b09493929190612030565b602060405180830381865afa1580156104cd573d6000803e3d6000fd5b505050506040513d601f19601f820116820180604052508101906104f191906120aa565b610530576040517f08c379a000000000000000000000000000000000000000000000000000000000815260040161052790612123565b60405180910390fd5b81600001518660078151811061054957610548612143565b5b602002602001015114610591576040517f08c379a0000000000000000000000000000000000000000000000000000000008152600401610588906121e4565b60405180910390fd5b8160200151866008815181106105aa576105a9612143565b5b6020026020010151146105f2576040517f08c379a00000000000000000000000000000000000000000000000000000000081526004016105e990612276565b60405180910390fd5b81604001518660098151811061060b5761060a612143565b5b602002602001015114610653576040517f08c379a000000000000000000000000000000000000000000000000000000000815260040161064a90612308565b60405180910390fd5b60005b8260600151518110156106fc578260600151818151811061067a57610679612143565b5b602002602001015187600a836106909190612357565b815181106106a1576106a0612143565b5b6020026020010151146106e9576040517f08c379a00000000000000000000000000000000000000000000000000000000081526004016106e0906123fd565b60405180910390fd5b80806106f49061241d565b915050610656565b5060008660008151811061071357610712612143565b5b6020026020010151905060008760018151811061073357610732612143565b5b6020026020010151905060008860038151811061075357610752612143565b5b6020026020010151905060008960048151811061077357610772612143565b5b6020026020010151905060008a60058151811061079357610792612143565b5b602002602001015190506000606660009054906101000a900473ffffffffffffffffffffffffffffffffffffffff1673ffffffffffffffffffffffffffffffffffffffff166344c9af28876040518263ffffffff1660e01b81526004016107fa91906114fe565b602060405180830381865afa158015610817573d6000803e3d6000fd5b505050506040513d601f19601f8201168201806040525081019061083b919061247a565b9050600081036108935761084f8686610df4565b61088e576040517f08c379a000000000000000000000000000000000000000000000000000000000815260040161088590612519565b60405180910390fd5b6108d6565b8481146108d5576040517f08c379a00000000000000000000000000000000000000000000000000000000081526004016108cc90612585565b60405180910390fd5b5b60006108e28486610df4565b9050806109d2576000606660009054906101000a900473ffffffffffffffffffffffffffffffffffffffff1673ffffffffffffffffffffffffffffffffffffffff1663bb795715876040518263ffffffff1660e01b815260040161094691906114fe565b60c060405180830381865afa158015610963573d6000803e3d6000fd5b505050506040513d601f19601f8201168201806040525081019061098791906125e5565b509450505050508085146109d0576040517f08c379a00000000000000000000000000000000000000000000000000000000081526004016109c7906126e4565b60405180910390fd5b505b6000606660009054906101000a900473ffffffffffffffffffffffffffffffffffffffff1673ffffffffffffffffffffffffffffffffffffffff166344c9af28866040518263ffffffff1660e01b8152600401610a2f91906114fe565b602060405180830381865afa158015610a4c573d6000803e3d6000fd5b505050506040513d601f19601f82011682018060405250810190610a70919061247a565b905060008103610ac857610a848585610df4565b610ac3576040517f08c379a0000000000000000000000000000000000000000000000000000000008152600401610aba90612776565b60405180910390fd5b610c5c565b838114610c5b57600080606660009054906101000a900473ffffffffffffffffffffffffffffffffffffffff1673ffffffffffffffffffffffffffffffffffffffff1663bb795715876040518263ffffffff1660e01b8152600401610b2d91906114fe565b60c060405180830381865afa158015610b4a573d6000803e3d6000fd5b505050506040513d601f19601f82011682018060405250810190610b6e91906125e5565b50945050505091506000811480610b855750868114155b15610bc5576040517f08c379a0000000000000000000000000000000000000000000000000000000008152600401610bbc90612808565b60405180910390fd5b60008203610c08576040517f08c379a0000000000000000000000000000000000000000000000000000000008152600401610bff9061289a565b60405180910390fd5b6067548242610c1791906128ba565b1115610c58576040517f08c379a0000000000000000000000000000000000000000000000000000000008152600401610c4f90612960565b60405180910390fd5b50505b5b60019850505050505050505095945050505050565b610c79610f3f565b610c836000610fbd565b565b600090565b6000603360009054906101000a900473ffffffffffffffffffffffffffffffffffffffff16905090565b60006002905090565b606660009054906101000a900473ffffffffffffffffffffffffffffffffffffffff1681565b610ceb610f3f565b8060678190555050565b610cfd610f3f565b600073ffffffffffffffffffffffffffffffffffffffff168173ffffffffffffffffffffffffffffffffffffffff1603610d6c576040517f08c379a0000000000000000000000000000000000000000000000000000000008152600401610d63906129f2565b60405180910390fd5b610d7581610fbd565b50565b6000808273ffffffffffffffffffffffffffffffffffffffff163b119050919050565b600060019054906101000a900460ff16610dea576040517f08c379a0000000000000000000000000000000000000000000000000000000008152600401610de190612a84565b60405180910390fd5b610df2611083565b565b600080610e00836110e4565b90506000610e0d82611230565b90506000610e2a82601b8451610e2391906128ba565b601b61128d565b90506000604051806040016040528060028152602001600081525090506000610e5382846113ab565b9050601d815114610e99576040517f08c379a0000000000000000000000000000000000000000000000000000000008152600401610e9090612b16565b60405180910390fd5b6000610ea482611435565b9050600081604051602001610eb99190612b7a565b60405160208183030381529060405290506000610ed684836113ab565b9050601f815114610f1c576040517f08c379a0000000000000000000000000000000000000000000000000000000008152600401610f1390612be1565b60405180910390fd5b610f2d610f28826114cf565b6110e4565b8b149850505050505050505092915050565b610f476114dd565b73ffffffffffffffffffffffffffffffffffffffff16610f65610c8a565b73ffffffffffffffffffffffffffffffffffffffff1614610fbb576040517f08c379a0000000000000000000000000000000000000000000000000000000008152600401610fb290612c4d565b60405180910390fd5b565b6000603360009054906101000a900473ffffffffffffffffffffffffffffffffffffffff16905081603360006101000a81548173ffffffffffffffffffffffffffffffffffffffff021916908373ffffffffffffffffffffffffffffffffffffffff1602179055508173ffffffffffffffffffffffffffffffffffffffff168173ffffffffffffffffffffffffffffffffffffffff167f8be0079c531659141344cd1fd0a4f28419497f9722a3daafe3b4186f6b6457e060405160405180910390a35050565b600060019054906101000a900460ff166110d2576040517f08c379a00000000000000000000000000000000000000000000000000000000081526004016110c990612a84565b60405180910390fd5b6110e26110dd6114dd565b610fbd565b565b600081905060087eff00ff00ff00ff00ff00ff00ff00ff00ff00ff00ff00ff00ff00ff00ff00ff8216901b60087fff00ff00ff00ff00ff00ff00ff00ff00ff00ff00ff00ff00ff00ff00ff00ff008316901c17905060107dffff0000ffff0000ffff0000ffff0000ffff0000ffff0000ffff0000ffff8216901b60107fffff0000ffff0000ffff0000ffff0000ffff0000ffff0000ffff0000ffff00008316901c17905060207bffffffff00000000ffffffff00000000ffffffff00000000ffffffff8216901b60207fffffffff00000000ffffffff00000000ffffffff00000000ffffffff000000008316901c179050604077ffffffffffffffff0000000000000000ffffffffffffffff8216901b60407fffffffffffffffff0000000000000000ffffffffffffffff00000000000000008316901c179050608081901b608082901c179050919050565b6060602067ffffffffffffffff81111561124d5761124c6116fc565b5b6040519080825280601f01601f19166020018201604052801561127f5781602001600182028036833780820191505090505b509050816020820152919050565b606081601f8361129d9190612357565b10156112de576040517f08c379a00000000000000000000000000000000000000000000000000000000081526004016112d590612cb9565b60405180910390fd5b81836112ea9190612357565b8451101561132d576040517f08c379a000000000000000000000000000000000000000000000000000000000815260040161132490612d25565b60405180910390fd5b606082156000811461134e576040519150600082526020820160405261139f565b6040519150601f8416801560200281840101858101878315602002848b0101015b8183101561138c578051835260208301925060208101905061136f565b50868552601f19601f8301166040525050505b50809150509392505050565b6060806040519050835180825260208201818101602087015b818310156113e157805183526020830192506020810190506113c4565b50855192508351830184528091508282019050602086015b8183101561141657805183526020830192506020810190506113f9565b50601f19601f8851850115830101166040525050508091505092915050565b6000601d82511461147b576040517f08c379a000000000000000000000000000000000000000000000000000000000815260040161147290612b16565b60405180910390fd5b60005b82518110156114c95782818151811061149a57611499612143565b5b602001015160f81c60f81b60f81c60ff16826114b69190612d45565b9150806114c29061241d565b905061147e565b50919050565b600060208201519050919050565b600033905090565b6000819050919050565b6114f8816114e5565b82525050565b600060208201905061151360008301846114ef565b92915050565b600073ffffffffffffffffffffffffffffffffffffffff82169050919050565b6000819050919050565b600061155e61155961155484611519565b611539565b611519565b9050919050565b600061157082611543565b9050919050565b600061158282611565565b9050919050565b61159281611577565b82525050565b60006020820190506115ad6000830184611589565b92915050565b6000604051905090565b600080fd5b600080fd5b60006115d282611519565b9050919050565b6115e2816115c7565b81146115ed57600080fd5b50565b6000813590506115ff816115d9565b92915050565b6000806040838503121561161c5761161b6115bd565b5b600061162a858286016115f0565b925050602061163b858286016115f0565b9150509250929050565b600081519050919050565b600082825260208201905092915050565b60005b8381101561167f578082015181840152602081019050611664565b60008484015250505050565b6000601f19601f8301169050919050565b60006116a782611645565b6116b18185611650565b93506116c1818560208601611661565b6116ca8161168b565b840191505092915050565b600060208201905081810360008301526116ef818461169c565b905092915050565b600080fd5b7f4e487b7100000000000000000000000000000000000000000000000000000000600052604160045260246000fd5b6117348261168b565b810181811067ffffffffffffffff82111715611753576117526116fc565b5b80604052505050565b60006117666115b3565b9050611772828261172b565b919050565b600067ffffffffffffffff821115611792576117916116fc565b5b602082029050602081019050919050565b600080fd5b6117b1816114e5565b81146117bc57600080fd5b50565b6000813590506117ce816117a8565b92915050565b60006117e76117e284611777565b61175c565b9050808382526020820190506020840283018581111561180a576118096117a3565b5b835b81811015611833578061181f88826117bf565b84526020840193505060208101905061180c565b5050509392505050565b600082601f830112611852576118516116f7565b5b81356118628482602086016117d4565b91505092915050565b600067ffffffffffffffff821115611886576118856116fc565b5b602082029050919050565b60006118a461189f8461186b565b61175c565b905080602084028301858111156118be576118bd6117a3565b5b835b818110156118e757806118d388826117bf565b8452602084019350506020810190506118c0565b5050509392505050565b600082601f830112611906576119056116f7565b5b6002611913848285611891565b91505092915050565b600067ffffffffffffffff821115611937576119366116fc565b5b602082029050919050565b60006119556119508461191c565b61175c565b9050806040840283018581111561196f5761196e6117a3565b5b835b81811015611998578061198488826118f1565b845260208401935050604081019050611971565b5050509392505050565b600082601f8301126119b7576119b66116f7565b5b60026119c4848285611942565b91505092915050565b600080fd5b600080fd5b600080fd5b600067ffffffffffffffff8211156119f7576119f66116fc565b5b611a008261168b565b9050602081019050919050565b82818337600083830152505050565b6000611a2f611a2a846119dc565b61175c565b905082815260208101848484011115611a4b57611a4a6119d7565b5b611a56848285611a0d565b509392505050565b600082601f830112611a7357611a726116f7565b5b8135611a83848260208601611a1c565b91505092915050565b600060a08284031215611aa257611aa16119cd565b5b611aac60a061175c565b90506000611abc848285016117bf565b6000830152506020611ad0848285016117bf565b6020830152506040611ae4848285016117bf565b604083015250606082013567ffffffffffffffff811115611b0857611b076119d2565b5b611b148482850161183d565b606083015250608082013567ffffffffffffffff811115611b3857611b376119d2565b5b611b4484828501611a5e565b60808301525092915050565b60008060008060006101408688031215611b6d57611b6c6115bd565b5b600086013567ffffffffffffffff811115611b8b57611b8a6115c2565b5b611b978882890161183d565b9550506020611ba8888289016118f1565b9450506060611bb9888289016119a2565b93505060e0611bca888289016118f1565b92505061012086013567ffffffffffffffff811115611bec57611beb6115c2565b5b611bf888828901611a8c565b9150509295509295909350565b60008115159050919050565b611c1a81611c05565b82525050565b6000602082019050611c356000830184611c11565b92915050565b611c44816115c7565b82525050565b6000602082019050611c5f6000830184611c3b565b92915050565b6000611c7082611565565b9050919050565b611c8081611c65565b82525050565b6000602082019050611c9b6000830184611c77565b92915050565b600060208284031215611cb757611cb66115bd565b5b6000611cc5848285016117bf565b91505092915050565b600060208284031215611ce457611ce36115bd565b5b6000611cf2848285016115f0565b91505092915050565b7f496e697469616c697a61626c653a20636f6e747261637420697320616c72656160008201527f647920696e697469616c697a6564000000000000000000000000000000000000602082015250565b6000611d57602e83611650565b9150611d6282611cfb565b604082019050919050565b60006020820190508181036000830152611d8681611d4a565b9050919050565b6000819050919050565b600060ff82169050919050565b6000611dbf611dba611db584611d8d565b611539565b611d97565b9050919050565b611dcf81611da4565b82525050565b6000602082019050611dea6000830184611dc6565b92915050565b600060029050919050565b600081905092915050565b6000819050919050565b611e19816114e5565b82525050565b6000611e2b8383611e10565b60208301905092915050565b6000602082019050919050565b611e4d81611df0565b611e578184611dfb565b9250611e6282611e06565b8060005b83811015611e93578151611e7a8782611e1f565b9650611e8583611e37565b925050600181019050611e66565b505050505050565b600060029050919050565b600081905092915050565b6000819050919050565b600081905092915050565b611ecf81611df0565b611ed98184611ebb565b9250611ee482611e06565b8060005b83811015611f15578151611efc8782611e1f565b9650611f0783611e37565b925050600181019050611ee8565b505050505050565b6000611f298383611ec6565b60408301905092915050565b6000602082019050919050565b611f4b81611e9b565b611f558184611ea6565b9250611f6082611eb1565b8060005b83811015611f91578151611f788782611f1d565b9650611f8383611f35565b925050600181019050611f64565b505050505050565b600081519050919050565b600082825260208201905092915050565b6000819050602082019050919050565b6000602082019050919050565b6000611fdd82611f99565b611fe78185611fa4565b9350611ff283611fb5565b8060005b8381101561202357815161200a8882611e1f565b975061201583611fc5565b925050600181019050611ff6565b5085935050505092915050565b6000610120820190506120466000830187611e44565b6120536040830186611f42565b61206060c0830185611e44565b8181036101008301526120738184611fd2565b905095945050505050565b61208781611c05565b811461209257600080fd5b50565b6000815190506120a48161207e565b92915050565b6000602082840312156120c0576120bf6115bd565b5b60006120ce84828501612095565b91505092915050565b7f4d5450206973206e6f742076616c696400000000000000000000000000000000600082015250565b600061210d601083611650565b9150612118826120d7565b602082019050919050565b6000602082019050818103600083015261213c81612100565b9050919050565b7f4e487b7100000000000000000000000000000000000000000000000000000000600052603260045260246000fd5b7f77726f6e6720636c61696d20736368656d6120686173206265656e207573656460008201527f20666f722070726f6f662067656e65726174696f6e0000000000000000000000602082015250565b60006121ce603583611650565b91506121d982612172565b604082019050919050565b600060208201905081810360008301526121fd816121c1565b9050919050565b7f77726f6e6720636c61696d206461746120736c6f7420686173206265656e207560008201527f73656420666f722070726f6f662067656e65726174696f6e0000000000000000602082015250565b6000612260603883611650565b915061226b82612204565b604082019050919050565b6000602082019050818103600083015261228f81612253565b9050919050565b7f77726f6e67207175657279206f70657261746f7220686173206265656e20757360008201527f656420666f722070726f6f662067656e65726174696f6e000000000000000000602082015250565b60006122f2603783611650565b91506122fd82612296565b604082019050919050565b60006020820190508181036000830152612321816122e5565b9050919050565b7f4e487b7100000000000000000000000000000000000000000000000000000000600052601160045260246000fd5b6000612362826114e5565b915061236d836114e5565b925082820190508082111561238557612384612328565b5b92915050565b7f77726f6e6720636f6d70617269736f6e2076616c756520686173206265656e2060008201527f7573656420666f722070726f6f662067656e65726174696f6e00000000000000602082015250565b60006123e7603983611650565b91506123f28261238b565b604082019050919050565b60006020820190508181036000830152612416816123da565b9050919050565b6000612428826114e5565b91507fffffffffffffffffffffffffffffffffffffffffffffffffffffffffffffffff820361245a57612459612328565b5b600182019050919050565b600081519050612474816117a8565b92915050565b6000602082840312156124905761248f6115bd565b5b600061249e84828501612465565b91505092915050565b7f557365722073746174652069736e277420696e20737461746520636f6e74726160008201527f637420616e64206e6f742067656e657369730000000000000000000000000000602082015250565b6000612503603283611650565b915061250e826124a7565b604082019050919050565b60006020820190508181036000830152612532816124f6565b9050919050565b7f75736572207374617465206973206e6f74206c61746573740000000000000000600082015250565b600061256f601883611650565b915061257a82612539565b602082019050919050565b6000602082019050818103600083015261259e81612562565b9050919050565b600067ffffffffffffffff82169050919050565b6125c2816125a5565b81146125cd57600080fd5b50565b6000815190506125df816125b9565b92915050565b60008060008060008060c08789031215612602576126016115bd565b5b600061261089828a01612465565b965050602061262189828a01612465565b955050604061263289828a016125d0565b945050606061264389828a016125d0565b935050608061265489828a01612465565b92505060a061266589828a01612465565b9150509295509295509295565b7f49737375657220737461746520646f65736e277420657869737420696e20737460008201527f61746520636f6e74726163740000000000000000000000000000000000000000602082015250565b60006126ce602c83611650565b91506126d982612672565b604082019050919050565b600060208201905081810360008301526126fd816126c1565b9050919050565b7f4e6f6e2d5265766f636174696f6e2073746174652069736e277420696e20737460008201527f61746520636f6e747261637420616e64206e6f742067656e6573697300000000602082015250565b6000612760603c83611650565b915061276b82612704565b604082019050919050565b6000602082019050818103600083015261278f81612753565b9050919050565b7f737461746520696e207472616e736974696f6e20696e666f20636f6e7461696e60008201527f7320696e76616c69642069640000000000000000000000000000000000000000602082015250565b60006127f2602c83611650565b91506127fd82612796565b604082019050919050565b60006020820190508181036000830152612821816127e5565b9050919050565b7f4e6f6e2d4c617465737420737461746520646f65736e277420636f6e7461696e60008201527f207265706c6163656d656e7420696e666f726d6174696f6e0000000000000000602082015250565b6000612884603883611650565b915061288f82612828565b604082019050919050565b600060208201905081810360008301526128b381612877565b9050919050565b60006128c5826114e5565b91506128d0836114e5565b92508282039050818111156128e8576128e7612328565b5b92915050565b7f4e6f6e2d5265766f636174696f6e207374617465206f6620497373756572206560008201527f7870697265640000000000000000000000000000000000000000000000000000602082015250565b600061294a602683611650565b9150612955826128ee565b604082019050919050565b600060208201905081810360008301526129798161293d565b9050919050565b7f4f776e61626c653a206e6577206f776e657220697320746865207a65726f206160008201527f6464726573730000000000000000000000000000000000000000000000000000602082015250565b60006129dc602683611650565b91506129e782612980565b604082019050919050565b60006020820190508181036000830152612a0b816129cf565b9050919050565b7f496e697469616c697a61626c653a20636f6e7472616374206973206e6f74206960008201527f6e697469616c697a696e67000000000000000000000000000000000000000000602082015250565b6000612a6e602b83611650565b9150612a7982612a12565b604082019050919050565b60006020820190508181036000830152612a9d81612a61565b9050919050565b7f436865636b73756d207265717569726573203239206c656e677468206172726160008201527f7900000000000000000000000000000000000000000000000000000000000000602082015250565b6000612b00602183611650565b9150612b0b82612aa4565b604082019050919050565b60006020820190508181036000830152612b2f81612af3565b9050919050565b600061ffff82169050919050565b60008160f01b9050919050565b6000612b5c82612b44565b9050919050565b612b74612b6f82612b36565b612b51565b82525050565b6000612b868284612b63565b60028201915081905092915050565b7f69644279746573207265717569726573203331206c656e677468206172726179600082015250565b6000612bcb602083611650565b9150612bd682612b95565b602082019050919050565b60006020820190508181036000830152612bfa81612bbe565b9050919050565b7f4f776e61626c653a2063616c6c6572206973206e6f7420746865206f776e6572600082015250565b6000612c37602083611650565b9150612c4282612c01565b602082019050919050565b60006020820190508181036000830152612c6681612c2a565b9050919050565b7f736c6963655f6f766572666c6f77000000000000000000000000000000000000600082015250565b6000612ca3600e83611650565b9150612cae82612c6d565b602082019050919050565b60006020820190508181036000830152612cd281612c96565b9050919050565b7f736c6963655f6f75744f66426f756e6473000000000000000000000000000000600082015250565b6000612d0f601183611650565b9150612d1a82612cd9565b602082019050919050565b60006020820190508181036000830152612d3e81612d02565b9050919050565b6000612d5082612b36565b9150612d5b83612b36565b9250828201905061ffff811115612d7557612d74612328565b5b9291505056fea26469706673582212201793b53ee5cf0d52def87f322c0fc4417023080af7db7b22b904d0807df1d9bd64736f6c63430008110033",
  "linkReferences": {},
  "deployedLinkReferences": {}
}