{
  "_format": "hh-sol-artifact-1",
  "contractName": "State",
  "sourceName": "contracts/mock/State.sol",
  "abi": [
    {
      "anonymous": false,
      "inputs": [
        {
          "indexed": false,
          "internalType": "uint8",
          "name": "version",
          "type": "uint8"
        }
      ],
      "name": "Initialized",
      "type": "event"
    },
    {
      "anonymous": false,
      "inputs": [
        {
          "indexed": true,
          "internalType": "address",
          "name": "previousOwner",
          "type": "address"
        },
        {
          "indexed": true,
          "internalType": "address",
          "name": "newOwner",
          "type": "address"
        }
      ],
      "name": "OwnershipTransferred",
      "type": "event"
    },
    {
      "anonymous": false,
      "inputs": [
        {
          "indexed": false,
          "internalType": "uint256",
          "name": "id",
          "type": "uint256"
        },
        {
          "indexed": false,
          "internalType": "uint64",
          "name": "blockN",
          "type": "uint64"
        },
        {
          "indexed": false,
          "internalType": "uint64",
          "name": "timestamp",
          "type": "uint64"
        },
        {
          "indexed": false,
          "internalType": "uint256",
          "name": "state",
          "type": "uint256"
        }
      ],
      "name": "StateUpdated",
      "type": "event"
    },
    {
      "inputs": [
        {
          "internalType": "uint256",
          "name": "id",
          "type": "uint256"
        }
      ],
      "name": "getState",
      "outputs": [
        {
          "internalType": "uint256",
          "name": "",
          "type": "uint256"
        }
      ],
      "stateMutability": "view",
      "type": "function"
    },
    {
      "inputs": [
        {
          "internalType": "uint256",
          "name": "id",
          "type": "uint256"
        },
        {
          "internalType": "uint64",
          "name": "blockN",
          "type": "uint64"
        }
      ],
      "name": "getStateDataByBlock",
      "outputs": [
        {
          "internalType": "uint64",
          "name": "",
          "type": "uint64"
        },
        {
          "internalType": "uint64",
          "name": "",
          "type": "uint64"
        },
        {
          "internalType": "uint256",
          "name": "",
          "type": "uint256"
        }
      ],
      "stateMutability": "view",
      "type": "function"
    },
    {
      "inputs": [
        {
          "internalType": "uint256",
          "name": "id",
          "type": "uint256"
        }
      ],
      "name": "getStateDataById",
      "outputs": [
        {
          "internalType": "uint64",
          "name": "",
          "type": "uint64"
        },
        {
          "internalType": "uint64",
          "name": "",
          "type": "uint64"
        },
        {
          "internalType": "uint256",
          "name": "",
          "type": "uint256"
        }
      ],
      "stateMutability": "view",
      "type": "function"
    },
    {
      "inputs": [
        {
          "internalType": "uint256",
          "name": "id",
          "type": "uint256"
        },
        {
          "internalType": "uint64",
          "name": "timestamp",
          "type": "uint64"
        }
      ],
      "name": "getStateDataByTime",
      "outputs": [
        {
          "internalType": "uint64",
          "name": "",
          "type": "uint64"
        },
        {
          "internalType": "uint64",
          "name": "",
          "type": "uint64"
        },
        {
          "internalType": "uint256",
          "name": "",
          "type": "uint256"
        }
      ],
      "stateMutability": "view",
      "type": "function"
    },
    {
      "inputs": [
        {
          "internalType": "uint256",
          "name": "state",
          "type": "uint256"
        }
      ],
      "name": "getTransitionInfo",
      "outputs": [
        {
          "internalType": "uint256",
          "name": "",
          "type": "uint256"
        },
        {
          "internalType": "uint256",
          "name": "",
          "type": "uint256"
        },
        {
          "internalType": "uint64",
          "name": "",
          "type": "uint64"
        },
        {
          "internalType": "uint64",
          "name": "",
          "type": "uint64"
        },
        {
          "internalType": "uint256",
          "name": "",
          "type": "uint256"
        },
        {
          "internalType": "uint256",
          "name": "",
          "type": "uint256"
        }
      ],
      "stateMutability": "view",
      "type": "function"
    },
    {
      "inputs": [
        {
          "internalType": "uint256",
          "name": "",
          "type": "uint256"
        },
        {
          "internalType": "uint256",
          "name": "",
          "type": "uint256"
        }
      ],
      "name": "identities",
      "outputs": [
        {
          "internalType": "uint64",
          "name": "BlockN",
          "type": "uint64"
        },
        {
          "internalType": "uint64",
          "name": "BlockTimestamp",
          "type": "uint64"
        },
        {
          "internalType": "uint256",
          "name": "State",
          "type": "uint256"
        }
      ],
      "stateMutability": "view",
      "type": "function"
    },
    {
      "inputs": [
        {
          "internalType": "contract IVerifier",
          "name": "_verifierContractAddr",
          "type": "address"
        }
      ],
      "name": "initialize",
      "outputs": [],
      "stateMutability": "nonpayable",
      "type": "function"
    },
    {
      "inputs": [],
      "name": "owner",
      "outputs": [
        {
          "internalType": "address",
          "name": "",
          "type": "address"
        }
      ],
      "stateMutability": "view",
      "type": "function"
    },
    {
      "inputs": [],
      "name": "renounceOwnership",
      "outputs": [],
      "stateMutability": "nonpayable",
      "type": "function"
    },
    {
      "inputs": [
        {
          "internalType": "address",
          "name": "newVerifier",
          "type": "address"
        }
      ],
      "name": "setVerifier",
      "outputs": [],
      "stateMutability": "nonpayable",
      "type": "function"
    },
    {
      "inputs": [
        {
          "internalType": "address",
          "name": "newOwner",
          "type": "address"
        }
      ],
      "name": "transferOwnership",
      "outputs": [],
      "stateMutability": "nonpayable",
      "type": "function"
    },
    {
      "inputs": [
        {
          "internalType": "uint256",
          "name": "id",
          "type": "uint256"
        },
        {
          "internalType": "uint256",
          "name": "oldState",
          "type": "uint256"
        },
        {
          "internalType": "uint256",
          "name": "newState",
          "type": "uint256"
        },
        {
          "internalType": "bool",
          "name": "isOldStateGenesis",
          "type": "bool"
        },
        {
          "internalType": "uint256[2]",
          "name": "a",
          "type": "uint256[2]"
        },
        {
          "internalType": "uint256[2][2]",
          "name": "b",
          "type": "uint256[2][2]"
        },
        {
          "internalType": "uint256[2]",
          "name": "c",
          "type": "uint256[2]"
        }
      ],
      "name": "transitState",
      "outputs": [],
      "stateMutability": "nonpayable",
      "type": "function"
    },
    {
      "inputs": [
        {
          "internalType": "uint256",
          "name": "",
          "type": "uint256"
        }
      ],
      "name": "transitions",
      "outputs": [
        {
          "internalType": "uint256",
          "name": "replacedAtTimestamp",
          "type": "uint256"
        },
        {
          "internalType": "uint256",
          "name": "createdAtTimestamp",
          "type": "uint256"
        },
        {
          "internalType": "uint64",
          "name": "replacedAtBlock",
          "type": "uint64"
        },
        {
          "internalType": "uint64",
          "name": "createdAtBlock",
          "type": "uint64"
        },
        {
          "internalType": "uint256",
          "name": "replacedBy",
          "type": "uint256"
        },
        {
          "internalType": "uint256",
          "name": "id",
          "type": "uint256"
        }
      ],
      "stateMutability": "view",
      "type": "function"
    },
    {
      "inputs": [],
      "name": "verifier",
      "outputs": [
        {
          "internalType": "contract IVerifier",
          "name": "",
          "type": "address"
        }
      ],
      "stateMutability": "view",
      "type": "function"
    }
  ],
  "bytecode": "0x608060405234801561001057600080fd5b50613106806100206000396000f3fe608060405234801561001057600080fd5b50600436106100ea5760003560e01c80638da5cb5b1161008c578063c8d1e53e11610066578063c8d1e53e14610255578063d8dcd97114610287578063e20490b5146102b9578063f2fde38b146102eb576100ea565b80638da5cb5b146101e6578063bb79571514610204578063c4d66de814610239576100ea565b806344c9af28116100c857806344c9af281461015b5780635437988d1461018b578063683ace65146101a7578063715018a6146101dc576100ea565b80630281bec2146100ef57806328f88a65146101215780632b7ac3f31461013d575b600080fd5b61010960048036038101906101049190611f77565b610307565b60405161011893929190611fd5565b60405180910390f35b61013b6004803603810190610136919061223c565b61093c565b005b610145611093565b604051610152919061235f565b60405180910390f35b6101756004803603810190610170919061237a565b6110b9565b60405161018291906123a7565b60405180910390f35b6101a560048036038101906101a09190612400565b611142565b005b6101c160048036038101906101bc919061237a565b61118e565b6040516101d39695949392919061242d565b60405180910390f35b6101e46111f2565b005b6101ee611206565b6040516101fb919061249d565b60405180910390f35b61021e6004803603810190610219919061237a565b611230565b6040516102309695949392919061242d565b60405180910390f35b610253600480360381019061024e91906124f6565b611300565b005b61026f600480360381019061026a919061237a565b611480565b60405161027e93929190611fd5565b60405180910390f35b6102a1600480360381019061029c9190611f77565b6115a2565b6040516102b093929190611fd5565b60405180910390f35b6102d360048036038101906102ce9190612523565b611bd7565b6040516102e293929190611fd5565b60405180910390f35b61030560048036038101906103009190612400565b611c46565b005b6000806000428467ffffffffffffffff1610610358576040517f08c379a000000000000000000000000000000000000000000000000000000000815260040161034f906125c0565b60405180910390fd5b6000606660008781526020019081526020016000208054905003610386576000806000925092509250610935565b600060666000878152602001908152602001600020600160666000898152602001908152602001600020805490506103be919061260f565b815481106103cf576103ce612643565b5b906000526020600020906002020160000160089054906101000a900467ffffffffffffffff1690508067ffffffffffffffff168567ffffffffffffffff161115610552576066600087815260200190815260200160002060016066600089815260200190815260200160002080549050610449919061260f565b8154811061045a57610459612643565b5b906000526020600020906002020160000160009054906101000a900467ffffffffffffffff16606660008881526020019081526020016000206001606660008a8152602001908152602001600020805490506104b6919061260f565b815481106104c7576104c6612643565b5b906000526020600020906002020160000160089054906101000a900467ffffffffffffffff16606660008981526020019081526020016000206001606660008b815260200190815260200160002080549050610523919061260f565b8154811061053457610533612643565b5b90600052602060002090600202016001015493509350935050610935565b6000806001606660008a815260200190815260200160002080549050610578919061260f565b90505b808211610926576000600283836105929190612672565b61059c91906126d5565b90508767ffffffffffffffff16606660008b815260200190815260200160002082815481106105ce576105cd612643565b5b906000526020600020906002020160000160089054906101000a900467ffffffffffffffff1667ffffffffffffffff16036106df57606660008a8152602001908152602001600020818154811061062857610627612643565b5b906000526020600020906002020160000160009054906101000a900467ffffffffffffffff16606660008b8152602001908152602001600020828154811061067357610672612643565b5b906000526020600020906002020160000160089054906101000a900467ffffffffffffffff16606660008c815260200190815260200160002083815481106106be576106bd612643565b5b90600052602060002090600202016001015496509650965050505050610935565b606660008a8152602001908152602001600020818154811061070457610703612643565b5b906000526020600020906002020160000160089054906101000a900467ffffffffffffffff1667ffffffffffffffff168867ffffffffffffffff161180156107b55750606660008a81526020019081526020016000206001826107679190612672565b8154811061077857610777612643565b5b906000526020600020906002020160000160089054906101000a900467ffffffffffffffff1667ffffffffffffffff168867ffffffffffffffff16105b1561089657606660008a815260200190815260200160002081815481106107df576107de612643565b5b906000526020600020906002020160000160009054906101000a900467ffffffffffffffff16606660008b8152602001908152602001600020828154811061082a57610829612643565b5b906000526020600020906002020160000160089054906101000a900467ffffffffffffffff16606660008c8152602001908152602001600020838154811061087557610874612643565b5b90600052602060002090600202016001015496509650965050505050610935565b606660008a815260200190815260200160002081815481106108bb576108ba612643565b5b906000526020600020906002020160000160089054906101000a900467ffffffffffffffff1667ffffffffffffffff168867ffffffffffffffff161115610910576001816109099190612672565b9250610920565b60018161091d919061260f565b91505b5061057b565b60008060009550955095505050505b9250925092565b6000151584151503610b0f5760006066600089815260200190815260200160002080549050116109a1576040517f08c379a00000000000000000000000000000000000000000000000000000000081526004016109989061279e565b60405180910390fd5b6000606660008981526020019081526020016000206001606660008b8152602001908152602001600020805490506109d9919061260f565b815481106109ea576109e9612643565b5b90600052602060002090600202016040518060600160405290816000820160009054906101000a900467ffffffffffffffff1667ffffffffffffffff1667ffffffffffffffff1681526020016000820160089054906101000a900467ffffffffffffffff1667ffffffffffffffff1667ffffffffffffffff168152602001600182015481525050905043816000015167ffffffffffffffff1603610ac3576040517f08c379a0000000000000000000000000000000000000000000000000000000008152600401610aba90612830565b60405180910390fd5b86816040015114610b09576040517f08c379a0000000000000000000000000000000000000000000000000000000008152600401610b009061290e565b60405180910390fd5b50610cb4565b6000606660008981526020019081526020016000208054905014610b68576040517f08c379a0000000000000000000000000000000000000000000000000000000008152600401610b5f906129c6565b60405180910390fd5b6000606760008881526020019081526020016000206004015414610bc1576040517f08c379a0000000000000000000000000000000000000000000000000000000008152600401610bb890612a32565b60405180910390fd5b866067600088815260200190815260200160002060040181905550606660008881526020019081526020016000206040518060600160405280600067ffffffffffffffff168152602001600067ffffffffffffffff16815260200188815250908060018154018082558091505060019003906000526020600020906002020160009091909190915060008201518160000160006101000a81548167ffffffffffffffff021916908367ffffffffffffffff16021790555060208201518160000160086101000a81548167ffffffffffffffff021916908367ffffffffffffffff1602179055506040820151816001015550505b6000606760008781526020019081526020016000206004015414610d0d576040517f08c379a0000000000000000000000000000000000000000000000000000000008152600401610d0490612a9e565b60405180910390fd5b6000604051806080016040528089815260200188815260200187815260200186610d38576000610d3b565b60015b60ff168152509050606560009054906101000a900473ffffffffffffffffffffffffffffffffffffffff1673ffffffffffffffffffffffffffffffffffffffff16635fe8c13b858585856040518563ffffffff1660e01b8152600401610da49493929190612ceb565b602060405180830381865afa158015610dc1573d6000803e3d6000fd5b505050506040513d601f19601f82011682018060405250810190610de59190612d47565b610e24576040517f08c379a0000000000000000000000000000000000000000000000000000000008152600401610e1b90612de6565b60405180910390fd5b6066600089815260200190815260200160002060405180606001604052804367ffffffffffffffff1681526020014267ffffffffffffffff16815260200188815250908060018154018082558091505060019003906000526020600020906002020160009091909190915060008201518160000160006101000a81548167ffffffffffffffff021916908367ffffffffffffffff16021790555060208201518160000160086101000a81548167ffffffffffffffff021916908367ffffffffffffffff1602179055506040820151816001015550506040518060c0016040528060008152602001428152602001600067ffffffffffffffff1681526020014367ffffffffffffffff168152602001600081526020018981525060676000888152602001908152602001600020600082015181600001556020820151816001015560408201518160020160006101000a81548167ffffffffffffffff021916908367ffffffffffffffff16021790555060608201518160020160086101000a81548167ffffffffffffffff021916908367ffffffffffffffff1602179055506080820151816003015560a08201518160040155905050426067600089815260200190815260200160002060000181905550436067600089815260200190815260200160002060020160006101000a81548167ffffffffffffffff021916908367ffffffffffffffff1602179055508560676000898152602001908152602001600020600301819055507f81c6f328b24014ef550c34a433275b52f3a8a0f32aa871adec069ab526a02390884342896040516110819493929190612e06565b60405180910390a15050505050505050565b606560009054906101000a900473ffffffffffffffffffffffffffffffffffffffff1681565b6000806066600084815260200190815260200160002080549050036110e1576000905061113d565b6066600083815260200190815260200160002060016066600085815260200190815260200160002080549050611117919061260f565b8154811061112857611127612643565b5b90600052602060002090600202016001015490505b919050565b61114a611cc9565b80606560006101000a81548173ffffffffffffffffffffffffffffffffffffffff021916908373ffffffffffffffffffffffffffffffffffffffff16021790555050565b60676020528060005260406000206000915090508060000154908060010154908060020160009054906101000a900467ffffffffffffffff16908060020160089054906101000a900467ffffffffffffffff16908060030154908060040154905086565b6111fa611cc9565b6112046000611d47565b565b6000603360009054906101000a900473ffffffffffffffffffffffffffffffffffffffff16905090565b60008060008060008060676000888152602001908152602001600020600001546067600089815260200190815260200160002060010154606760008a815260200190815260200160002060020160009054906101000a900467ffffffffffffffff16606760008b815260200190815260200160002060020160089054906101000a900467ffffffffffffffff16606760008c815260200190815260200160002060040154606760008d81526020019081526020016000206003015495509550955095509550955091939550919395565b60008060019054906101000a900460ff161590508080156113315750600160008054906101000a900460ff1660ff16105b8061135e575061134030611e0d565b15801561135d5750600160008054906101000a900460ff1660ff16145b5b61139d576040517f08c379a000000000000000000000000000000000000000000000000000000000815260040161139490612ebd565b60405180910390fd5b60016000806101000a81548160ff021916908360ff16021790555080156113da576001600060016101000a81548160ff0219169083151502179055505b81606560006101000a81548173ffffffffffffffffffffffffffffffffffffffff021916908373ffffffffffffffffffffffffffffffffffffffff160217905550611423611e30565b801561147c5760008060016101000a81548160ff0219169083151502179055507f7f26b83ff96e1f2b6a682f133852f6798a09c465da95921460cefb384740249860016040516114739190612f25565b60405180910390a15b5050565b6000806000806066600086815260200190815260200160002080549050036114b257600080600092509250925061159b565b600060666000868152602001908152602001600020600160666000888152602001908152602001600020805490506114ea919061260f565b815481106114fb576114fa612643565b5b90600052602060002090600202016040518060600160405290816000820160009054906101000a900467ffffffffffffffff1667ffffffffffffffff1667ffffffffffffffff1681526020016000820160089054906101000a900467ffffffffffffffff1667ffffffffffffffff1667ffffffffffffffff1681526020016001820154815250509050806000015181602001518260400151935093509350505b9193909250565b6000806000438467ffffffffffffffff16106115f3576040517f08c379a00000000000000000000000000000000000000000000000000000000081526004016115ea906125c0565b60405180910390fd5b6000606660008781526020019081526020016000208054905003611621576000806000925092509250611bd0565b60006066600087815260200190815260200160002060016066600089815260200190815260200160002080549050611659919061260f565b8154811061166a57611669612643565b5b906000526020600020906002020160000160009054906101000a900467ffffffffffffffff1690508067ffffffffffffffff168567ffffffffffffffff1611156117ed5760666000878152602001908152602001600020600160666000898152602001908152602001600020805490506116e4919061260f565b815481106116f5576116f4612643565b5b906000526020600020906002020160000160009054906101000a900467ffffffffffffffff16606660008881526020019081526020016000206001606660008a815260200190815260200160002080549050611751919061260f565b8154811061176257611761612643565b5b906000526020600020906002020160000160089054906101000a900467ffffffffffffffff16606660008981526020019081526020016000206001606660008b8152602001908152602001600020805490506117be919061260f565b815481106117cf576117ce612643565b5b90600052602060002090600202016001015493509350935050611bd0565b6000806001606660008a815260200190815260200160002080549050611813919061260f565b90505b808211611bc15760006002838361182d9190612672565b61183791906126d5565b90508767ffffffffffffffff16606660008b8152602001908152602001600020828154811061186957611868612643565b5b906000526020600020906002020160000160009054906101000a900467ffffffffffffffff1667ffffffffffffffff160361197a57606660008a815260200190815260200160002081815481106118c3576118c2612643565b5b906000526020600020906002020160000160009054906101000a900467ffffffffffffffff16606660008b8152602001908152602001600020828154811061190e5761190d612643565b5b906000526020600020906002020160000160089054906101000a900467ffffffffffffffff16606660008c8152602001908152602001600020838154811061195957611958612643565b5b90600052602060002090600202016001015496509650965050505050611bd0565b606660008a8152602001908152602001600020818154811061199f5761199e612643565b5b906000526020600020906002020160000160009054906101000a900467ffffffffffffffff1667ffffffffffffffff168867ffffffffffffffff16118015611a505750606660008a8152602001908152602001600020600182611a029190612672565b81548110611a1357611a12612643565b5b906000526020600020906002020160000160009054906101000a900467ffffffffffffffff1667ffffffffffffffff168867ffffffffffffffff16105b15611b3157606660008a81526020019081526020016000208181548110611a7a57611a79612643565b5b906000526020600020906002020160000160009054906101000a900467ffffffffffffffff16606660008b81526020019081526020016000208281548110611ac557611ac4612643565b5b906000526020600020906002020160000160089054906101000a900467ffffffffffffffff16606660008c81526020019081526020016000208381548110611b1057611b0f612643565b5b90600052602060002090600202016001015496509650965050505050611bd0565b606660008a81526020019081526020016000208181548110611b5657611b55612643565b5b906000526020600020906002020160000160009054906101000a900467ffffffffffffffff1667ffffffffffffffff168867ffffffffffffffff161115611bab57600181611ba49190612672565b9250611bbb565b600181611bb8919061260f565b91505b50611816565b60008060009550955095505050505b9250925092565b60666020528160005260406000208181548110611bf357600080fd5b9060005260206000209060020201600091509150508060000160009054906101000a900467ffffffffffffffff16908060000160089054906101000a900467ffffffffffffffff16908060010154905083565b611c4e611cc9565b600073ffffffffffffffffffffffffffffffffffffffff168173ffffffffffffffffffffffffffffffffffffffff1603611cbd576040517f08c379a0000000000000000000000000000000000000000000000000000000008152600401611cb490612fb2565b60405180910390fd5b611cc681611d47565b50565b611cd1611e89565b73ffffffffffffffffffffffffffffffffffffffff16611cef611206565b73ffffffffffffffffffffffffffffffffffffffff1614611d45576040517f08c379a0000000000000000000000000000000000000000000000000000000008152600401611d3c9061301e565b60405180910390fd5b565b6000603360009054906101000a900473ffffffffffffffffffffffffffffffffffffffff16905081603360006101000a81548173ffffffffffffffffffffffffffffffffffffffff021916908373ffffffffffffffffffffffffffffffffffffffff1602179055508173ffffffffffffffffffffffffffffffffffffffff168173ffffffffffffffffffffffffffffffffffffffff167f8be0079c531659141344cd1fd0a4f28419497f9722a3daafe3b4186f6b6457e060405160405180910390a35050565b6000808273ffffffffffffffffffffffffffffffffffffffff163b119050919050565b600060019054906101000a900460ff16611e7f576040517f08c379a0000000000000000000000000000000000000000000000000000000008152600401611e76906130b0565b60405180910390fd5b611e87611e91565b565b600033905090565b600060019054906101000a900460ff16611ee0576040517f08c379a0000000000000000000000000000000000000000000000000000000008152600401611ed7906130b0565b60405180910390fd5b611ef0611eeb611e89565b611d47565b565b6000604051905090565b600080fd5b6000819050919050565b611f1481611f01565b8114611f1f57600080fd5b50565b600081359050611f3181611f0b565b92915050565b600067ffffffffffffffff82169050919050565b611f5481611f37565b8114611f5f57600080fd5b50565b600081359050611f7181611f4b565b92915050565b60008060408385031215611f8e57611f8d611efc565b5b6000611f9c85828601611f22565b9250506020611fad85828601611f62565b9150509250929050565b611fc081611f37565b82525050565b611fcf81611f01565b82525050565b6000606082019050611fea6000830186611fb7565b611ff76020830185611fb7565b6120046040830184611fc6565b949350505050565b60008115159050919050565b6120218161200c565b811461202c57600080fd5b50565b60008135905061203e81612018565b92915050565b600080fd5b6000601f19601f8301169050919050565b7f4e487b7100000000000000000000000000000000000000000000000000000000600052604160045260246000fd5b61209282612049565b810181811067ffffffffffffffff821117156120b1576120b061205a565b5b80604052505050565b60006120c4611ef2565b90506120d08282612089565b919050565b600067ffffffffffffffff8211156120f0576120ef61205a565b5b602082029050919050565b600080fd5b600061211361210e846120d5565b6120ba565b9050806020840283018581111561212d5761212c6120fb565b5b835b8181101561215657806121428882611f22565b84526020840193505060208101905061212f565b5050509392505050565b600082601f83011261217557612174612044565b5b6002612182848285612100565b91505092915050565b600067ffffffffffffffff8211156121a6576121a561205a565b5b602082029050919050565b60006121c46121bf8461218b565b6120ba565b905080604084028301858111156121de576121dd6120fb565b5b835b8181101561220757806121f38882612160565b8452602084019350506040810190506121e0565b5050509392505050565b600082601f83011261222657612225612044565b5b60026122338482856121b1565b91505092915050565b6000806000806000806000610180888a03121561225c5761225b611efc565b5b600061226a8a828b01611f22565b975050602061227b8a828b01611f22565b965050604061228c8a828b01611f22565b955050606061229d8a828b0161202f565b94505060806122ae8a828b01612160565b93505060c06122bf8a828b01612211565b9250506101406122d18a828b01612160565b91505092959891949750929550565b600073ffffffffffffffffffffffffffffffffffffffff82169050919050565b6000819050919050565b600061232561232061231b846122e0565b612300565b6122e0565b9050919050565b60006123378261230a565b9050919050565b60006123498261232c565b9050919050565b6123598161233e565b82525050565b60006020820190506123746000830184612350565b92915050565b6000602082840312156123905761238f611efc565b5b600061239e84828501611f22565b91505092915050565b60006020820190506123bc6000830184611fc6565b92915050565b60006123cd826122e0565b9050919050565b6123dd816123c2565b81146123e857600080fd5b50565b6000813590506123fa816123d4565b92915050565b60006020828403121561241657612415611efc565b5b6000612424848285016123eb565b91505092915050565b600060c0820190506124426000830189611fc6565b61244f6020830188611fc6565b61245c6040830187611fb7565b6124696060830186611fb7565b6124766080830185611fc6565b61248360a0830184611fc6565b979650505050505050565b612497816123c2565b82525050565b60006020820190506124b2600083018461248e565b92915050565b60006124c3826123c2565b9050919050565b6124d3816124b8565b81146124de57600080fd5b50565b6000813590506124f0816124ca565b92915050565b60006020828403121561250c5761250b611efc565b5b600061251a848285016124e1565b91505092915050565b6000806040838503121561253a57612539611efc565b5b600061254885828601611f22565b925050602061255985828601611f22565b9150509250929050565b600082825260208201905092915050565b7f6572724e6f467574757265416c6c6f7765640000000000000000000000000000600082015250565b60006125aa601283612563565b91506125b582612574565b602082019050919050565b600060208201905081810360008301526125d98161259d565b9050919050565b7f4e487b7100000000000000000000000000000000000000000000000000000000600052601160045260246000fd5b600061261a82611f01565b915061262583611f01565b925082820390508181111561263d5761263c6125e0565b5b92915050565b7f4e487b7100000000000000000000000000000000000000000000000000000000600052603260045260246000fd5b600061267d82611f01565b915061268883611f01565b92508282019050808211156126a05761269f6125e0565b5b92915050565b7f4e487b7100000000000000000000000000000000000000000000000000000000600052601260045260246000fd5b60006126e082611f01565b91506126eb83611f01565b9250826126fb576126fa6126a6565b5b828204905092915050565b7f74686572652073686f756c64206265206174206c65617374206f6e652073746160008201527f746520666f72206964656e7469747920696e20736d61727420636f6e7472616360208201527f74207768656e2069734f6c64537461746547656e65736973203d3d2030000000604082015250565b6000612788605d83612563565b915061279382612706565b606082019050919050565b600060208201905081810360008301526127b78161277b565b9050919050565b7f6e6f206d756c7469706c652073657420696e207468652073616d6520626c6f6360008201527f6b00000000000000000000000000000000000000000000000000000000000000602082015250565b600061281a602183612563565b9150612825826127be565b604082019050919050565b600060208201905081810360008301526128498161280d565b9050919050565b7f6f6c64537461746520617267756d656e742073686f756c64206265206571756160008201527f6c20746f20746865206c6174657374206964656e74697479207374617465206960208201527f6e20736d61727420636f6e7472616374207768656e2069734f6c64537461746560408201527f47656e65736973203d3d20300000000000000000000000000000000000000000606082015250565b60006128f8606c83612563565b915061290382612850565b608082019050919050565b60006020820190508181036000830152612927816128eb565b9050919050565b7f74686572652073686f756c64206265206e6f2073746174657320666f7220696460008201527f656e7469747920696e20736d61727420636f6e7472616374207768656e20697360208201527f4f6c64537461746547656e6573697320213d2030000000000000000000000000604082015250565b60006129b0605483612563565b91506129bb8261292e565b606082019050919050565b600060208201905081810360008301526129df816129a3565b9050919050565b7f6f6c6453746174652073686f756c64206e6f7420657869737400000000000000600082015250565b6000612a1c601983612563565b9150612a27826129e6565b602082019050919050565b60006020820190508181036000830152612a4b81612a0f565b9050919050565b7f6e657753746174652073686f756c64206e6f7420657869737400000000000000600082015250565b6000612a88601983612563565b9150612a9382612a52565b602082019050919050565b60006020820190508181036000830152612ab781612a7b565b9050919050565b600060029050919050565b600081905092915050565b6000819050919050565b612ae781611f01565b82525050565b6000612af98383612ade565b60208301905092915050565b6000602082019050919050565b612b1b81612abe565b612b258184612ac9565b9250612b3082612ad4565b8060005b83811015612b61578151612b488782612aed565b9650612b5383612b05565b925050600181019050612b34565b505050505050565b600060029050919050565b600081905092915050565b6000819050919050565b600081905092915050565b612b9d81612abe565b612ba78184612b89565b9250612bb282612ad4565b8060005b83811015612be3578151612bca8782612aed565b9650612bd583612b05565b925050600181019050612bb6565b505050505050565b6000612bf78383612b94565b60408301905092915050565b6000602082019050919050565b612c1981612b69565b612c238184612b74565b9250612c2e82612b7f565b8060005b83811015612c5f578151612c468782612beb565b9650612c5183612c03565b925050600181019050612c32565b505050505050565b600060049050919050565b600081905092915050565b6000819050919050565b6000602082019050919050565b612c9d81612c67565b612ca78184612c72565b9250612cb282612c7d565b8060005b83811015612ce3578151612cca8782612aed565b9650612cd583612c87565b925050600181019050612cb6565b505050505050565b600061018082019050612d016000830187612b12565b612d0e6040830186612c10565b612d1b60c0830185612b12565b612d29610100830184612c94565b95945050505050565b600081519050612d4181612018565b92915050565b600060208284031215612d5d57612d5c611efc565b5b6000612d6b84828501612d32565b91505092915050565b7f7a65726f2d6b6e6f776c656467652070726f6f66206f6620737461746520747260008201527f616e736974696f6e206973206e6f742076616c69642000000000000000000000602082015250565b6000612dd0603683612563565b9150612ddb82612d74565b604082019050919050565b60006020820190508181036000830152612dff81612dc3565b9050919050565b6000608082019050612e1b6000830187611fc6565b612e286020830186611fb7565b612e356040830185611fb7565b612e426060830184611fc6565b95945050505050565b7f496e697469616c697a61626c653a20636f6e747261637420697320616c72656160008201527f647920696e697469616c697a6564000000000000000000000000000000000000602082015250565b6000612ea7602e83612563565b9150612eb282612e4b565b604082019050919050565b60006020820190508181036000830152612ed681612e9a565b9050919050565b6000819050919050565b600060ff82169050919050565b6000612f0f612f0a612f0584612edd565b612300565b612ee7565b9050919050565b612f1f81612ef4565b82525050565b6000602082019050612f3a6000830184612f16565b92915050565b7f4f776e61626c653a206e6577206f776e657220697320746865207a65726f206160008201527f6464726573730000000000000000000000000000000000000000000000000000602082015250565b6000612f9c602683612563565b9150612fa782612f40565b604082019050919050565b60006020820190508181036000830152612fcb81612f8f565b9050919050565b7f4f776e61626c653a2063616c6c6572206973206e6f7420746865206f776e6572600082015250565b6000613008602083612563565b915061301382612fd2565b602082019050919050565b6000602082019050818103600083015261303781612ffb565b9050919050565b7f496e697469616c697a61626c653a20636f6e7472616374206973206e6f74206960008201527f6e697469616c697a696e67000000000000000000000000000000000000000000602082015250565b600061309a602b83612563565b91506130a58261303e565b604082019050919050565b600060208201905081810360008301526130c98161308d565b905091905056fea264697066735822122027a996da1443a26e2c66711afd9e1d1288ac03ad3878da083f5ff3dafa54341e64736f6c63430008110033",
  "linkReferences": {},
  "deployedLinkReferences": {}
}