{
  "_format": "hh-sol-artifact-1",
  "contractName": "VerifierMTP",
  "sourceName": "contracts/verifiers/circuits/verifierMTP.sol",
  "abi": [
    {
      "inputs": [
        {
          "internalType": "uint256[2]",
          "name": "a",
          "type": "uint256[2]"
        },
        {
          "internalType": "uint256[2][2]",
          "name": "b",
          "type": "uint256[2][2]"
        },
        {
          "internalType": "uint256[2]",
          "name": "c",
          "type": "uint256[2]"
        },
        {
          "internalType": "uint256[74]",
          "name": "input",
          "type": "uint256[74]"
        }
      ],
      "name": "verifyProof",
      "outputs": [
        {
          "internalType": "bool",
          "name": "r",
          "type": "bool"
        }
      ],
      "stateMutability": "view",
      "type": "function"
    }
  ],
  "bytecode": "0x608060405234801561001057600080fd5b50613c5f806100206000396000f3fe608060405234801561001057600080fd5b506004361061002b5760003560e01c8063f035c56314610030575b600080fd5b61004a60048036038101906100459190613741565b610060565b60405161005791906137c5565b60405180910390f35b600061006a613311565b604051806040016040528087600060028110610089576100886137e0565b5b60200201518152602001876001600281106100a7576100a66137e0565b5b6020020151815250816000018190525060405180604001604052806040518060400160405280886000600281106100e1576100e06137e0565b5b60200201516000600281106100f9576100f86137e0565b5b6020020151815260200188600060028110610117576101166137e0565b5b602002015160016002811061012f5761012e6137e0565b5b6020020151815250815260200160405180604001604052808860016002811061015b5761015a6137e0565b5b6020020151600060028110610173576101726137e0565b5b6020020151815260200188600160028110610191576101906137e0565b5b60200201516001600281106101a9576101a86137e0565b5b602002015181525081525081602001819052506040518060400160405280856000600281106101db576101da6137e0565b5b60200201518152602001856001600281106101f9576101f86137e0565b5b602002015181525081604001819052506000604a67ffffffffffffffff81111561022657610225613478565b5b6040519080825280602002602001820160405280156102545781602001602082028036833780820191505090505b50905060005b604a8110156102ad578481604a8110610276576102756137e0565b5b602002015182828151811061028e5761028d6137e0565b5b60200260200101818152505080806102a59061383e565b91505061025a565b5060006102ba82846102d9565b036102ca576001925050506102d1565b6000925050505b949350505050565b6000807f30644e72e131a029b85045b68181585d2833e84879b9709143e1f593f0000001905060006103096104cc565b90508060800151516001865161031f9190613886565b1461035f576040517f08c379a000000000000000000000000000000000000000000000000000000000815260040161035690613917565b60405180910390fd5b60006040518060400160405280600081526020016000815250905060005b865181101561044e578387828151811061039a576103996137e0565b5b6020026020010151106103e2576040517f08c379a00000000000000000000000000000000000000000000000000000000081526004016103d990613983565b60405180910390fd5b6104398261043485608001516001856103fb9190613886565b8151811061040c5761040b6137e0565b5b60200260200101518a8581518110610427576104266137e0565b5b6020026020010151612b07565b612bdf565b915080806104469061383e565b91505061037d565b5061047881836080015160008151811061046b5761046a6137e0565b5b6020026020010151612bdf565b90506104ae61048a8660000151612cdd565b8660200151846000015185602001518587604001518b604001518960600151612d82565b6104be57600193505050506104c6565b600093505050505b92915050565b6104d4613344565b60405180604001604052807f2d4d9aa7e302d9df41749d5507949d05dbea33fbb16c643b22f599a2be6df2e281526020017f14bedd503c37ceb061d8ec60209fe345ce89830a19230301f076caff004d19268152508160000181905250604051806040016040528060405180604001604052807f0967032fcbf776d1afc985f88877f182d38480a653f2decaa9794cbc3bf3060c81526020017f0e187847ad4c798374d0d6732bf501847dd68bc0e071241e0213bc7fc13db7ab815250815260200160405180604001604052807f304cfbd1e08a704a99f5e847d93f8c3caafddec46b7a0d379da69a4d112346a781526020017f1739c1b1a457a8c7313123d24d2f9192f896b7c63eea05a9d57f06547ad0cec88152508152508160200181905250604051806040016040528060405180604001604052807f198e9393920d483a7260bfb731fb5d25f1aa493335a9e71297e485b7aef312c281526020017f1800deef121f1e76426a00665e5c4479674322d4f75edadd46debd5cd992f6ed815250815260200160405180604001604052807f090689d0585ff075ec9e99ad690c3395bc4b313370b38ef355acdadcd122975b81526020017f12c85ea5db8c6deb4aab71808dcb408fe3d1e7690c43d37b4ce6cc0166fa7daa8152508152508160400181905250604051806040016040528060405180604001604052807f110bd8c9376f41dcb3ffc8c053292f0f5808a56a0caeec60bff15c2ddc18141d81526020017f162fd18ed97ee0074536295cd9c0edea0c0b4df1feb17051ff3a0d6fe9b7c68d815250815260200160405180604001604052807f1d2aff678026bddd07104f7a1a30220b1d6873740d389289c1ee795ba2be840081526020017f2fddc7f0428a428cbe88e14180cec4a5e6d80da50775ea816687bb0836b1969e8152508152508160600181905250604b67ffffffffffffffff81111561079b5761079a613478565b5b6040519080825280602002602001820160405280156107d457816020015b6107c161338b565b8152602001906001900390816107b95790505b50816080018190525060405180604001604052807f3017f2c9e2d7acd842eda845b8be8db83f55f7754566311fed91e8fd82eb321881526020017f2355be3f5ae416faaad71866458bb4999ea48968d728b96a562b2ef8f14aeb69815250816080015160008151811061084a576108496137e0565b5b602002602001018190525060405180604001604052807f23194bb5aaa13254d3f10da409f3435d3970fc77b7c5d5545f107d371c9c942481526020017f1fe0b2d8b6add8d521af5804e92b30b5e74c3b38e0b546aea3ab1fef00ae1afe81525081608001516001815181106108c2576108c16137e0565b5b602002602001018190525060405180604001604052807f17da35356bd9cc7ea6842542c15b717757c957414609b56f4516466179fbe8cd81526020017f05606105e9a3eb896ddf70a1e18c06ca34ece980e476513b4ce27e55715152a5815250816080015160028151811061093a576109396137e0565b5b602002602001018190525060405180604001604052807f106343f0d961e86ca393eec30279dd2586884404781e824c64a9922ebe0ca41081526020017f27f858b9a56bb1902efffcdc943843ac822e7f3452f00de12fc96d64c01057d981525081608001516003815181106109b2576109b16137e0565b5b602002602001018190525060405180604001604052807f13007d98ac29c77923082830a7a2fbdede4f1ed82c2ac2c367e8ff5d7a0445c881526020017f28d8522734b095c65ae6cc845e5a6399d199349295441ed170fa21ae9a73b76e8152508160800151600481518110610a2a57610a296137e0565b5b602002602001018190525060405180604001604052807f19b6b3455e625fb6904ceed212e1a0d8781b1c952f3fc3d7f7658793bcb8845881526020017f0b93440567f40fc08a1dbf02e35208c83f76b1772dce50055f70f80e00ecb9208152508160800151600581518110610aa257610aa16137e0565b5b602002602001018190525060405180604001604052807f244391a6591c81a5084f6360c97447bccf9c8b4d5bc5c3d690f45af909b5d42781526020017f30108f1aba087a9c8473c42b4ae85f92a022eca9c0c859a72c14772c988f50c18152508160800151600681518110610b1a57610b196137e0565b5b602002602001018190525060405180604001604052807f164b7b9187e7f3909a1f50a0f76a345e94144cd5eed0d2987d8093e60a4c067681526020017f070bb70f5a3a4385f270f21cb6a429c4d2ae96b4aca48c0024c598e3603d58368152508160800151600781518110610b9257610b916137e0565b5b602002602001018190525060405180604001604052807f05425e175f568dd0f019507a589441563eceadb9f9ea1f0ef9c29344d18db29e81526020017f13067511ec3967e7750cb65a0e163dda5c34fbdeffebc60fc1d3de696c21f2738152508160800151600881518110610c0a57610c096137e0565b5b602002602001018190525060405180604001604052807f29588a291f063ac9b0ff2f17ff795c97fa1d998adb70db2476c748e525ccf58981526020017f1e4417607818aaa161d808370332ef5587e8f363e5b21ba09addfaf8c394cb558152508160800151600981518110610c8257610c816137e0565b5b602002602001018190525060405180604001604052807f1b763bff85d84e2e48accb5d8311dacce9d5c690ab5b2b50a157ee7a5b0abd6981526020017f03b4d2df22b53efda3385561a51dbb0955979967395a47a997a0de32c076aa538152508160800151600a81518110610cfa57610cf96137e0565b5b602002602001018190525060405180604001604052807f0177a64324ccd465e9938a2a1658bc4687889c1748923ea24a8fd392e980e83281526020017f260e89606787a9934a42dfca2ab13d6fb42eeb1e6ef6fe36eb8010d41745ca2d8152508160800151600b81518110610d7257610d716137e0565b5b602002602001018190525060405180604001604052807f20157ff09b48362d3b97862d61a24ea93f944ed0c9f078888acd4528053a154c81526020017f1079e252dca1753f9dadf2c7da0bdf91083ef20e0a00935495f7859c3065d2318152508160800151600c81518110610dea57610de96137e0565b5b602002602001018190525060405180604001604052807f274c29664848b6658ff43e44056a00b7f9a01f630eaef108e66ce513c5ff94cd81526020017f26afd6a38f557860b4c5060b7292e8c25c0a078b9ce7847748e16aaecf940fab8152508160800151600d81518110610e6257610e616137e0565b5b602002602001018190525060405180604001604052807f10d755753b390c9137c3b40c9bcb98dca5201c37df9ec5f21d3e07bb09d31d4c81526020017f12ec698ea8868af79866d052eef7ebc7697f55b7f209147a7a0f524a993225048152508160800151600e81518110610eda57610ed96137e0565b5b602002602001018190525060405180604001604052807f102de2623d2cd60828797499a62cae4e4d0ffc1c89daf3174329b629ffd54a3381526020017f0137cd8a9380040f5c252c90b01c71cd8ff05ce218423d9cc6d441b15f8ade788152508160800151600f81518110610f5257610f516137e0565b5b602002602001018190525060405180604001604052807f13b3570e07b847839ec4b03c3c51831716b247871a2dd2cd86e7483f0f80f3dc81526020017f090cdfba50036d5828f380f02ccd71a96b624e1a1f52b92aa624d5884dc8d6448152508160800151601081518110610fca57610fc96137e0565b5b602002602001018190525060405180604001604052807f2d3ed45dfdacb4d771c25e6c1397c4d27256d27a0b4db32a211d406271dd769381526020017f0521261ca0406bde07401053c57849b3d4ecd19f1d73d7a27fb170878c0aa1fb8152508160800151601181518110611042576110416137e0565b5b602002602001018190525060405180604001604052807f0d38781a21df2dd7e11e1da0b2e144bca09d73e89fcc654f54623581a1b3739481526020017f06109b5b92cce5b48c1ba4c4f81fd31cfe05c3c09bccd6cc31256b24a588c99281525081608001516012815181106110ba576110b96137e0565b5b602002602001018190525060405180604001604052807f0fa902f615e37982885aab50006150acf4bc8172f4374411c4ca8cf5467bfc1881526020017f0bc6de678df5c11b8bd518b437ae48bc43b2d3f26864e37dc55a71d7281df27a8152508160800151601381518110611132576111316137e0565b5b602002602001018190525060405180604001604052807f1966476bbe288b89c72279d2b6e0ebf60f402a2e6efc74e5749afded1c8334a881526020017f06685282a93b8fedc43be1849e33430b2569b38ed7eda88a1909f8d8d6c9e1e081525081608001516014815181106111aa576111a96137e0565b5b602002602001018190525060405180604001604052807f0496ee92a7fe4077c1e668ce94bf544689b8e2a9340af5d0f172c8b81709a2e181526020017f16e0cd7989496521a5789a114be64fa112ec9b1609c575ad6ba52ef6169a42938152508160800151601581518110611222576112216137e0565b5b602002602001018190525060405180604001604052807f2b2beacf25007437032b458f7728d06fdd8eefbc3e4f6b675b4b203720d9a5d881526020017f0c31dc76a531da7f6f3f1893a76c512470fbb9aa337b5ebc908a33567ce9899d815250816080015160168151811061129a576112996137e0565b5b602002602001018190525060405180604001604052807f0b3ea6b61aaef199407b510322ffb7f27ea3a3bc547500ce92b3daa7797a9b7481526020017f07b4507156b70e74f3290e0fdf4a12ea743667449fd90a4476fe4c70649b75188152508160800151601781518110611312576113116137e0565b5b602002602001018190525060405180604001604052807f0534c7ca30b5938f0c0294f1068918ecfcb4f9a5a6c1ed6a185dafe367f18a4481526020017f0d8811bd10cee68a91bcdb43718c072c33259ec1f5b566192c7406f14f9dac59815250816080015160188151811061138a576113896137e0565b5b602002602001018190525060405180604001604052807f1e90426d68def32e58fd7df4f1c0e50360413eedd52e10b5ce795a26a40c46c081526020017f147749769cf974c1ba2bf1b98623cead72d342274224a0a4d8a3b1341ccbf3f18152508160800151601981518110611402576114016137e0565b5b602002602001018190525060405180604001604052807f2898cc7a5a6362302e99c7c8334639028d1fc414d46d41b19a781349418bec3f81526020017f18f8518623a0f072ac4dcbc173dd71a3cdeb4569bc136f5860b5cc972f2c07138152508160800151601a8151811061147a576114796137e0565b5b602002602001018190525060405180604001604052807f26ad558773580149a6774dcdc51c13b454534ef54814b16d24648bf5cfa111cf81526020017f06fa8abcc30276742c5401d34086ef700a4897ceda1d627d5d59484c47c2bbb68152508160800151601b815181106114f2576114f16137e0565b5b602002602001018190525060405180604001604052807f28424732222f87ad36f73a6419295f94e4a2e23afabe49abfd46a8b0b533937a81526020017f2ab776460fe3eafc75b31c52c6ca43a221545a0d8cf6bb33d5c0b292890553378152508160800151601c8151811061156a576115696137e0565b5b602002602001018190525060405180604001604052807f076359a301d5ae56ab8b76a8b2bca5b8c2cc5ea794196f8e62184b772f83f67981526020017f21fea4c0941a06553dc11153d2aadbc4f12d16b3be054a4695472a45e605c0668152508160800151601d815181106115e2576115e16137e0565b5b602002602001018190525060405180604001604052807f29e8b9db27303452ad3e4da6f4ed98f2d77ef520b89e0d9910ab8fd9722568c581526020017f2aefd307cb37dfa2b26dd3fa5b919508185dbac27f907c978c925c24f599894e8152508160800151601e8151811061165a576116596137e0565b5b602002602001018190525060405180604001604052807f1d0911e8f635510978a618ce55fb9636f13cfd29eb0ea5a1a914475edaf0af3d81526020017f2db1e5c3cc05da5960c0735b2237a8f0365d04306fe4a37e453cb953382f58d68152508160800151601f815181106116d2576116d16137e0565b5b602002602001018190525060405180604001604052807f22eb58354238670de65d7d51500b7ee043cc68f68fe348c4df507b63ba95226081526020017f0b294e77728590dbad2ac6b20e98389304504a1f6c580215a8992ace6eddde57815250816080015160208151811061174a576117496137e0565b5b602002602001018190525060405180604001604052807f2d118f1464a150e15285eb1ff203d85f5cccecc27207ed565d84e710215b213f81526020017f276cea6184880fa51cbfad0cc678588038ea9107f588286905de54c3245b02fe81525081608001516021815181106117c2576117c16137e0565b5b602002602001018190525060405180604001604052807f05c9aa123e0bbf668a45f6cc96a1b2abec1df28532a696259cfc6640f3aeecd281526020017f2de049198ceace9b3c65bca640c3df7d56ea4ae6cde2c88e1bfebed78f8fc91d815250816080015160228151811061183a576118396137e0565b5b602002602001018190525060405180604001604052807f14e6fcd51913ce4bd2613e4aa2e1cca6435fc639a1eca8444b7b53803810cf5b81526020017f16871e94bae0bb3946f9faf5d7b6300fd87650f9b2d869f2324419e14723ae3e81525081608001516023815181106118b2576118b16137e0565b5b602002602001018190525060405180604001604052807f2008da139e69416ead40be4477921ad7888216bd07490dcbf8ce4770d3e90b0081526020017f2910953286f1debea448f754bd4b5f95f770dc056edc99b142a4d0729c377968815250816080015160248151811061192a576119296137e0565b5b602002602001018190525060405180604001604052807f2f2f5c3a465ea5647215161ac29881d43b5bd81d50a6a1e7eb6e16fd2989ce9281526020017f1d9b9ccc492571020ce0d111185f1657b05d02a0ee455623a2d57073b10057ad81525081608001516025815181106119a2576119a16137e0565b5b602002602001018190525060405180604001604052807f2f05b1fc47e99a1bd634b88fe5906fce833c197d0df6bb23908c7ad40b505a1981526020017f1c6a0c3c72f720d90ee7aa0f486e99997ba27a6547b2f71c1ec796f17e1100a48152508160800151602681518110611a1a57611a196137e0565b5b602002602001018190525060405180604001604052807f1f8e870c0c2c19723d177e9e1f52fcb958a49311157fb310fdd3ebf04619150f81526020017f1e0d3ce5b0483cc0056e9295be46a3da0d6b2ad98faec9dcc878fbd1ce5f087a8152508160800151602781518110611a9257611a916137e0565b5b602002602001018190525060405180604001604052807f2e96fb27d19fea842ef975a84e829c68d831e8c952de2c07920efd4489e7a4b181526020017f1a950f06677e3ccebbb7456d1d0e7c2b547925f4c616a9a34b5909c725087dda8152508160800151602881518110611b0a57611b096137e0565b5b602002602001018190525060405180604001604052807f0ea1c6d641097d44cba05308cba8f121315b6a13691a996f5ddbbe48ae72f7ff81526020017f21913297b9253e4c8c09daf557167d2fed103822abe1d6305c48d69202609fc78152508160800151602981518110611b8257611b816137e0565b5b602002602001018190525060405180604001604052807f1102d5b49ad7dc5b6d6c336f48e76f046af2fca7c6743758c8872780a7c9db8281526020017f285f143e2d05f7f7028d1403290da64e60dc6fd01305b8520594fb8c57a4c5948152508160800151602a81518110611bfa57611bf96137e0565b5b602002602001018190525060405180604001604052807f2986d07e825aed842175771b0d3c7298886cbf396749698ce02ae4b1b4f495a981526020017f03f71dc87f508574efc11f040b956801cb24f8083171253e16cdc9d582631ac18152508160800151602b81518110611c7257611c716137e0565b5b602002602001018190525060405180604001604052807f0f6d9629550aab8f38111ef39b9b47dfbfc547e31b4ce014464d0e1e62fcac9b81526020017f2fbbb28891be1fcdf4ba21e5c89ce7eaa8ce33100ba3ba8a698a2a9aabbfdee48152508160800151602c81518110611cea57611ce96137e0565b5b602002602001018190525060405180604001604052807f0e827631123450f6381f80a19f7133db6bc3d9010c9177ed0cb85ec8874418bd81526020017f01dc06afae943a614f6506e49210f5dd05357df5efe08151d866b514d35a569f8152508160800151602d81518110611d6257611d616137e0565b5b602002602001018190525060405180604001604052807f2804bbd7d11c74f2369ea6fe20ac646310304bb0e297e9f2deae6c71a26d046681526020017f271fb32ab006585ae2dca3d01efb8e7a814071db024154de710b11dd15dea5508152508160800151602e81518110611dda57611dd96137e0565b5b602002602001018190525060405180604001604052807f1ecf5144e67b151f73706e61a9314e5bdead188e6845f1776b1189800349f71581526020017f026c9c489bac32a8768e09280522afe2fb1cd3bc46fde9adaa93f1e9f750c9068152508160800151602f81518110611e5257611e516137e0565b5b602002602001018190525060405180604001604052807f13b268a7009f6da27e3994f5013f0bb48b52ef148fd1add576c4347332e4866e81526020017f085a1c0a4bd49997933eb780f1f6b4f251f689561199c11d1b8dbe5b36c7e8608152508160800151603081518110611eca57611ec96137e0565b5b602002602001018190525060405180604001604052807f2381cad4c620765fbca015dea0533389980d8148ed00e9d5d713f2695ec4fc1481526020017f051b3dd8fecabcb963ce377aa117f6fde2b569e4658a5bc248fc0d08850ebe198152508160800151603181518110611f4257611f416137e0565b5b602002602001018190525060405180604001604052807f0c331439cc71e381e3632abc0a30d5e5f586c6d3e5a1157bc88b161bdf87d51f81526020017f2a4418b239023c74d52b5cd4a598c98f6aa9aa1e01893ea711232bbaea46da5e8152508160800151603281518110611fba57611fb96137e0565b5b602002602001018190525060405180604001604052807f090f59d16a5d9644095a9ff1fd5b60346d0a35132d6cbea1a44ebea4153bc83c81526020017f1c1bba5cf295c8027d89f1d1eaaf2bc46bab7564dfc2c66ed655c2391db422eb8152508160800151603381518110612032576120316137e0565b5b602002602001018190525060405180604001604052807f29a5b1dac31d064373c24098ec8cd02d3c154a78765fa55d2e7cbae0e940880c81526020017f21874627dbef574095d2e12c2545e61a859478c3c3fb8149ced7656f5684a18081525081608001516034815181106120aa576120a96137e0565b5b602002602001018190525060405180604001604052807f238e9c2639168511d93c297df9582dd2b4e0febf78c345ac606a7a581de8dbf181526020017f102a5aa2c465ae501ffc7ce6caf5b605c1fd6a45870795cb0175c3d915070dd48152508160800151603581518110612122576121216137e0565b5b602002602001018190525060405180604001604052807f144d0d828e200a44bf1c35ff78dec1ac6b429bbb261d2e8198ab675fd463b8c281526020017f0583a1f40dc49b53c3fdc75a488024754bcbf2a81407f7e6b3c768ad7bed8876815250816080015160368151811061219a576121996137e0565b5b602002602001018190525060405180604001604052807f14b344c26efc4d1e47166841f9ed0003d4debc36ca88c41337cd2e6ff3ea53bb81526020017f2f320f04db3ed64c0286895ec1f1f63dad239811fc81282249415a0425c8af478152508160800151603781518110612212576122116137e0565b5b602002602001018190525060405180604001604052807f24f4d3545013e5ac66b04616f5740b238da4c3cb9e28f16cc399237b88f23e9881526020017f1e1a60ef7bd3790e449a570caa8183a02e26df7a1f6032712909dc8a5b49d915815250816080015160388151811061228a576122896137e0565b5b602002602001018190525060405180604001604052807f2c4ed874f51b0bdec7df990f929a8ad154ee64bb858458aa6071c7b7c98b3a2681526020017f2d300fbb3b12cb44ae2f28124f2a4f45779335f924a042f10851e5d289f80ea58152508160800151603981518110612302576123016137e0565b5b602002602001018190525060405180604001604052807f29860848fc8d00bf717abd2a3ddb9013fd6039adf6b999b52150f4ec96d8158881526020017f0e2a3ae502712b2848059490119367962d579fbf57d8b9f67a94a8bcde46d3c98152508160800151603a8151811061237a576123796137e0565b5b602002602001018190525060405180604001604052807f0305d46f09f845ee4f838c2bba644f3b0f4484cbdb6d8e183632f6b8ab3878f781526020017f29461da94ef1bb40b6e16e5693c5e2441f4c013476c02644acc7c5bb3c8e2be38152508160800151603b815181106123f2576123f16137e0565b5b602002602001018190525060405180604001604052807f29838ba0bffae2056bbac494f141a7f87788ac5f16bb41d65a80334c21ab686b81526020017f211acf9a2f60f859e0c32a09a299895d63b2a1a5289f21abfd7fd2c381d103198152508160800151603c8151811061246a576124696137e0565b5b602002602001018190525060405180604001604052807e521b730a61fe6d556be8141bc5f1c805fd73f2e8096ac00c550adb6415c43781526020017f27854753134c402673d9577fa59061b2760600a6fcc84a53f9dc9dca5defbb008152508160800151603d815181106124e1576124e06137e0565b5b602002602001018190525060405180604001604052807f1184840a498078c6466c8ef28c9967d68f5123af4ef6c3027e850a99f4238d1281526020017f279045b7d772d738eeed08a240bac5073d7d24acb9a0357528d749e7aed36c8c8152508160800151603e81518110612559576125586137e0565b5b602002602001018190525060405180604001604052807f0b53d9db1e00bfa81fe5d9437a1c420baed140ffe9f03f3b3fcdce1c5085e62c81526020017f0ab494db8cbebc7d50496de86727a370f71931c560929df640a1aaa6266e185a8152508160800151603f815181106125d1576125d06137e0565b5b602002602001018190525060405180604001604052807f223c32373f5a73065506438e575992f3dab7dc0d9960ab4f233b36824c36c80e81526020017f0f674e26b0d88fc6f838c69e5371a699cdc5e50802c1fb7ac3386091ff6ceb0f8152508160800151604081518110612649576126486137e0565b5b602002602001018190525060405180604001604052807f15f4b53c737f5de82ddf600f0a5b0f10d41c266a4225c2644a0caf8eb85b4f1781526020017f1ddff0e0824732aa996ee8d8958dc566014f7c77a8b6885999d465e44b98240281525081608001516041815181106126c1576126c06137e0565b5b602002602001018190525060405180604001604052807f109cee96a390893062f35ef619d4ddd830a3587f78b54ae35c97abf7d22a67ad81526020017f1cc559322e221e207854773b1c390909d1bc3a207a2d72c55cee21f1d0d1c4dd8152508160800151604281518110612739576127386137e0565b5b602002602001018190525060405180604001604052807f0934385d0be188c2bc1ec28147a3130fa8b56368d61cb00bef5acd0c648a068c81526020017f173b652aab7558fe7b6616b86fc19d11a57d2c3a083bd4a40c61bd265dedd63d81525081608001516043815181106127b1576127b06137e0565b5b602002602001018190525060405180604001604052807f14dc85baecab10c9d1c1296e29124d494ce562c520f5e221ee33f34b986d5dba81526020017f1bd679d3c8a3c508d8dce720aa12dc2f784e8ac38ad52271eeebbe620bc67b858152508160800151604481518110612829576128286137e0565b5b602002602001018190525060405180604001604052807f0f1d5f00b87037ce41a675c33ad48b4200ff67699a6fa3e0c2589b5322d197a181526020017f0d99f96da9fec1096efc84f51f465e3cb11a9b0293a86c78c098d7fbd66908d681525081608001516045815181106128a1576128a06137e0565b5b602002602001018190525060405180604001604052807f2c204df23fdd8af94fc4aa94d1f6a3b9a443aa08b82f36575c597e6a8f0e2ccb81526020017f0c72abeda37728217b462bbef9a90ec2ec97c96dfd043cfd8de06f6cce461e498152508160800151604681518110612919576129186137e0565b5b602002602001018190525060405180604001604052807f1485c01b3b32501b82756a4325b1ec90c073d2f1aa118e764ad31d8a99e8f44881526020017f26b4ca6e735b4a8e1ed8f39ce7ce01a8d581b6febf27c441624ce452e83479ab8152508160800151604781518110612991576129906137e0565b5b602002602001018190525060405180604001604052807f2283895d513e9f2acde970e7e26ca9ac2373f74d3b4728b376b636e71411d08781526020017f09181b16626a496a55b360af88197a5a7f363859918e7ad0ed1d217a786f001b8152508160800151604881518110612a0957612a086137e0565b5b602002602001018190525060405180604001604052807f19556da0e0cce9697d555a05c5007124e3ca6355c2ab6520b825dc21f3be843e81526020017f16c23bdcc4b420eac741f4d265fe065399e24470dd8f06e23a53145c97fba0438152508160800151604981518110612a8157612a806137e0565b5b602002602001018190525060405180604001604052807f2adedfb79d0f11f0913c0a25775e9db3b77b6761ac84246f409b3fd93494f10081526020017f2b40f7f14000421ef321b801341711034be987bad9fd9b21a0ad47c5c0821c608152508160800151604a81518110612af957612af86137e0565b5b602002602001018190525090565b612b0f61338b565b612b176133a5565b836000015181600060038110612b3057612b2f6137e0565b5b602002018181525050836020015181600160038110612b5257612b516137e0565b5b6020020181815250508281600260038110612b7057612b6f6137e0565b5b602002018181525050600060608360808460076107d05a03fa90508060008103612b9657fe5b5080612bd7576040517f08c379a0000000000000000000000000000000000000000000000000000000008152600401612bce906139ef565b60405180910390fd5b505092915050565b612be761338b565b612bef6133c7565b836000015181600060048110612c0857612c076137e0565b5b602002018181525050836020015181600160048110612c2a57612c296137e0565b5b602002018181525050826000015181600260048110612c4c57612c4b6137e0565b5b602002018181525050826020015181600360048110612c6e57612c6d6137e0565b5b602002018181525050600060608360c08460066107d05a03fa90508060008103612c9457fe5b5080612cd5576040517f08c379a0000000000000000000000000000000000000000000000000000000008152600401612ccc90613a5b565b60405180910390fd5b505092915050565b612ce561338b565b60007f30644e72e131a029b85045b68181585d97816a916871ca8d3c208c16d87cfd47905060008360000151148015612d22575060008360200151145b15612d46576040518060400160405280600081526020016000815250915050612d7d565b604051806040016040528084600001518152602001828560200151612d6b9190613aaa565b83612d769190613adb565b8152509150505b919050565b600080600467ffffffffffffffff811115612da057612d9f613478565b5b604051908082528060200260200182016040528015612dd957816020015b612dc661338b565b815260200190600190039081612dbe5790505b5090506000600467ffffffffffffffff811115612df957612df8613478565b5b604051908082528060200260200182016040528015612e3257816020015b612e1f6133e9565b815260200190600190039081612e175790505b5090508a82600081518110612e4a57612e496137e0565b5b60200260200101819052508882600181518110612e6a57612e696137e0565b5b60200260200101819052508682600281518110612e8a57612e896137e0565b5b60200260200101819052508482600381518110612eaa57612ea96137e0565b5b60200260200101819052508981600081518110612eca57612ec96137e0565b5b60200260200101819052508781600181518110612eea57612ee96137e0565b5b60200260200101819052508581600281518110612f0a57612f096137e0565b5b60200260200101819052508381600381518110612f2a57612f296137e0565b5b6020026020010181905250612f3f8282612f4f565b9250505098975050505050505050565b60008151835114612f95576040517f08c379a0000000000000000000000000000000000000000000000000000000008152600401612f8c90613b5b565b60405180910390fd5b6000835190506000600682612faa9190613b7b565b905060008167ffffffffffffffff811115612fc857612fc7613478565b5b604051908082528060200260200182016040528015612ff65781602001602082028036833780820191505090505b50905060005b8381101561327b57868181518110613017576130166137e0565b5b6020026020010151600001518260006006846130339190613b7b565b61303d9190613886565b8151811061304e5761304d6137e0565b5b60200260200101818152505086818151811061306d5761306c6137e0565b5b6020026020010151602001518260016006846130899190613b7b565b6130939190613886565b815181106130a4576130a36137e0565b5b6020026020010181815250508581815181106130c3576130c26137e0565b5b6020026020010151600001516000600281106130e2576130e16137e0565b5b60200201518260026006846130f79190613b7b565b6131019190613886565b81518110613112576131116137e0565b5b602002602001018181525050858181518110613131576131306137e0565b5b6020026020010151600001516001600281106131505761314f6137e0565b5b60200201518260036006846131659190613b7b565b61316f9190613886565b815181106131805761317f6137e0565b5b60200260200101818152505085818151811061319f5761319e6137e0565b5b6020026020010151602001516000600281106131be576131bd6137e0565b5b60200201518260046006846131d39190613b7b565b6131dd9190613886565b815181106131ee576131ed6137e0565b5b60200260200101818152505085818151811061320d5761320c6137e0565b5b60200260200101516020015160016002811061322c5761322b6137e0565b5b60200201518260056006846132419190613b7b565b61324b9190613886565b8151811061325c5761325b6137e0565b5b60200260200101818152505080806132739061383e565b915050612ffc565b5061328461340f565b6000602082602086026020860160086107d05a03fa905080600081036132a657fe5b50806132e7576040517f08c379a00000000000000000000000000000000000000000000000000000000081526004016132de90613c09565b60405180910390fd5b6000826000600181106132fd576132fc6137e0565b5b602002015114159550505050505092915050565b604051806060016040528061332461338b565b81526020016133316133e9565b815260200161333e61338b565b81525090565b6040518060a0016040528061335761338b565b81526020016133646133e9565b81526020016133716133e9565b815260200161337e6133e9565b8152602001606081525090565b604051806040016040528060008152602001600081525090565b6040518060600160405280600390602082028036833780820191505090505090565b6040518060800160405280600490602082028036833780820191505090505090565b60405180604001604052806133fc613431565b8152602001613409613431565b81525090565b6040518060200160405280600190602082028036833780820191505090505090565b6040518060400160405280600290602082028036833780820191505090505090565b6000604051905090565b600080fd5b600080fd5b6000601f19601f8301169050919050565b7f4e487b7100000000000000000000000000000000000000000000000000000000600052604160045260246000fd5b6134b082613467565b810181811067ffffffffffffffff821117156134cf576134ce613478565b5b80604052505050565b60006134e2613453565b90506134ee82826134a7565b919050565b600067ffffffffffffffff82111561350e5761350d613478565b5b602082029050919050565b600080fd5b6000819050919050565b6135318161351e565b811461353c57600080fd5b50565b60008135905061354e81613528565b92915050565b6000613567613562846134f3565b6134d8565b9050806020840283018581111561358157613580613519565b5b835b818110156135aa5780613596888261353f565b845260208401935050602081019050613583565b5050509392505050565b600082601f8301126135c9576135c8613462565b5b60026135d6848285613554565b91505092915050565b600067ffffffffffffffff8211156135fa576135f9613478565b5b602082029050919050565b6000613618613613846135df565b6134d8565b9050806040840283018581111561363257613631613519565b5b835b8181101561365b578061364788826135b4565b845260208401935050604081019050613634565b5050509392505050565b600082601f83011261367a57613679613462565b5b6002613687848285613605565b91505092915050565b600067ffffffffffffffff8211156136ab576136aa613478565b5b602082029050919050565b60006136c96136c484613690565b6134d8565b905080602084028301858111156136e3576136e2613519565b5b835b8181101561370c57806136f8888261353f565b8452602084019350506020810190506136e5565b5050509392505050565b600082601f83011261372b5761372a613462565b5b604a6137388482856136b6565b91505092915050565b600080600080610a40858703121561375c5761375b61345d565b5b600061376a878288016135b4565b945050604061377b87828801613665565b93505060c061378c878288016135b4565b92505061010061379e87828801613716565b91505092959194509250565b60008115159050919050565b6137bf816137aa565b82525050565b60006020820190506137da60008301846137b6565b92915050565b7f4e487b7100000000000000000000000000000000000000000000000000000000600052603260045260246000fd5b7f4e487b7100000000000000000000000000000000000000000000000000000000600052601160045260246000fd5b60006138498261351e565b91507fffffffffffffffffffffffffffffffffffffffffffffffffffffffffffffffff820361387b5761387a61380f565b5b600182019050919050565b60006138918261351e565b915061389c8361351e565b92508282019050808211156138b4576138b361380f565b5b92915050565b600082825260208201905092915050565b7f76657269666965722d6261642d696e7075740000000000000000000000000000600082015250565b60006139016012836138ba565b915061390c826138cb565b602082019050919050565b60006020820190508181036000830152613930816138f4565b9050919050565b7f76657269666965722d6774652d736e61726b2d7363616c61722d6669656c6400600082015250565b600061396d601f836138ba565b915061397882613937565b602082019050919050565b6000602082019050818103600083015261399c81613960565b9050919050565b7f70616972696e672d6d756c2d6661696c65640000000000000000000000000000600082015250565b60006139d96012836138ba565b91506139e4826139a3565b602082019050919050565b60006020820190508181036000830152613a08816139cc565b9050919050565b7f70616972696e672d6164642d6661696c65640000000000000000000000000000600082015250565b6000613a456012836138ba565b9150613a5082613a0f565b602082019050919050565b60006020820190508181036000830152613a7481613a38565b9050919050565b7f4e487b7100000000000000000000000000000000000000000000000000000000600052601260045260246000fd5b6000613ab58261351e565b9150613ac08361351e565b925082613ad057613acf613a7b565b5b828206905092915050565b6000613ae68261351e565b9150613af18361351e565b9250828203905081811115613b0957613b0861380f565b5b92915050565b7f70616972696e672d6c656e677468732d6661696c656400000000000000000000600082015250565b6000613b456016836138ba565b9150613b5082613b0f565b602082019050919050565b60006020820190508181036000830152613b7481613b38565b9050919050565b6000613b868261351e565b9150613b918361351e565b9250828202613b9f8161351e565b91508282048414831517613bb657613bb561380f565b5b5092915050565b7f70616972696e672d6f70636f64652d6661696c65640000000000000000000000600082015250565b6000613bf36015836138ba565b9150613bfe82613bbd565b602082019050919050565b60006020820190508181036000830152613c2281613be6565b905091905056fea2646970667358221220205ea845cb7368e43736ff370dead4691ac24190bcb62e046550d3ec7838a66664736f6c63430008110033",
  "linkReferences": {},
  "deployedLinkReferences": {}
}