{
  "_format": "hh-sol-artifact-1",
  "contractName": "ERC20Verifier",
  "sourceName": "contracts/examples/ERC20Verifier.sol",
  "abi": [
    {
      "inputs": [
        {
          "internalType": "string",
          "name": "name_",
          "type": "string"
        },
        {
          "internalType": "string",
          "name": "symbol_",
          "type": "string"
        }
      ],
      "stateMutability": "nonpayable",
      "type": "constructor"
    },
    {
      "anonymous": false,
      "inputs": [
        {
          "indexed": true,
          "internalType": "address",
          "name": "owner",
          "type": "address"
        },
        {
          "indexed": true,
          "internalType": "address",
          "name": "spender",
          "type": "address"
        },
        {
          "indexed": false,
          "internalType": "uint256",
          "name": "value",
          "type": "uint256"
        }
      ],
      "name": "Approval",
      "type": "event"
    },
    {
      "anonymous": false,
      "inputs": [
        {
          "indexed": true,
          "internalType": "address",
          "name": "previousOwner",
          "type": "address"
        },
        {
          "indexed": true,
          "internalType": "address",
          "name": "newOwner",
          "type": "address"
        }
      ],
      "name": "OwnershipTransferred",
      "type": "event"
    },
    {
      "anonymous": false,
      "inputs": [
        {
          "indexed": false,
          "internalType": "address",
          "name": "user_address",
          "type": "address"
        },
        {
          "indexed": false,
          "internalType": "bool",
          "name": "evaluation",
          "type": "bool"
        }
      ],
      "name": "TransactionResult",
      "type": "event"
    },
    {
      "anonymous": false,
      "inputs": [
        {
          "indexed": true,
          "internalType": "address",
          "name": "from",
          "type": "address"
        },
        {
          "indexed": true,
          "internalType": "address",
          "name": "to",
          "type": "address"
        },
        {
          "indexed": false,
          "internalType": "uint256",
          "name": "value",
          "type": "uint256"
        }
      ],
      "name": "Transfer",
      "type": "event"
    },
    {
      "inputs": [],
      "name": "TOKEN_AMOUNT_FOR_AIRDROP_PER_ID",
      "outputs": [
        {
          "internalType": "uint256",
          "name": "",
          "type": "uint256"
        }
      ],
      "stateMutability": "view",
      "type": "function"
    },
    {
      "inputs": [],
      "name": "TRANSFER_REQUEST_ID",
      "outputs": [
        {
          "internalType": "uint64",
          "name": "",
          "type": "uint64"
        }
      ],
      "stateMutability": "view",
      "type": "function"
    },
    {
      "inputs": [
        {
          "internalType": "address",
          "name": "",
          "type": "address"
        }
      ],
      "name": "addressToId",
      "outputs": [
        {
          "internalType": "uint256",
          "name": "",
          "type": "uint256"
        }
      ],
      "stateMutability": "view",
      "type": "function"
    },
    {
      "inputs": [
        {
          "internalType": "address",
          "name": "owner",
          "type": "address"
        },
        {
          "internalType": "address",
          "name": "spender",
          "type": "address"
        }
      ],
      "name": "allowance",
      "outputs": [
        {
          "internalType": "uint256",
          "name": "",
          "type": "uint256"
        }
      ],
      "stateMutability": "view",
      "type": "function"
    },
    {
      "inputs": [
        {
          "internalType": "address",
          "name": "spender",
          "type": "address"
        },
        {
          "internalType": "uint256",
          "name": "amount",
          "type": "uint256"
        }
      ],
      "name": "approve",
      "outputs": [
        {
          "internalType": "bool",
          "name": "",
          "type": "bool"
        }
      ],
      "stateMutability": "nonpayable",
      "type": "function"
    },
    {
      "inputs": [
        {
          "internalType": "address",
          "name": "account",
          "type": "address"
        }
      ],
      "name": "balanceOf",
      "outputs": [
        {
          "internalType": "uint256",
          "name": "",
          "type": "uint256"
        }
      ],
      "stateMutability": "view",
      "type": "function"
    },
    {
      "inputs": [],
      "name": "decimals",
      "outputs": [
        {
          "internalType": "uint8",
          "name": "",
          "type": "uint8"
        }
      ],
      "stateMutability": "view",
      "type": "function"
    },
    {
      "inputs": [
        {
          "internalType": "address",
          "name": "spender",
          "type": "address"
        },
        {
          "internalType": "uint256",
          "name": "subtractedValue",
          "type": "uint256"
        }
      ],
      "name": "decreaseAllowance",
      "outputs": [
        {
          "internalType": "bool",
          "name": "",
          "type": "bool"
        }
      ],
      "stateMutability": "nonpayable",
      "type": "function"
    },
    {
      "inputs": [],
      "name": "getSupportedRequests",
      "outputs": [
        {
          "internalType": "uint64[]",
          "name": "arr",
          "type": "uint64[]"
        }
      ],
      "stateMutability": "view",
      "type": "function"
    },
    {
      "inputs": [
        {
          "internalType": "uint64",
          "name": "requestId",
          "type": "uint64"
        }
      ],
      "name": "getZKPRequest",
      "outputs": [
        {
          "components": [
            {
              "internalType": "uint256",
              "name": "schema",
              "type": "uint256"
            },
            {
              "internalType": "uint256",
              "name": "slotIndex",
              "type": "uint256"
            },
            {
              "internalType": "uint256",
              "name": "operator",
              "type": "uint256"
            },
            {
              "internalType": "uint256[]",
              "name": "value",
              "type": "uint256[]"
            },
            {
              "internalType": "string",
              "name": "circuitId",
              "type": "string"
            }
          ],
          "internalType": "struct ICircuitValidator.CircuitQuery",
          "name": "",
          "type": "tuple"
        }
      ],
      "stateMutability": "view",
      "type": "function"
    },
    {
      "inputs": [
        {
          "internalType": "uint256",
          "name": "",
          "type": "uint256"
        }
      ],
      "name": "idToAddress",
      "outputs": [
        {
          "internalType": "address",
          "name": "",
          "type": "address"
        }
      ],
      "stateMutability": "view",
      "type": "function"
    },
    {
      "inputs": [
        {
          "internalType": "address",
          "name": "spender",
          "type": "address"
        },
        {
          "internalType": "uint256",
          "name": "addedValue",
          "type": "uint256"
        }
      ],
      "name": "increaseAllowance",
      "outputs": [
        {
          "internalType": "bool",
          "name": "",
          "type": "bool"
        }
      ],
      "stateMutability": "nonpayable",
      "type": "function"
    },
    {
      "inputs": [],
      "name": "name",
      "outputs": [
        {
          "internalType": "string",
          "name": "",
          "type": "string"
        }
      ],
      "stateMutability": "view",
      "type": "function"
    },
    {
      "inputs": [],
      "name": "owner",
      "outputs": [
        {
          "internalType": "address",
          "name": "",
          "type": "address"
        }
      ],
      "stateMutability": "view",
      "type": "function"
    },
    {
      "inputs": [
        {
          "internalType": "address",
          "name": "",
          "type": "address"
        },
        {
          "internalType": "uint64",
          "name": "",
          "type": "uint64"
        }
      ],
      "name": "proofs",
      "outputs": [
        {
          "internalType": "bool",
          "name": "",
          "type": "bool"
        }
      ],
      "stateMutability": "view",
      "type": "function"
    },
    {
      "inputs": [],
      "name": "renounceOwnership",
      "outputs": [],
      "stateMutability": "nonpayable",
      "type": "function"
    },
    {
      "inputs": [
        {
          "internalType": "uint64",
          "name": "",
          "type": "uint64"
        }
      ],
      "name": "requestQueries",
      "outputs": [
        {
          "internalType": "uint256",
          "name": "schema",
          "type": "uint256"
        },
        {
          "internalType": "uint256",
          "name": "slotIndex",
          "type": "uint256"
        },
        {
          "internalType": "uint256",
          "name": "operator",
          "type": "uint256"
        },
        {
          "internalType": "string",
          "name": "circuitId",
          "type": "string"
        }
      ],
      "stateMutability": "view",
      "type": "function"
    },
    {
      "inputs": [
        {
          "internalType": "uint64",
          "name": "",
          "type": "uint64"
        }
      ],
      "name": "requestValidators",
      "outputs": [
        {
          "internalType": "contract ICircuitValidator",
          "name": "",
          "type": "address"
        }
      ],
      "stateMutability": "view",
      "type": "function"
    },
    {
      "inputs": [
        {
          "internalType": "uint64",
          "name": "requestId",
          "type": "uint64"
        },
        {
          "internalType": "contract ICircuitValidator",
          "name": "validator",
          "type": "address"
        },
        {
          "components": [
            {
              "internalType": "uint256",
              "name": "schema",
              "type": "uint256"
            },
            {
              "internalType": "uint256",
              "name": "slotIndex",
              "type": "uint256"
            },
            {
              "internalType": "uint256",
              "name": "operator",
              "type": "uint256"
            },
            {
              "internalType": "uint256[]",
              "name": "value",
              "type": "uint256[]"
            },
            {
              "internalType": "string",
              "name": "circuitId",
              "type": "string"
            }
          ],
          "internalType": "struct ICircuitValidator.CircuitQuery",
          "name": "query",
          "type": "tuple"
        }
      ],
      "name": "setZKPRequest",
      "outputs": [
        {
          "internalType": "bool",
          "name": "",
          "type": "bool"
        }
      ],
      "stateMutability": "nonpayable",
      "type": "function"
    },
    {
      "inputs": [
        {
          "internalType": "uint64",
          "name": "requestId",
          "type": "uint64"
        },
        {
          "internalType": "uint256[]",
          "name": "inputs",
          "type": "uint256[]"
        },
        {
          "internalType": "uint256[2]",
          "name": "a",
          "type": "uint256[2]"
        },
        {
          "internalType": "uint256[2][2]",
          "name": "b",
          "type": "uint256[2][2]"
        },
        {
          "internalType": "uint256[2]",
          "name": "c",
          "type": "uint256[2]"
        }
      ],
      "name": "submitZKPResponse",
      "outputs": [
        {
          "internalType": "bool",
          "name": "",
          "type": "bool"
        }
      ],
      "stateMutability": "nonpayable",
      "type": "function"
    },
    {
      "inputs": [
        {
          "internalType": "uint256",
          "name": "",
          "type": "uint256"
        }
      ],
      "name": "supportedRequests",
      "outputs": [
        {
          "internalType": "uint64",
          "name": "",
          "type": "uint64"
        }
      ],
      "stateMutability": "view",
      "type": "function"
    },
    {
      "inputs": [],
      "name": "symbol",
      "outputs": [
        {
          "internalType": "string",
          "name": "",
          "type": "string"
        }
      ],
      "stateMutability": "view",
      "type": "function"
    },
    {
      "inputs": [],
      "name": "totalSupply",
      "outputs": [
        {
          "internalType": "uint256",
          "name": "",
          "type": "uint256"
        }
      ],
      "stateMutability": "view",
      "type": "function"
    },
    {
      "inputs": [
        {
          "internalType": "address",
          "name": "to",
          "type": "address"
        },
        {
          "internalType": "uint256",
          "name": "amount",
          "type": "uint256"
        }
      ],
      "name": "transfer",
      "outputs": [
        {
          "internalType": "bool",
          "name": "",
          "type": "bool"
        }
      ],
      "stateMutability": "nonpayable",
      "type": "function"
    },
    {
      "inputs": [
        {
          "internalType": "address",
          "name": "from",
          "type": "address"
        },
        {
          "internalType": "address",
          "name": "to",
          "type": "address"
        },
        {
          "internalType": "uint256",
          "name": "amount",
          "type": "uint256"
        }
      ],
      "name": "transferFrom",
      "outputs": [
        {
          "internalType": "bool",
          "name": "",
          "type": "bool"
        }
      ],
      "stateMutability": "nonpayable",
      "type": "function"
    },
    {
      "inputs": [
        {
          "internalType": "address",
          "name": "newOwner",
          "type": "address"
        }
      ],
      "name": "transferOwnership",
      "outputs": [],
      "stateMutability": "nonpayable",
      "type": "function"
    }
  ],
  "bytecode": "0x608060405262000014620000b960201b60201c565b60ff16600a6200002591906200031d565b60056200003391906200036e565b600c553480156200004357600080fd5b50604051620048ee380380620048ee83398181016040528101906200006991906200054c565b818181600390816200007c919062000812565b5080600490816200008e919062000812565b505050620000b1620000a5620000c260201b60201c565b620000ca60201b60201c565b5050620008f9565b60006012905090565b600033905090565b6000600560009054906101000a900473ffffffffffffffffffffffffffffffffffffffff16905081600560006101000a81548173ffffffffffffffffffffffffffffffffffffffff021916908373ffffffffffffffffffffffffffffffffffffffff1602179055508173ffffffffffffffffffffffffffffffffffffffff168173ffffffffffffffffffffffffffffffffffffffff167f8be0079c531659141344cd1fd0a4f28419497f9722a3daafe3b4186f6b6457e060405160405180910390a35050565b7f4e487b7100000000000000000000000000000000000000000000000000000000600052601160045260246000fd5b60008160011c9050919050565b6000808291508390505b60018511156200021e57808604811115620001f657620001f562000190565b5b6001851615620002065780820291505b80810290506200021685620001bf565b9450620001d6565b94509492505050565b6000826200023957600190506200030c565b816200024957600090506200030c565b81600181146200026257600281146200026d57620002a3565b60019150506200030c565b60ff84111562000282576200028162000190565b5b8360020a9150848211156200029c576200029b62000190565b5b506200030c565b5060208310610133831016604e8410600b8410161715620002dd5782820a905083811115620002d757620002d662000190565b5b6200030c565b620002ec8484846001620001cc565b9250905081840481111562000306576200030562000190565b5b81810290505b9392505050565b6000819050919050565b60006200032a8262000313565b9150620003378362000313565b9250620003667fffffffffffffffffffffffffffffffffffffffffffffffffffffffffffffffff848462000227565b905092915050565b60006200037b8262000313565b9150620003888362000313565b9250828202620003988162000313565b91508282048414831517620003b257620003b162000190565b5b5092915050565b6000604051905090565b600080fd5b600080fd5b600080fd5b600080fd5b6000601f19601f8301169050919050565b7f4e487b7100000000000000000000000000000000000000000000000000000000600052604160045260246000fd5b6200042282620003d7565b810181811067ffffffffffffffff82111715620004445762000443620003e8565b5b80604052505050565b600062000459620003b9565b905062000467828262000417565b919050565b600067ffffffffffffffff8211156200048a5762000489620003e8565b5b6200049582620003d7565b9050602081019050919050565b60005b83811015620004c2578082015181840152602081019050620004a5565b60008484015250505050565b6000620004e5620004df846200046c565b6200044d565b905082815260208101848484011115620005045762000503620003d2565b5b62000511848285620004a2565b509392505050565b600082601f830112620005315762000530620003cd565b5b815162000543848260208601620004ce565b91505092915050565b60008060408385031215620005665762000565620003c3565b5b600083015167ffffffffffffffff811115620005875762000586620003c8565b5b620005958582860162000519565b925050602083015167ffffffffffffffff811115620005b957620005b8620003c8565b5b620005c78582860162000519565b9150509250929050565b600081519050919050565b7f4e487b7100000000000000000000000000000000000000000000000000000000600052602260045260246000fd5b600060028204905060018216806200062457607f821691505b6020821081036200063a5762000639620005dc565b5b50919050565b60008190508160005260206000209050919050565b60006020601f8301049050919050565b600082821b905092915050565b600060088302620006a47fffffffffffffffffffffffffffffffffffffffffffffffffffffffffffffffff8262000665565b620006b0868362000665565b95508019841693508086168417925050509392505050565b6000819050919050565b6000620006f3620006ed620006e78462000313565b620006c8565b62000313565b9050919050565b6000819050919050565b6200070f83620006d2565b620007276200071e82620006fa565b84845462000672565b825550505050565b600090565b6200073e6200072f565b6200074b81848462000704565b505050565b5b8181101562000773576200076760008262000734565b60018101905062000751565b5050565b601f821115620007c2576200078c8162000640565b620007978462000655565b81016020851015620007a7578190505b620007bf620007b68562000655565b83018262000750565b50505b505050565b600082821c905092915050565b6000620007e760001984600802620007c7565b1980831691505092915050565b6000620008028383620007d4565b9150826002028217905092915050565b6200081d82620005d1565b67ffffffffffffffff811115620008395762000838620003e8565b5b6200084582546200060b565b6200085282828562000777565b600060209050601f8311600181146200088a576000841562000875578287015190505b620008818582620007f4565b865550620008f1565b601f1984166200089a8662000640565b60005b82811015620008c4578489015182556001820191506020850194506020810190506200089d565b86831015620008e45784890151620008e0601f891682620007d4565b8355505b6001600288020188555050505b505050505050565b613fe580620009096000396000f3fe608060405234801561001057600080fd5b506004361061018e5760003560e01c806395d89b41116100de578063b68967e211610097578063dd62ed3e11610071578063dd62ed3e14610500578063f143532614610530578063f2fde38b14610560578063fee207e61461057c5761018e565b8063b68967e214610470578063c76d0845146104a0578063cb0e0d7d146104d05761018e565b806395d89b411461035f57806396bf47411461037d578063a457c2d7146103b0578063a8723114146103e0578063a9059cbb14610410578063b45c0fdf146104405761018e565b806337ba95231161014b5780637042f36b116101255780637042f36b146102e957806370a0823114610307578063715018a6146103375780638da5cb5b146103415761018e565b806337ba95231461027d578063395093511461029b57806363ec508f146102cb5761018e565b806306fdde0314610193578063095ea7b3146101b157806318160ddd146101e157806323b872dd146101ff5780632a2d0c471461022f578063313ce5671461025f575b600080fd5b61019b6105ac565b6040516101a89190612262565b60405180910390f35b6101cb60048036038101906101c6919061232c565b61063e565b6040516101d89190612387565b60405180910390f35b6101e9610661565b6040516101f691906123b1565b60405180910390f35b610219600480360381019061021491906123cc565b61066b565b6040516102269190612387565b60405180910390f35b6102496004803603810190610244919061241f565b61069a565b604051610256919061245b565b60405180910390f35b6102676106cd565b6040516102749190612492565b60405180910390f35b6102856106d6565b604051610292919061257f565b60405180910390f35b6102b560048036038101906102b0919061232c565b610762565b6040516102c29190612387565b60405180910390f35b6102d3610799565b6040516102e091906125b0565b60405180910390f35b6102f161079e565b6040516102fe91906123b1565b60405180910390f35b610321600480360381019061031c91906125cb565b6107a4565b60405161032e91906123b1565b60405180910390f35b61033f6107ec565b005b610349610800565b604051610356919061245b565b60405180910390f35b61036761082a565b6040516103749190612262565b60405180910390f35b61039760048036038101906103929190612624565b6108bc565b6040516103a79493929190612651565b60405180910390f35b6103ca60048036038101906103c5919061232c565b610974565b6040516103d79190612387565b60405180910390f35b6103fa60048036038101906103f59190612624565b6109eb565b60405161040791906126fc565b60405180910390f35b61042a6004803603810190610425919061232c565b610a1e565b6040516104379190612387565b60405180910390f35b61045a60048036038101906104559190612717565b610a41565b6040516104679190612387565b60405180910390f35b61048a60048036038101906104859190612a01565b610a70565b6040516104979190612387565b60405180910390f35b6104ba60048036038101906104b59190612624565b610df0565b6040516104c79190612c1f565b60405180910390f35b6104ea60048036038101906104e591906125cb565b610f39565b6040516104f791906123b1565b60405180910390f35b61051a60048036038101906105159190612c41565b610f51565b60405161052791906123b1565b60405180910390f35b61054a6004803603810190610545919061241f565b610fd8565b60405161055791906125b0565b60405180910390f35b61057a600480360381019061057591906125cb565b611016565b005b61059660048036038101906105919190612e42565b611099565b6040516105a39190612387565b60405180910390f35b6060600380546105bb90612ee0565b80601f01602080910402602001604051908101604052809291908181526020018280546105e790612ee0565b80156106345780601f1061060957610100808354040283529160200191610634565b820191906000526020600020905b81548152906001019060200180831161061757829003601f168201915b5050505050905090565b60008061064961133a565b9050610656818585611342565b600191505092915050565b6000600254905090565b60008061067661133a565b905061068385828561150b565b61068e858585611597565b60019150509392505050565b600a6020528060005260406000206000915054906101000a900473ffffffffffffffffffffffffffffffffffffffff1681565b60006012905090565b6060600980548060200260200160405190810160405280929190818152602001828054801561075857602002820191906000526020600020906000905b82829054906101000a900467ffffffffffffffff1667ffffffffffffffff16815260200190600801906020826007010492830192600103820291508084116107135790505b5050505050905090565b60008061076d61133a565b905061078e81858561077f8589610f51565b6107899190612f40565b611342565b600191505092915050565b600181565b600c5481565b60008060008373ffffffffffffffffffffffffffffffffffffffff1673ffffffffffffffffffffffffffffffffffffffff168152602001908152602001600020549050919050565b6107f4611816565b6107fe6000611894565b565b6000600560009054906101000a900473ffffffffffffffffffffffffffffffffffffffff16905090565b60606004805461083990612ee0565b80601f016020809104026020016040519081016040528092919081815260200182805461086590612ee0565b80156108b25780601f10610887576101008083540402835291602001916108b2565b820191906000526020600020905b81548152906001019060200180831161089557829003601f168201915b5050505050905090565b60076020528060005260406000206000915090508060000154908060010154908060020154908060040180546108f190612ee0565b80601f016020809104026020016040519081016040528092919081815260200182805461091d90612ee0565b801561096a5780601f1061093f5761010080835404028352916020019161096a565b820191906000526020600020905b81548152906001019060200180831161094d57829003601f168201915b5050505050905084565b60008061097f61133a565b9050600061098d8286610f51565b9050838110156109d2576040517f08c379a00000000000000000000000000000000000000000000000000000000081526004016109c990612fe6565b60405180910390fd5b6109df8286868403611342565b60019250505092915050565b60086020528060005260406000206000915054906101000a900473ffffffffffffffffffffffffffffffffffffffff1681565b600080610a2961133a565b9050610a36818585611597565b600191505092915050565b60066020528160005260406000206020528060005260406000206000915091509054906101000a900460ff1681565b60008073ffffffffffffffffffffffffffffffffffffffff16600860008867ffffffffffffffff1667ffffffffffffffff16815260200190815260200160002060009054906101000a900473ffffffffffffffffffffffffffffffffffffffff1673ffffffffffffffffffffffffffffffffffffffff1603610b27576040517f08c379a0000000000000000000000000000000000000000000000000000000008152600401610b1e90613078565b60405180910390fd5b6000600760008867ffffffffffffffff1667ffffffffffffffff1681526020019081526020016000206000015403610b94576040517f08c379a0000000000000000000000000000000000000000000000000000000008152600401610b8b9061310a565b60405180910390fd5b610be68686600860008a67ffffffffffffffff1667ffffffffffffffff16815260200190815260200160002060009054906101000a900473ffffffffffffffffffffffffffffffffffffffff1661195a565b600860008767ffffffffffffffff1667ffffffffffffffff16815260200190815260200160002060009054906101000a900473ffffffffffffffffffffffffffffffffffffffff1673ffffffffffffffffffffffffffffffffffffffff166367e1d50486868686600760008d67ffffffffffffffff1667ffffffffffffffff1681526020019081526020016000206040518663ffffffff1660e01b8152600401610c94959493929190613528565b602060405180830381865afa158015610cb1573d6000803e3d6000fd5b505050506040513d601f19601f82011682018060405250810190610cd591906135b7565b610d14576040517f08c379a0000000000000000000000000000000000000000000000000000000008152600401610d0b90613630565b60405180910390fd5b6001600660003373ffffffffffffffffffffffffffffffffffffffff1673ffffffffffffffffffffffffffffffffffffffff16815260200190815260200160002060008867ffffffffffffffff1667ffffffffffffffff16815260200190815260200160002060006101000a81548160ff021916908315150217905550610de38686600860008a67ffffffffffffffff1667ffffffffffffffff16815260200190815260200160002060009054906101000a900473ffffffffffffffffffffffffffffffffffffffff16611a6a565b6001905095945050505050565b610df8612139565b600760008367ffffffffffffffff1667ffffffffffffffff1681526020019081526020016000206040518060a001604052908160008201548152602001600182015481526020016002820154815260200160038201805480602002602001604051908101604052809291908181526020018280548015610e9757602002820191906000526020600020905b815481526020019060010190808311610e83575b50505050508152602001600482018054610eb090612ee0565b80601f0160208091040260200160405190810160405280929190818152602001828054610edc90612ee0565b8015610f295780601f10610efe57610100808354040283529160200191610f29565b820191906000526020600020905b815481529060010190602001808311610f0c57829003601f168201915b5050505050815250509050919050565b600b6020528060005260406000206000915090505481565b6000600160008473ffffffffffffffffffffffffffffffffffffffff1673ffffffffffffffffffffffffffffffffffffffff16815260200190815260200160002060008373ffffffffffffffffffffffffffffffffffffffff1673ffffffffffffffffffffffffffffffffffffffff16815260200190815260200160002054905092915050565b60098181548110610fe857600080fd5b9060005260206000209060049182820401919006600802915054906101000a900467ffffffffffffffff1681565b61101e611816565b600073ffffffffffffffffffffffffffffffffffffffff168173ffffffffffffffffffffffffffffffffffffffff160361108d576040517f08c379a0000000000000000000000000000000000000000000000000000000008152600401611084906136c2565b60405180910390fd5b61109681611894565b50565b60006110a3611816565b600073ffffffffffffffffffffffffffffffffffffffff16600860008667ffffffffffffffff1667ffffffffffffffff16815260200190815260200160002060009054906101000a900473ffffffffffffffffffffffffffffffffffffffff1673ffffffffffffffffffffffffffffffffffffffff16036111755760098490806001815401808255809150506001900390600052602060002090600491828204019190066008029091909190916101000a81548167ffffffffffffffff021916908367ffffffffffffffff1602179055505b8160600151600760008667ffffffffffffffff1667ffffffffffffffff16815260200190815260200160002060030190805190602001906111b7929190612168565b508160400151600760008667ffffffffffffffff1667ffffffffffffffff168152602001908152602001600020600201819055508160800151600760008667ffffffffffffffff1667ffffffffffffffff1681526020019081526020016000206004019081611226919061386f565b508160200151600760008667ffffffffffffffff1667ffffffffffffffff168152602001908152602001600020600101819055508160000151600760008667ffffffffffffffff1667ffffffffffffffff168152602001908152602001600020600001819055508160800151600760008667ffffffffffffffff1667ffffffffffffffff16815260200190815260200160002060040190816112c8919061386f565b5082600860008667ffffffffffffffff1667ffffffffffffffff16815260200190815260200160002060006101000a81548173ffffffffffffffffffffffffffffffffffffffff021916908373ffffffffffffffffffffffffffffffffffffffff160217905550600190509392505050565b600033905090565b600073ffffffffffffffffffffffffffffffffffffffff168373ffffffffffffffffffffffffffffffffffffffff16036113b1576040517f08c379a00000000000000000000000000000000000000000000000000000000081526004016113a8906139b3565b60405180910390fd5b600073ffffffffffffffffffffffffffffffffffffffff168273ffffffffffffffffffffffffffffffffffffffff1603611420576040517f08c379a000000000000000000000000000000000000000000000000000000000815260040161141790613a45565b60405180910390fd5b80600160008573ffffffffffffffffffffffffffffffffffffffff1673ffffffffffffffffffffffffffffffffffffffff16815260200190815260200160002060008473ffffffffffffffffffffffffffffffffffffffff1673ffffffffffffffffffffffffffffffffffffffff168152602001908152602001600020819055508173ffffffffffffffffffffffffffffffffffffffff168373ffffffffffffffffffffffffffffffffffffffff167f8c5be1e5ebec7d5bd14f71427d1e84f3dd0314c0f7b2291e5b200ac8c7c3b925836040516114fe91906123b1565b60405180910390a3505050565b60006115178484610f51565b90507fffffffffffffffffffffffffffffffffffffffffffffffffffffffffffffffff81146115915781811015611583576040517f08c379a000000000000000000000000000000000000000000000000000000000815260040161157a90613ab1565b60405180910390fd5b6115908484848403611342565b5b50505050565b600073ffffffffffffffffffffffffffffffffffffffff168373ffffffffffffffffffffffffffffffffffffffff1603611606576040517f08c379a00000000000000000000000000000000000000000000000000000000081526004016115fd90613b43565b60405180910390fd5b600073ffffffffffffffffffffffffffffffffffffffff168273ffffffffffffffffffffffffffffffffffffffff1603611675576040517f08c379a000000000000000000000000000000000000000000000000000000000815260040161166c90613bd5565b60405180910390fd5b611680838383611d3e565b60008060008573ffffffffffffffffffffffffffffffffffffffff1673ffffffffffffffffffffffffffffffffffffffff16815260200190815260200160002054905081811015611706576040517f08c379a00000000000000000000000000000000000000000000000000000000081526004016116fd90613c67565b60405180910390fd5b8181036000808673ffffffffffffffffffffffffffffffffffffffff1673ffffffffffffffffffffffffffffffffffffffff16815260200190815260200160002081905550816000808573ffffffffffffffffffffffffffffffffffffffff1673ffffffffffffffffffffffffffffffffffffffff16815260200190815260200160002060008282546117999190612f40565b925050819055508273ffffffffffffffffffffffffffffffffffffffff168473ffffffffffffffffffffffffffffffffffffffff167fddf252ad1be2c89b69c2b068fc378daa952ba7f163c4a11628f55a4df523b3ef846040516117fd91906123b1565b60405180910390a3611810848484611dfc565b50505050565b61181e61133a565b73ffffffffffffffffffffffffffffffffffffffff1661183c610800565b73ffffffffffffffffffffffffffffffffffffffff1614611892576040517f08c379a000000000000000000000000000000000000000000000000000000000815260040161188990613cd3565b60405180910390fd5b565b6000600560009054906101000a900473ffffffffffffffffffffffffffffffffffffffff16905081600560006101000a81548173ffffffffffffffffffffffffffffffffffffffff021916908373ffffffffffffffffffffffffffffffffffffffff1602179055508173ffffffffffffffffffffffffffffffffffffffff168173ffffffffffffffffffffffffffffffffffffffff167f8be0079c531659141344cd1fd0a4f28419497f9722a3daafe3b4186f6b6457e060405160405180910390a35050565b60006119ed838373ffffffffffffffffffffffffffffffffffffffff16639f442afa6040518163ffffffff1660e01b8152600401602060405180830381865afa1580156119ab573d6000803e3d6000fd5b505050506040513d601f19601f820116820180604052508101906119cf9190613d08565b815181106119e0576119df613d35565b5b6020026020010151611e01565b90508073ffffffffffffffffffffffffffffffffffffffff16611a0e61133a565b73ffffffffffffffffffffffffffffffffffffffff1614611a64576040517f08c379a0000000000000000000000000000000000000000000000000000000008152600401611a5b90613dd6565b60405180910390fd5b50505050565b600167ffffffffffffffff168367ffffffffffffffff16148015611ad457506000600b6000611a9761133a565b73ffffffffffffffffffffffffffffffffffffffff1673ffffffffffffffffffffffffffffffffffffffff16815260200190815260200160002054145b611b13576040517f08c379a0000000000000000000000000000000000000000000000000000000008152600401611b0a90613e68565b60405180910390fd5b6000828273ffffffffffffffffffffffffffffffffffffffff16639f442afa6040518163ffffffff1660e01b8152600401602060405180830381865afa158015611b61573d6000803e3d6000fd5b505050506040513d601f19601f82011682018060405250810190611b859190613d08565b81518110611b9657611b95613d35565b5b60200260200101519050600073ffffffffffffffffffffffffffffffffffffffff16600a600083815260200190815260200160002060009054906101000a900473ffffffffffffffffffffffffffffffffffffffff1673ffffffffffffffffffffffffffffffffffffffff1603611cfd57611c1a611c1261133a565b600c54611e23565b80600b6000611c2761133a565b73ffffffffffffffffffffffffffffffffffffffff1673ffffffffffffffffffffffffffffffffffffffff16815260200190815260200160002081905550611c6d61133a565b600a600083815260200190815260200160002060006101000a81548173ffffffffffffffffffffffffffffffffffffffff021916908373ffffffffffffffffffffffffffffffffffffffff1602179055507f1769458759743590f94d4633a66d3fb44709f2f2490b32edb607546ac1b050cc336001604051611cf0929190613e88565b60405180910390a1611d38565b7f1769458759743590f94d4633a66d3fb44709f2f2490b32edb607546ac1b050cc336000604051611d2f929190613e88565b60405180910390a15b50505050565b60011515600660008473ffffffffffffffffffffffffffffffffffffffff1673ffffffffffffffffffffffffffffffffffffffff1681526020019081526020016000206000600167ffffffffffffffff1667ffffffffffffffff16815260200190815260200160002060009054906101000a900460ff16151514611df7576040517f08c379a0000000000000000000000000000000000000000000000000000000008152600401611dee90613f23565b60405180910390fd5b505050565b505050565b6000611e1c611e17611e1284611f82565b6120ce565b61212b565b9050919050565b600073ffffffffffffffffffffffffffffffffffffffff168273ffffffffffffffffffffffffffffffffffffffff1603611e92576040517f08c379a0000000000000000000000000000000000000000000000000000000008152600401611e8990613f8f565b60405180910390fd5b611e9e60008383611d3e565b8060026000828254611eb09190612f40565b92505081905550806000808473ffffffffffffffffffffffffffffffffffffffff1673ffffffffffffffffffffffffffffffffffffffff1681526020019081526020016000206000828254611f059190612f40565b925050819055508173ffffffffffffffffffffffffffffffffffffffff16600073ffffffffffffffffffffffffffffffffffffffff167fddf252ad1be2c89b69c2b068fc378daa952ba7f163c4a11628f55a4df523b3ef83604051611f6a91906123b1565b60405180910390a3611f7e60008383611dfc565b5050565b600081905060087eff00ff00ff00ff00ff00ff00ff00ff00ff00ff00ff00ff00ff00ff00ff00ff8216901b60087fff00ff00ff00ff00ff00ff00ff00ff00ff00ff00ff00ff00ff00ff00ff00ff008316901c17905060107dffff0000ffff0000ffff0000ffff0000ffff0000ffff0000ffff0000ffff8216901b60107fffff0000ffff0000ffff0000ffff0000ffff0000ffff0000ffff0000ffff00008316901c17905060207bffffffff00000000ffffffff00000000ffffffff00000000ffffffff8216901b60207fffffffff00000000ffffffff00000000ffffffff00000000ffffffff000000008316901c179050604077ffffffffffffffff0000000000000000ffffffffffffffff8216901b60407fffffffffffffffff0000000000000000ffffffffffffffff00000000000000008316901c179050608081901b608082901c179050919050565b6060602067ffffffffffffffff8111156120eb576120ea61275c565b5b6040519080825280601f01601f19166020018201604052801561211d5781602001600182028036833780820191505090505b509050816020820152919050565b600060148201519050919050565b6040518060a0016040528060008152602001600081526020016000815260200160608152602001606081525090565b8280548282559060005260206000209081019282156121a4579160200282015b828111156121a3578251825591602001919060010190612188565b5b5090506121b191906121b5565b5090565b5b808211156121ce5760008160009055506001016121b6565b5090565b600081519050919050565b600082825260208201905092915050565b60005b8381101561220c5780820151818401526020810190506121f1565b60008484015250505050565b6000601f19601f8301169050919050565b6000612234826121d2565b61223e81856121dd565b935061224e8185602086016121ee565b61225781612218565b840191505092915050565b6000602082019050818103600083015261227c8184612229565b905092915050565b6000604051905090565b600080fd5b600080fd5b600073ffffffffffffffffffffffffffffffffffffffff82169050919050565b60006122c382612298565b9050919050565b6122d3816122b8565b81146122de57600080fd5b50565b6000813590506122f0816122ca565b92915050565b6000819050919050565b612309816122f6565b811461231457600080fd5b50565b60008135905061232681612300565b92915050565b600080604083850312156123435761234261228e565b5b6000612351858286016122e1565b925050602061236285828601612317565b9150509250929050565b60008115159050919050565b6123818161236c565b82525050565b600060208201905061239c6000830184612378565b92915050565b6123ab816122f6565b82525050565b60006020820190506123c660008301846123a2565b92915050565b6000806000606084860312156123e5576123e461228e565b5b60006123f3868287016122e1565b9350506020612404868287016122e1565b925050604061241586828701612317565b9150509250925092565b6000602082840312156124355761243461228e565b5b600061244384828501612317565b91505092915050565b612455816122b8565b82525050565b6000602082019050612470600083018461244c565b92915050565b600060ff82169050919050565b61248c81612476565b82525050565b60006020820190506124a76000830184612483565b92915050565b600081519050919050565b600082825260208201905092915050565b6000819050602082019050919050565b600067ffffffffffffffff82169050919050565b6124f6816124d9565b82525050565b600061250883836124ed565b60208301905092915050565b6000602082019050919050565b600061252c826124ad565b61253681856124b8565b9350612541836124c9565b8060005b8381101561257257815161255988826124fc565b975061256483612514565b925050600181019050612545565b5085935050505092915050565b600060208201905081810360008301526125998184612521565b905092915050565b6125aa816124d9565b82525050565b60006020820190506125c560008301846125a1565b92915050565b6000602082840312156125e1576125e061228e565b5b60006125ef848285016122e1565b91505092915050565b612601816124d9565b811461260c57600080fd5b50565b60008135905061261e816125f8565b92915050565b60006020828403121561263a5761263961228e565b5b60006126488482850161260f565b91505092915050565b600060808201905061266660008301876123a2565b61267360208301866123a2565b61268060408301856123a2565b81810360608301526126928184612229565b905095945050505050565b6000819050919050565b60006126c26126bd6126b884612298565b61269d565b612298565b9050919050565b60006126d4826126a7565b9050919050565b60006126e6826126c9565b9050919050565b6126f6816126db565b82525050565b600060208201905061271160008301846126ed565b92915050565b6000806040838503121561272e5761272d61228e565b5b600061273c858286016122e1565b925050602061274d8582860161260f565b9150509250929050565b600080fd5b7f4e487b7100000000000000000000000000000000000000000000000000000000600052604160045260246000fd5b61279482612218565b810181811067ffffffffffffffff821117156127b3576127b261275c565b5b80604052505050565b60006127c6612284565b90506127d2828261278b565b919050565b600067ffffffffffffffff8211156127f2576127f161275c565b5b602082029050602081019050919050565b600080fd5b600061281b612816846127d7565b6127bc565b9050808382526020820190506020840283018581111561283e5761283d612803565b5b835b8181101561286757806128538882612317565b845260208401935050602081019050612840565b5050509392505050565b600082601f83011261288657612885612757565b5b8135612896848260208601612808565b91505092915050565b600067ffffffffffffffff8211156128ba576128b961275c565b5b602082029050919050565b60006128d86128d38461289f565b6127bc565b905080602084028301858111156128f2576128f1612803565b5b835b8181101561291b57806129078882612317565b8452602084019350506020810190506128f4565b5050509392505050565b600082601f83011261293a57612939612757565b5b60026129478482856128c5565b91505092915050565b600067ffffffffffffffff82111561296b5761296a61275c565b5b602082029050919050565b600061298961298484612950565b6127bc565b905080604084028301858111156129a3576129a2612803565b5b835b818110156129cc57806129b88882612925565b8452602084019350506040810190506129a5565b5050509392505050565b600082601f8301126129eb576129ea612757565b5b60026129f8848285612976565b91505092915050565b60008060008060006101408688031215612a1e57612a1d61228e565b5b6000612a2c8882890161260f565b955050602086013567ffffffffffffffff811115612a4d57612a4c612293565b5b612a5988828901612871565b9450506040612a6a88828901612925565b9350506080612a7b888289016129d6565b925050610100612a8d88828901612925565b9150509295509295909350565b612aa3816122f6565b82525050565b600081519050919050565b600082825260208201905092915050565b6000819050602082019050919050565b6000612ae18383612a9a565b60208301905092915050565b6000602082019050919050565b6000612b0582612aa9565b612b0f8185612ab4565b9350612b1a83612ac5565b8060005b83811015612b4b578151612b328882612ad5565b9750612b3d83612aed565b925050600181019050612b1e565b5085935050505092915050565b600082825260208201905092915050565b6000612b74826121d2565b612b7e8185612b58565b9350612b8e8185602086016121ee565b612b9781612218565b840191505092915050565b600060a083016000830151612bba6000860182612a9a565b506020830151612bcd6020860182612a9a565b506040830151612be06040860182612a9a565b5060608301518482036060860152612bf88282612afa565b91505060808301518482036080860152612c128282612b69565b9150508091505092915050565b60006020820190508181036000830152612c398184612ba2565b905092915050565b60008060408385031215612c5857612c5761228e565b5b6000612c66858286016122e1565b9250506020612c77858286016122e1565b9150509250929050565b6000612c8c826122b8565b9050919050565b612c9c81612c81565b8114612ca757600080fd5b50565b600081359050612cb981612c93565b92915050565b600080fd5b600080fd5b600080fd5b600067ffffffffffffffff821115612ce957612ce861275c565b5b612cf282612218565b9050602081019050919050565b82818337600083830152505050565b6000612d21612d1c84612cce565b6127bc565b905082815260208101848484011115612d3d57612d3c612cc9565b5b612d48848285612cff565b509392505050565b600082601f830112612d6557612d64612757565b5b8135612d75848260208601612d0e565b91505092915050565b600060a08284031215612d9457612d93612cbf565b5b612d9e60a06127bc565b90506000612dae84828501612317565b6000830152506020612dc284828501612317565b6020830152506040612dd684828501612317565b604083015250606082013567ffffffffffffffff811115612dfa57612df9612cc4565b5b612e0684828501612871565b606083015250608082013567ffffffffffffffff811115612e2a57612e29612cc4565b5b612e3684828501612d50565b60808301525092915050565b600080600060608486031215612e5b57612e5a61228e565b5b6000612e698682870161260f565b9350506020612e7a86828701612caa565b925050604084013567ffffffffffffffff811115612e9b57612e9a612293565b5b612ea786828701612d7e565b9150509250925092565b7f4e487b7100000000000000000000000000000000000000000000000000000000600052602260045260246000fd5b60006002820490506001821680612ef857607f821691505b602082108103612f0b57612f0a612eb1565b5b50919050565b7f4e487b7100000000000000000000000000000000000000000000000000000000600052601160045260246000fd5b6000612f4b826122f6565b9150612f56836122f6565b9250828201905080821115612f6e57612f6d612f11565b5b92915050565b7f45524332303a2064656372656173656420616c6c6f77616e63652062656c6f7760008201527f207a65726f000000000000000000000000000000000000000000000000000000602082015250565b6000612fd06025836121dd565b9150612fdb82612f74565b604082019050919050565b60006020820190508181036000830152612fff81612fc3565b9050919050565b7f76616c696461746f72206973206e6f742073657420666f72207468697320726560008201527f7175657374206964000000000000000000000000000000000000000000000000602082015250565b60006130626028836121dd565b915061306d82613006565b604082019050919050565b6000602082019050818103600083015261309181613055565b9050919050565b7f7175657279206973206e6f742073657420666f7220746869732072657175657360008201527f7420696400000000000000000000000000000000000000000000000000000000602082015250565b60006130f46024836121dd565b91506130ff82613098565b604082019050919050565b60006020820190508181036000830152613123816130e7565b9050919050565b600082825260208201905092915050565b600061314682612aa9565b613150818561312a565b935061315b83612ac5565b8060005b8381101561318c5781516131738882612ad5565b975061317e83612aed565b92505060018101905061315f565b5085935050505092915050565b600060029050919050565b600081905092915050565b6000819050919050565b6000602082019050919050565b6131cf81613199565b6131d981846131a4565b92506131e4826131af565b8060005b838110156132155781516131fc8782612ad5565b9650613207836131b9565b9250506001810190506131e8565b505050505050565b600060029050919050565b600081905092915050565b6000819050919050565b600081905092915050565b61325181613199565b61325b818461323d565b9250613266826131af565b8060005b8381101561329757815161327e8782612ad5565b9650613289836131b9565b92505060018101905061326a565b505050505050565b60006132ab8383613248565b60408301905092915050565b6000602082019050919050565b6132cd8161321d565b6132d78184613228565b92506132e282613233565b8060005b838110156133135781516132fa878261329f565b9650613305836132b7565b9250506001810190506132e6565b505050505050565b60008160001c9050919050565b6000819050919050565b60006133456133408361331b565b613328565b9050919050565b600081549050919050565b60008190508160005260206000209050919050565b60006133788254613332565b9050919050565b6000600182019050919050565b60006133978261334c565b6133a18185612ab4565b93506133ac83613357565b8060005b838110156133e4576133c18261336c565b6133cb8882612ad5565b97506133d68361337f565b9250506001810190506133b0565b5085935050505092915050565b60008190508160005260206000209050919050565b6000815461341381612ee0565b61341d8186612b58565b94506001821660008114613438576001811461344e57613481565b60ff198316865281151560200286019350613481565b613457856133f1565b60005b838110156134795781548189015260018201915060208101905061345a565b808801955050505b50505092915050565b600060a0830160008084015490506134a181613332565b6134ae6000870182612a9a565b50600184015490506134bf81613332565b6134cc6020870182612a9a565b50600284015490506134dd81613332565b6134ea6040870182612a9a565b50600384018583036060870152613501838261338c565b92505060048401858303608087015261351a8382613406565b925050819250505092915050565b6000610140820190508181036000830152613543818861313b565b905061355260208301876131c6565b61355f60608301866132c4565b61356c60e08301856131c6565b81810361012083015261357f818461348a565b90509695505050505050565b6135948161236c565b811461359f57600080fd5b50565b6000815190506135b18161358b565b92915050565b6000602082840312156135cd576135cc61228e565b5b60006135db848285016135a2565b91505092915050565b7f70726f6f6620726573706f6e7365206973206e6f742076616c69640000000000600082015250565b600061361a601b836121dd565b9150613625826135e4565b602082019050919050565b600060208201905081810360008301526136498161360d565b9050919050565b7f4f776e61626c653a206e6577206f776e657220697320746865207a65726f206160008201527f6464726573730000000000000000000000000000000000000000000000000000602082015250565b60006136ac6026836121dd565b91506136b782613650565b604082019050919050565b600060208201905081810360008301526136db8161369f565b9050919050565b60006020601f8301049050919050565b600082821b905092915050565b60006008830261372f7fffffffffffffffffffffffffffffffffffffffffffffffffffffffffffffffff826136f2565b61373986836136f2565b95508019841693508086168417925050509392505050565b600061376c613767613762846122f6565b61269d565b6122f6565b9050919050565b6000819050919050565b61378683613751565b61379a61379282613773565b8484546136ff565b825550505050565b600090565b6137af6137a2565b6137ba81848461377d565b505050565b5b818110156137de576137d36000826137a7565b6001810190506137c0565b5050565b601f821115613823576137f4816133f1565b6137fd846136e2565b8101602085101561380c578190505b613820613818856136e2565b8301826137bf565b50505b505050565b600082821c905092915050565b600061384660001984600802613828565b1980831691505092915050565b600061385f8383613835565b9150826002028217905092915050565b613878826121d2565b67ffffffffffffffff8111156138915761389061275c565b5b61389b8254612ee0565b6138a68282856137e2565b600060209050601f8311600181146138d957600084156138c7578287015190505b6138d18582613853565b865550613939565b601f1984166138e7866133f1565b60005b8281101561390f578489015182556001820191506020850194506020810190506138ea565b8683101561392c5784890151613928601f891682613835565b8355505b6001600288020188555050505b505050505050565b7f45524332303a20617070726f76652066726f6d20746865207a65726f2061646460008201527f7265737300000000000000000000000000000000000000000000000000000000602082015250565b600061399d6024836121dd565b91506139a882613941565b604082019050919050565b600060208201905081810360008301526139cc81613990565b9050919050565b7f45524332303a20617070726f766520746f20746865207a65726f20616464726560008201527f7373000000000000000000000000000000000000000000000000000000000000602082015250565b6000613a2f6022836121dd565b9150613a3a826139d3565b604082019050919050565b60006020820190508181036000830152613a5e81613a22565b9050919050565b7f45524332303a20696e73756666696369656e7420616c6c6f77616e6365000000600082015250565b6000613a9b601d836121dd565b9150613aa682613a65565b602082019050919050565b60006020820190508181036000830152613aca81613a8e565b9050919050565b7f45524332303a207472616e736665722066726f6d20746865207a65726f20616460008201527f6472657373000000000000000000000000000000000000000000000000000000602082015250565b6000613b2d6025836121dd565b9150613b3882613ad1565b604082019050919050565b60006020820190508181036000830152613b5c81613b20565b9050919050565b7f45524332303a207472616e7366657220746f20746865207a65726f206164647260008201527f6573730000000000000000000000000000000000000000000000000000000000602082015250565b6000613bbf6023836121dd565b9150613bca82613b63565b604082019050919050565b60006020820190508181036000830152613bee81613bb2565b9050919050565b7f45524332303a207472616e7366657220616d6f756e742065786365656473206260008201527f616c616e63650000000000000000000000000000000000000000000000000000602082015250565b6000613c516026836121dd565b9150613c5c82613bf5565b604082019050919050565b60006020820190508181036000830152613c8081613c44565b9050919050565b7f4f776e61626c653a2063616c6c6572206973206e6f7420746865206f776e6572600082015250565b6000613cbd6020836121dd565b9150613cc882613c87565b602082019050919050565b60006020820190508181036000830152613cec81613cb0565b9050919050565b600081519050613d0281612300565b92915050565b600060208284031215613d1e57613d1d61228e565b5b6000613d2c84828501613cf3565b91505092915050565b7f4e487b7100000000000000000000000000000000000000000000000000000000600052603260045260246000fd5b7f6164647265737320696e2070726f6f66206973206e6f7420612073656e64657260008201527f2061646472657373000000000000000000000000000000000000000000000000602082015250565b6000613dc06028836121dd565b9150613dcb82613d64565b604082019050919050565b60006020820190508181036000830152613def81613db3565b9050919050565b7f70726f6f662063616e206e6f74206265207375626d6974746564206d6f72652060008201527f7468616e206f6e63650000000000000000000000000000000000000000000000602082015250565b6000613e526029836121dd565b9150613e5d82613df6565b604082019050919050565b60006020820190508181036000830152613e8181613e45565b9050919050565b6000604082019050613e9d600083018561244c565b613eaa6020830184612378565b9392505050565b7f6f6e6c79206964656e7469746965732077686f2070726f76696465642070726f60008201527f6f662061726520616c6c6f77656420746f207265636569766520746f6b656e73602082015250565b6000613f0d6040836121dd565b9150613f1882613eb1565b604082019050919050565b60006020820190508181036000830152613f3c81613f00565b9050919050565b7f45524332303a206d696e7420746f20746865207a65726f206164647265737300600082015250565b6000613f79601f836121dd565b9150613f8482613f43565b602082019050919050565b60006020820190508181036000830152613fa881613f6c565b905091905056fea264697066735822122029ab2e0514c9ca5b9975c62041210be259b43543b1742ccd1721fd839137cc8864736f6c63430008110033",
  "linkReferences": {},
  "deployedLinkReferences": {}
}